{
	"data": {
		"bytecode": {
			"linkReferences": {},
			"object": "6101206040523480156200001257600080fd5b5060405162004865380380620048658339810160408190526200003591620001fa565b6001600160a01b03848116608052600080546001600160a01b031916918516918217905560405190815283907f3edd90e7770f06fafde38004653b33870066c33bfc923ff6102acd601f85dfbc9060200160405180910390a1506001805460ff60a81b1916600160a81b179055620000ad81620000e7565b620000b88262000166565b5050506001600160a01b0393841660a05260c0929092529116610100526001600160401b031660e0526200029e565b6109c461ffff821611156200010f57604051634929acd760e01b815260040160405180910390fd5b6007805461ffff60a01b1916600160a01b61ffff8416908102919091179091556040519081527fede4aee4284b8033b84c1aadcc51b229a4e46e6b42ab40092e237f07508b4626906020015b60405180910390a150565b6001600160a01b0381166200018e57604051633106a0c760e01b815260040160405180910390fd5b600780546001600160a01b0319166001600160a01b0383169081179091556040519081527fc1b5345cce283376356748dc57f2dfa7120431d016fc7ca9ba641bc65f91411d906020016200015b565b80516001600160a01b0381168114620001f557600080fd5b919050565b600080600080600080600060e0888a0312156200021657600080fd5b6200022188620001dd565b602089015160408a015191985096506001600160401b03811681146200024657600080fd5b94506200025660608901620001dd565b93506200026660808901620001dd565b92506200027660a08901620001dd565b915060c088015161ffff811681146200028e57600080fd5b8091505092959891949750929550565b60805160a05160c05160e051610100516145586200030d6000396000818161033101526136c10152600081816102e0015261368001526000818161055e01526136520152600081816109b501528181612d5f01526132bd015260008181610bc70152610c0901526145586000f3fe6080604052600436106102c95760003560e01c806365d697f71161017557806398753c46116100dc578063cc30779511610095578063e521cb921161006f578063e521cb9214610a71578063f23a6e6114610a91578063f42df13214610ad7578063f54a6f8314610aea57600080fd5b8063cc307795146109f7578063d3549ebd14610a24578063d49a563014610a5157600080fd5b806398753c46146108b8578063a17be154146108da578063a72844ba14610963578063ac68a74814610983578063ad5c4648146109a3578063c0b6f561146109d757600080fd5b80637200b8291161012e5780637200b829146108225780637762df251461083757806382d6848c14610857578063863e76db1461086a5780638da5cb5b146108815780638e6f6b77146108a157600080fd5b806365d697f71461077657806367f082b01461078b57806368986912146107a057806369ce6d47146107b55780636b1426a4146107d55780636f30d7b51461080257600080fd5b806340e58ee5116102345780635708b502116101ed5780635c975abb116101c75780635c975abb1461060b5780635cb6dfff1461062a5780635d4bc0ce1461069757806364df049e1461075657600080fd5b80635708b502146105a05780635a195d19146105b65780635b6ac011146105f657600080fd5b806340e58ee5146104b2578063436313b2146104d257806349890e151461050d5780634d2c53cd1461053657806351dc86a51461054c578063534fff0e1461058057600080fd5b80632bb5a9e6116102865780632bb5a9e6146103e257806331fe74a91461041057806336566f061461043d57806339a2eb2a146104525780633b6cb153146104725780633e5675391461049d57600080fd5b8063030932bb146102ce57806305f6a9241461031f5780631e9f1a821461036b5780631fe543e31461038d57806323452b9c146103ad5780632a6a4eb8146103c2575b600080fd5b3480156102da57600080fd5b506103027f000000000000000000000000000000000000000000000000000000000000000081565b6040516001600160401b0390911681526020015b60405180910390f35b34801561032b57600080fd5b506103537f000000000000000000000000000000000000000000000000000000000000000081565b6040516001600160a01b039091168152602001610316565b34801561037757600080fd5b5061038b610386366004613a9a565b610b0a565b005b34801561039957600080fd5b5061038b6103a8366004613b36565b610bbc565b3480156103b957600080fd5b5061038b610c48565b3480156103ce57600080fd5b5061038b6103dd366004613be7565b610cf2565b3480156103ee57600080fd5b5060015461040390600160a01b900460ff1681565b6040516103169190613c21565b34801561041c57600080fd5b5061043061042b366004613c3b565b610d06565b6040516103169190613c54565b34801561044957600080fd5b5061038b610d85565b34801561045e57600080fd5b5061038b61046d366004613c3b565b610db0565b34801561047e57600080fd5b50610487606e81565b60405164ffffffffff9091168152602001610316565b3480156104a957600080fd5b5061038b61126c565b3480156104be57600080fd5b5061038b6104cd366004613c3b565b611305565b3480156104de57600080fd5b506104ff6104ed366004613cbe565b60086020526000908152604090205481565b604051908152602001610316565b34801561051957600080fd5b506105236109c481565b60405161ffff9091168152602001610316565b34801561054257600080fd5b506104ff60025481565b34801561055857600080fd5b506104ff7f000000000000000000000000000000000000000000000000000000000000000081565b34801561058c57600080fd5b5061038b61059b366004613c3b565b6113f5565b3480156105ac57600080fd5b506104ff61271081565b3480156105c257600080fd5b506105e66105d1366004613cbe565b60056020526000908152604090205460ff1681565b6040519015158152602001610316565b34801561060257600080fd5b5061038b6114e0565b34801561061757600080fd5b50600154600160b01b900460ff166105e6565b34801561063657600080fd5b50610672610645366004613c3b565b6006602052600090815260409020805460019091015460ff82169161010090046001600160f81b03169083565b6040805193151584526001600160f81b03909216602084015290820152606001610316565b3480156106a357600080fd5b506107406106b2366004613c3b565b6003602052600090815260409020805460018201546002909201546001600160a01b0380831693600160a01b840460ff90811694600160a81b810490911693600160b01b820464ffffffffff90811694600160d81b90930481169381811693600160281b820490921692600160501b820490921691600160f01b90910461ffff16906001600160d01b03168a565b6040516103169a99989796959493929190613ced565b34801561076257600080fd5b50600754610353906001600160a01b031681565b34801561078257600080fd5b506104ff601481565b34801561079757600080fd5b50610523600381565b3480156107ac57600080fd5b506104ff600581565b3480156107c157600080fd5b5061038b6107d0366004613cbe565b611564565b3480156107e157600080fd5b506107f56107f0366004613c3b565b61159c565b6040516103169190613d68565b34801561080e57600080fd5b5061038b61081d366004613de1565b611643565b34801561082e57600080fd5b5061038b6116e4565b34801561084357600080fd5b50600154610353906001600160a01b031681565b61038b610865366004613c3b565b6117a1565b34801561087657600080fd5b506104ff6201518081565b34801561088d57600080fd5b50600054610353906001600160a01b031681565b3480156108ad57600080fd5b506104ff62093a8081565b3480156108c457600080fd5b5060075461052390600160a01b900461ffff1681565b3480156108e657600080fd5b506109366108f5366004613e22565b60046020908152600092835260408084209091529082529020546001600160d01b03811690600160d01b810464ffffffffff1690600160f81b900460ff1683565b604080516001600160d01b03909416845264ffffffffff9092166020840152151590820152606001610316565b34801561096f57600080fd5b5061038b61097e366004613c3b565b61198b565b34801561098f57600080fd5b5061038b61099e366004613c3b565b611a51565b3480156109af57600080fd5b506103537f000000000000000000000000000000000000000000000000000000000000000081565b3480156109e357600080fd5b5061038b6109f2366004613cbe565b611c05565b348015610a0357600080fd5b50610a17610a12366004613c3b565b611cae565b6040516103169190613e4e565b348015610a3057600080fd5b50610a44610a3f366004613c3b565b611db0565b6040516103169190613ee9565b348015610a5d57600080fd5b506104ff610a6c366004613f3b565b611e35565b348015610a7d57600080fd5b5061038b610a8c366004613cbe565b612283565b348015610a9d57600080fd5b50610abe610aac366004613f76565b63f23a6e6160e01b9695505050505050565b6040516001600160e01b03199091168152602001610316565b61038b610ae536600461401b565b612294565b348015610af657600080fd5b5061038b610b05366004613de1565b6126dd565b610b1261287a565b8160005b81811015610b7a578260056000878785818110610b3557610b3561408f565b9050602002016020810190610b4a9190613cbe565b6001600160a01b031681526020810191909152604001600020805460ff1916911515919091179055600101610b16565b507fcb2fef16ee9f3ea43e174daf88ffcdc8beee4ad884c7570093d998d710586987848484604051610bae939291906140a5565b60405180910390a150505050565b336001600160a01b037f00000000000000000000000000000000000000000000000000000000000000001614610c3a5760405163073e64fd60e21b81523360048201526001600160a01b037f000000000000000000000000000000000000000000000000000000000000000016602482015260440160405180910390fd5b610c4482826128a5565b5050565b610c5061287a565b600154600160a01b900460ff166000816002811115610c7157610c71613c0b565b03610c8f5760405163ccf69db760e01b815260040160405180910390fd5b6001816002811115610ca357610ca3613c0b565b03610cb957600180546001600160a01b03191690555b6001805460ff60a01b191690556040517f8eca980489e87f7dba4f26917aa4bfc906eb3f2b4f7b4b9fd0ff2b8bb3e21ae390600090a150565b610cfa61287a565b610d0381612967565b50565b610d0e613a08565b6000828152600360208190526040808320815160a081019092529092910190600590835b82821015610d7a57604080518082019091528483015464ffffffffff81168252600160281b90046001600160d01b031660208083019190915290825260019092019101610d32565b505050509050919050565b610d8d61287a565b600154600160b01b900460ff16610da857610da66129de565b565b610da6612a29565b6000818152600660209081526040918290208251606081018452815460ff811615158083526101009091046001600160f81b03169382019390935260019091015492810192909252610e15576040516306dc6a1360e21b815260040160405180910390fd5b6040808201516000818152600360205291909120610e34816004612a6e565b610e4081836005612abb565b600881018054600082610e54600184614112565b81548110610e6457610e6461408f565b906000526020600020906003020160000160059054906101000a900464ffffffffff1664ffffffffff169050600084600901805480602002602001604051908101604052809291908181526020016000905b82821015610f03576000848152602090819020604080518082019091529084015464ffffffffff81168252600160281b90046001600160a01b031681830152825260019092019101610eb6565b5050825192935060009150839050610f1c600184614112565b81518110610f2c57610f2c61408f565b60200260200101516000015164ffffffffff1690506000600882901c6001610f549190614125565b6001600160401b03811115610f6b57610f6b613af0565b604051908082528060200260200182016040528015610f94578160200160208202803683370190505b5090506000836001600160401b03811115610fb157610fb1613af0565b604051908082528060200260200182016040528015610fda578160200160208202803683370190505b50905060005b8481101561103257858181518110610ffa57610ffa61408f565b60200260200101516000015164ffffffffff1682828151811061101f5761101f61408f565b6020908102919091010152600101610fe0565b506000876001600160401b0381111561104d5761104d613af0565b604051908082528060200260200182016040528015611076578160200160208202803683370190505b50905060005b888110156110e5578981815481106110965761109661408f565b906000526020600020906003020160000160059054906101000a900464ffffffffff1664ffffffffff168282815181106110d2576110d261408f565b602090810291909101015260010161107c565b5060208c01516001600160f81b031660005b8881101561125b57600061110c876001614125565b611116908461414e565b9050611123878288612b22565b6040805160808101909152909750909150600a8e0190808b6111458986612bcf565b815181106111555761115561408f565b6020026020010151602001516001600160a01b0316815260200160001515815260200161118c6111858660010190565b8890612bcf565b60ff908116825264ffffffffff808616602093840152845460018101865560009586529483902084519501805485850151604080880151606090980151909416600160b01b0264ffffffffff60b01b1997909516600160a81b029690961665ffffffffffff60a81b19961515600160a01b026001600160a81b03199092166001600160a01b03909816979097171794909416949094171790915590516112389185910190815260200190565b60408051601f1981840301815291905280516020909101209250506001016110f7565b505050505050505050505050505050565b61127461287a565b6002600154600160a01b900460ff16600281111561129457611294613c0b565b146112b25760405163022e289160e11b815260040160405180910390fd5b600080546001600160a01b03191681556001805460ff60a01b191690556040519081527f3edd90e7770f06fafde38004653b33870066c33bfc923ff6102acd601f85dfbc906020015b60405180910390a1565b600154600160a81b900460ff1660020361133257604051630ddf739360e11b815260040160405180910390fd5b6001805460ff60a81b1916600160a91b17905561134d612c81565b60008181526003602052604081209060028254600160a01b900460ff16600881111561137b5761137b613c0b565b14905080156113ba57815442600160b01b90910464ffffffffff1611156113b55760405163f9ad93f560e01b815260040160405180910390fd5b6113c5565b6113c5826001612a6e565b6113dd8284836113d6576008612abb565b6007612abb565b50506001805460ff60a81b1916600160a81b17905550565b600154600160a81b900460ff1660020361142257604051630ddf739360e11b815260040160405180910390fd5b6001805460ff60a81b1916600160a91b17905561143d612c81565b6000818152600360205260409020611456816007612a6e565b61146281836008612abb565b600881015481546001600160a01b031660005b828110156114c65760008460080182815481106114945761149461408f565b6000918252602090912060039091020180549091506114bd908290859064ffffffffff16612cac565b50600101611475565b50506001805460ff60a81b1916600160a81b179055505050565b6114e861287a565b6000600154600160a01b900460ff16600281111561150857611508613c0b565b1461152657604051633a76bcd760e11b815260040160405180910390fd5b6001805460ff60a01b1916600160a11b1790556040517f3ff05a45e46337fa1cbf20996d2eeb927280bce099f37252bcca1040609604ec90600090a1565b61156c61287a565b6001600160a01b03808216600090815260086020526040812080549190556007549091610c449184911683612d4c565b606060036000838152602001908152602001600020600a01805480602002602001604051908101604052809291908181526020016000905b82821015610d7a57600084815260209081902060408051608081018252918501546001600160a01b038116835260ff600160a01b82048116151584860152600160a81b8204169183019190915264ffffffffff600160b01b9091041660608201528252600190920191016115d4565b600154600160a81b900460ff1660020361167057604051630ddf739360e11b815260040160405180910390fd5b6001805460ff60a81b1916600160a91b17905561168b612c81565b8060005b818110156116cb576116c38484838181106116ac576116ac61408f565b90506020028101906116be9190614162565b612d96565b60010161168f565b50506001805460ff60a81b1916600160a81b1790555050565b60018054600160a01b900460ff16600281111561170357611703613c0b565b1461172157604051632f27941360e11b815260040160405180910390fd5b6001546001600160a01b0316331461174c576040516357ee7dc960e11b815260040160405180910390fd5b600080546001600160a01b03191633908117909155600180546001600160a81b03191690556040519081527f3edd90e7770f06fafde38004653b33870066c33bfc923ff6102acd601f85dfbc906020016112fb565b600154600160a81b900460ff166002036117ce57604051630ddf739360e11b815260040160405180910390fd5b6001805460ff60a81b1916600160a91b1790556117e9612c81565b6000818152600360205260409020611802816001612a6e565b8054611816906001600160a01b0316612f3f565b6008810180546000805b8281101561197557600084828154811061183c5761183c61408f565b600091825260208220600390910201805490925060ff600160501b909104169081600381111561186e5761186e613c0b565b0361189d578154600183015461189891600160601b90046001600160a01b03169033903090612f68565b61196b565b60038160038111156118b1576118b1613c0b565b036118ec5781546002830154611898916001600160a01b03600160601b82041691339130916118e79164ffffffffff1690614182565b613058565b600281600381111561190057611900613c0b565b0361192e578154600283015461191d9164ffffffffff1690614182565b6119279085614125565b935061196b565b81546001830154600284015461196b926001600160a01b03600160601b82041692339230926119669164ffffffffff90911690614182565b61318a565b5050600101611820565b5061197f8161328f565b6114c684866002612abb565b61199361287a565b600154600160a81b900460ff166002036119c057604051630ddf739360e11b815260040160405180910390fd5b6001805460ff60a81b1916600160a91b1790556000818152600360208190526040909120906119f0908290612a6e565b8054611a0e906201518090600160d81b900464ffffffffff16614125565b421015611a2e57604051637a60653760e11b815260040160405180910390fd5b611a3a81836007612abb565b50506001805460ff60a81b1916600160a81b179055565b600154600160a81b900460ff16600203611a7e57604051630ddf739360e11b815260040160405180910390fd5b6001805460ff60a81b1916600160a91b179055611a99612c81565b6000818152600360205260409020611ab2816005612a6e565b80546001600160a01b0316338114611ad957600054611ad9906001600160a01b0316612f3f565b600282015460018301546001600160d01b039091169060009061271090611b0b90600160f01b900461ffff1684614199565b611b1591906141c2565b90508082039150611b2884866006612abb565b6002840180546001600160d01b03191690556001840154600160501b90046001600160a01b0316611b6381856001600160d01b038616612d4c565b6001600160d01b03821615611ba9576001600160a01b038116600090815260086020526040812080546001600160d01b0385169290611ba3908490614125565b90915550505b604080518781526001600160d01b03851660208201527fa1f87f32d0f17fab0242ca800d736293de8988c14b27747e218cf13d5c249f53910160405180910390a150506001805460ff60a81b1916600160a81b17905550505050565b611c0d61287a565b6000600154600160a01b900460ff166002811115611c2d57611c2d613c0b565b14611c4b57604051633a76bcd760e11b815260040160405180910390fd5b600180546001600160a01b0383166001600160a81b03199091168117600160a01b179091556040805133815260208101929092527fb86c75c9bffca616b2d314cc914f7c3f1d174255b16b941c3f3ededee276d5ef91015b60405180910390a150565b606060036000838152602001908152602001600020600801805480602002602001604051908101604052809291908181526020016000905b82821015610d7a5760008481526020908190206040805160e0810182526003868102909301805464ffffffffff8082168452600160281b820416958301959095529093909291840191600160501b90910460ff1690811115611d4a57611d4a613c0b565b6003811115611d5b57611d5b613c0b565b81528154600160581b810460ff16602080840191909152600160601b9091046001600160a01b031660408301526001808401546060840152600290930154608090920191909152918352929092019101611ce6565b606060036000838152602001908152602001600020600901805480602002602001604051908101604052809291908181526020016000905b82821015610d7a576000848152602090819020604080518082019091529084015464ffffffffff81168252600160281b90046001600160a01b031681830152825260019092019101611de8565b600080611e4560208401846141fd565b905064ffffffffff81166201518042011180611e6c575062093a8042018164ffffffffff16115b15611e8a5760405163ce8f4bfd60e01b815260040160405180910390fd5b6000611e9c60a0850160808601613be7565b60075490915061ffff808316600160a01b9092041614611ecf57604051634929acd760e01b815260040160405180910390fd5b6000611ee160c0860160a08701613cbe565b90506001600160a01b03811615611f2b576001600160a01b03811660009081526005602052604090205460ff16611f2b57604051631eb3268560e31b815260040160405180910390fd5b600280546001019081905593506000611f4760c0870187614218565b915050801580611f575750601481115b15611f755760405163ab13062d60e01b815260040160405180910390fd5b60008581526003602052604081209080805b84811015612106576000611f9e60c08c018c614218565b83818110611fae57611fae61408f565b905060e00201803603810190611fc49190614271565b90508260ff16816060015160ff161015611ff157604051632f89717760e11b815260040160405180910390fd5b611ffa816132e7565b8051612006908561431b565b64ffffffffff8082166020808501918252606085015160088a018054600181018255600091825292902086516003938402909101805494518616600160281b0269ffffffffffffffffffff199095169190951617929092178084556040860151949850919650849391839160ff60501b1990911690600160501b90849081111561209257612092613c0b565b02179055506060820151815460808401516001600160a01b0316600160601b026bffffffffffffffffffffffff60ff909316600160581b02929092166affffffffffffffffffffff9091161717815560a082015160018083019190915560c090920151600290910155919091019050611f87565b50600061211960608b0160408c016141fd565b90508064ffffffffff168364ffffffffff16118061213e5750606e64ffffffffff8416115b1561215c576040516340250f0160e11b815260040160405180910390fd5b612169898b60e0016133ce565b83546001600160a01b0319163317845561218960408b0160208c01614340565b845465ffffffffffff60a81b1916600160a81b9115159190910264ffffffffff60b01b191617600160b01b64ffffffffff8a81169190910291909117855560018501805464ffffffffff19169183169190911790556121ee60808b0160608c016141fd565b6001858101805469ffffffffff0000000001600160f01b0316600160281b64ffffffffff94909416939093026001600160f01b031692909217600160f01b61ffff8b1602177fffff0000000000000000000000000000000000000000ffffffffffffffffffff16600160501b6001600160a01b038a1602179091556122769085908b90612abb565b5050505050505050919050565b61228b61287a565b610d03816135a6565b600154600160a81b900460ff166002036122c157604051630ddf739360e11b815260040160405180910390fd5b6001805460ff60a81b1916600160a91b1790556122dc612c81565b806000805b828110156126ca57368585838181106122fc576122fc61408f565b90506040020190506005816020013510612329576040516363df817160e01b815260040160405180910390fd5b80356000818152600360205260409020612344816002612a6e565b8054600160b01b900464ffffffffff16421061237357604051632da31e3760e21b815260040160405180910390fd5b60008160030184602001356005811061238e5761238e61408f565b604080518082018252919092015464ffffffffff808216808452600160281b9092046001600160d01b0316602080850191909152600088815260048252858120338252909152938420549294506123ec92600160d01b90041661431b565b600184015490915064ffffffffff600160281b909104811690821611156124265760405163d085f16160e01b815260040160405180910390fd5b60008481526004602090815260408083203384528252909120805464ffffffffff60d01b1916600160d01b64ffffffffff85160217905582015160018401546001600160a01b03600160501b9091041661248b57612484818961435d565b97506124b5565b60018401546124b590600160501b90046001600160a01b031633306001600160d01b038516613058565b60098401546000908082036124d857845164ffffffffff16600019019150612513565b8451600987016000198301815481106124f3576124f361408f565b600091825260209091200154612510919064ffffffffff1661431b565b91505b8554600160a81b900460ff161561255357600186015464ffffffffff90811690831610612553576040516334b3fb3b60e01b815260040160405180910390fd5b6040805180820190915264ffffffffff808416825233602080840191825260098a0180546001810182556000918252918120945194909101805492516001600160a01b0316600160281b026001600160c81b031990931694909316939093171790556002870180548592906125d29084906001600160d01b031661435d565b82546101009290920a6001600160d01b03818102199093169183160217909155600089815260046020908152604080832033845290915281208054879450909261261e9185911661435d565b82546101009290920a6001600160d01b038181021990931691831602179091558651604080518b815233602082015264ffffffffff9092169082015290851660608201527fc25cd4cec0cbfb9bc40ad8f59ac733efcddf6ed3b7519369c9b9ceb2ee784601915060800160405180910390a1600186015464ffffffffff16600019018264ffffffffff16106126b7576126b7878761361b565b88600101985050505050505050506122e1565b506116cb816001600160d01b031661328f565b600154600160a81b900460ff1660020361270a57604051630ddf739360e11b815260040160405180910390fd5b6001805460ff60a81b1916600160a91b179055612725612c81565b8060005b818110156116cb5760008484838181106127455761274561408f565b60209081029290920135600081815260039093526040909220919250600790508154600160a01b900460ff16600881111561278257612782613c0b565b10156127a1576040516307a92f1960e51b815260040160405180910390fd5b600082815260046020908152604080832033845290915290208054600160f81b900460ff16156127e45760405163542f378d60e11b815260040160405180910390fd5b8054600160f81b6001600160f81b03821617825560018301546001600160d01b039091169061282490600160501b90046001600160a01b03163383612d4c565b604080518581523360208201526001600160d01b0383168183015290517fc0b7cf12926534c2d86d0abb17d620a3a06e07a84b3b8156a4b21189222b16d29181900360600190a184600101945050505050612729565b6000546001600160a01b03163314610da6576040516330cd747160e01b815260040160405180910390fd5b60008281526006602052604090205460ff1615610c44576000828152600660209081526040808320600101548084526003928390529220908154600160a01b900460ff1660088111156128fa576128fa613c0b565b036129615761290b81836004612abb565b8260008151811061291e5761291e61408f565b60200260200101516006600086815260200190815260200160002060000160016101000a8154816001600160f81b0302191690836001600160f81b031602179055505b50505050565b6109c461ffff8216111561298e57604051634929acd760e01b815260040160405180910390fd5b6007805461ffff60a01b1916600160a01b61ffff8416908102919091179091556040519081527fede4aee4284b8033b84c1aadcc51b229a4e46e6b42ab40092e237f07508b462690602001611ca3565b6129e6612c81565b6001805460ff60b01b1916600160b01b1790556040513381527f62e78cea01bee320cd4e420270b5ea74000d11b0c9f74754ebdbfc544b05a258906020016112fb565b612a316137bf565b6001805460ff60b01b191690556040513381527f5db9ee0a495bf2e6ff9c91a7834c1ba4fdd244a5e8aa4e537bd38aeae4b073aa906020016112fb565b806008811115612a8057612a80613c0b565b8254600160a01b900460ff166008811115612a9d57612a9d613c0b565b14610c44576040516307a92f1960e51b815260040160405180910390fd5b82548190849060ff60a01b1916600160a01b836008811115612adf57612adf613c0b565b02179055507fc1191e7178b58ad510709587719f39ec315fa79e81ee7ba5c5ef3c894e94a6518282604051612b1592919061437d565b60405180910390a1505050565b60006060600884901c600160ff86161b5b80858381518110612b4657612b4661408f565b602002602001015116600014612b9e57868603612b6a576000915060009550612b91565b612b75600187614125565b9550612b836101008761414e565b600003612b91576001820191505b50600160ff86161b612b33565b80858381518110612bb157612bb161408f565b60209081029190910101805190911790525093959294509192505050565b60008251600003612be257506000612c7b565b82516000905b80821015612c34576000612bfc83836137e9565b905084868281518110612c1157612c1161408f565b60200260200101511115612c2757809150612c2e565b8060010192505b50612be8565b600082118015612c6657508385612c4c600185614112565b81518110612c5c57612c5c61408f565b6020026020010151145b15612c775750600019019050612c7b565b5090505b92915050565b600154600160b01b900460ff1615610da657604051631309a56360e01b815260040160405180910390fd5b8254600160501b810460ff1690600160601b90046001600160a01b03166000826003811115612cdd57612cdd613c0b565b03612cf757612cf28130868860010154612f68565b612d45565b6001826003811115612d0b57612d0b613c0b565b03612d2b57612cf28130868860010154878a600201546119669190614182565b612d458185858860020154612d409190614182565b612d4c565b5050505050565b6001600160a01b038316612d8b57612d867f000000000000000000000000000000000000000000000000000000000000000083835a61380b565b505050565b612d868383836138e6565b803560008181526003602052604090208054600160a01b900460ff166005816008811115612dc657612dc6613c0b565b14612dd657612dd6826006612a6e565b600a8201366000612dea6020880188614391565b845491935091508160005b81811015612ef8576000858583818110612e1157612e1161408f565b905060200201359050838110612e3a576040516363df817160e01b815260040160405180910390fd5b6000878281548110612e4e57612e4e61408f565b60009182526020909120018054909150600160a01b900460ff1615612e865760405163611ab18960e11b815260040160405180910390fd5b8054612e9a906001600160a01b0316612f3f565b805460ff60a01b1916600160a01b1780825560088b018054600092600160a81b900460ff16908110612ece57612ece61408f565b90600052602060002090600302019050612eea81336001612cac565b836001019350505050612df5565b507f0d0ab4a45afc0276ae825be9eeb4552011b19aad5c92b4bb782f3ca0356fedc5888585604051612f2c939291906143da565b60405180910390a1505050505050505050565b336001600160a01b03821614610d03576040516348f5c3ed60e01b815260040160405180910390fd5b836001600160a01b03163b600003612f93576040516309ee12d560e01b815260040160405180910390fd5b6040516001600160a01b0384811660248301528381166044830152606482018390526000919086169060840160408051601f198184030181529181526020820180516001600160e01b03166323b872dd60e01b17905251612ff4919061441b565b6000604051808303816000865af19150503d8060008114613031576040519150601f19603f3d011682016040523d82523d6000602084013e613036565b606091505b5050905080612d4557604051631c1eb8a160e31b815260040160405180910390fd5b836001600160a01b03163b600003613083576040516309ee12d560e01b815260040160405180910390fd5b6040516001600160a01b038481166024830152838116604483015260648201839052600091829187169060840160408051601f198184030181529181526020820180516001600160e01b03166323b872dd60e01b179052516130e5919061441b565b6000604051808303816000865af19150503d8060008114613122576040519150601f19603f3d011682016040523d82523d6000602084013e613127565b606091505b50915091508161314a5760405163e560521360e01b815260040160405180910390fd5b8051156131825780806020019051810190613165919061444a565b6131825760405163e560521360e01b815260040160405180910390fd5b505050505050565b846001600160a01b03163b6000036131b5576040516309ee12d560e01b815260040160405180910390fd5b6040516001600160a01b0385811660248301528481166044830152606482018490526084820183905260a060a4830152600060c48301819052919087169060e40160408051601f198184030181529181526020820180516001600160e01b0316637921219560e11b1790525161322b919061441b565b6000604051808303816000865af19150503d8060008114613268576040519150601f19603f3d011682016040523d82523d6000602084013e61326d565b606091505b50509050806131825760405163017c788f60e11b815260040160405180910390fd5b348111156132b05760405163011ffff360e71b815260040160405180910390fd5b80341115610d0357610d037f000000000000000000000000000000000000000000000000000000000000000033348490035a61380b565b6000816040015160038111156132ff576132ff613c0b565b03613342578060c0015160011415806133245750806000015164ffffffffff16600114155b15610d0357604051632f89717760e11b815260040160405180910390fd5b60038160400151600381111561335a5761335a613c0b565b0361339c5760808101516001600160a01b031660009081526005602052604090205460ff1661339c57604051631eb3268560e31b815260040160405180910390fd5b60c081015115806133245750805164ffffffffff16610d0357604051632f89717760e11b815260040160405180910390fd5b60005b6005811015612d865760008282600581106133ee576133ee61408f565b604002018036038101906134029190614467565b80516020820151919250906000849003613456578164ffffffffff16600114158061343457506001600160d01b038116155b1561345157604051625cba9760e51b815260040160405180910390fd5b61353c565b60008560001986016005811061346e5761346e61408f565b604002018036038101906134829190614467565b602081015181519192509061349e64ffffffffff8616856144cf565b6001600160d01b03161515806134c257508064ffffffffff168564ffffffffff1611155b806134df5750816001600160d01b0316846001600160d01b031611155b8061351b57506134f664ffffffffff8216836141c2565b6001600160d01b031661351064ffffffffff8716866141c2565b6001600160d01b0316115b1561353857604051625cba9760e51b815260040160405180910390fd5b5050505b600086815260036020819052604090912084910185600581106135615761356161408f565b8251910180546020909301516001600160d01b0316600160281b026001600160f81b031990931664ffffffffff909216919091179190911790555050506001016133d1565b6001600160a01b0381166135cd57604051633106a0c760e01b815260040160405180910390fd5b600780546001600160a01b0319166001600160a01b0383169081179091556040519081527fc1b5345cce283376356748dc57f2dfa7120431d016fc7ca9ba641bc65f91411d90602001611ca3565b61362781836003612abb565b80546001600160d81b0316600160d81b4264ffffffffff16021781556040516305d3b1d360e41b81527f000000000000000000000000000000000000000000000000000000000000000060048201526001600160401b037f0000000000000000000000000000000000000000000000000000000000000000166024820152600360448201526207a1206064820152600160848201526000907f00000000000000000000000000000000000000000000000000000000000000006001600160a01b031690635d3b1d309060a4016020604051808303816000875af1158015613712573d6000803e3d6000fd5b505050506040513d601f19601f8201168201806040525081019061373691906144f5565b60008181526006602052604090205490915060ff161561376957604051637c80909960e11b815260040160405180910390fd5b600081815260066020908152604091829020805460ff1916600190811782550185905581518581529081018390527f3d94fecedaa4f90b8bd459797adb95f5bb11426025c5541390d9ccc1ad1b60a19101612b15565b600154600160b01b900460ff16610da657604051636cd6020160e01b815260040160405180910390fd5b60006137f8600284841861450e565b61380490848416614125565b9392505050565b6000806000806000868887f1905080612d4557846001600160a01b031663d0e30db0846040518263ffffffff1660e01b81526004016000604051808303818588803b15801561385957600080fd5b505af115801561386d573d6000803e3d6000fd5b505060405163a9059cbb60e01b81526001600160a01b038881166004830152602482018890528916935063a9059cbb925060440190506020604051808303816000875af11580156138c2573d6000803e3d6000fd5b505050506040513d601f19601f82011682018060405250810190613182919061444a565b826001600160a01b03163b600003613911576040516309ee12d560e01b815260040160405180910390fd5b6040516001600160a01b03838116602483015260448201839052600091829186169060640160408051601f198184030181529181526020820180516001600160e01b031663a9059cbb60e01b1790525161396b919061441b565b6000604051808303816000865af19150503d80600081146139a8576040519150601f19603f3d011682016040523d82523d6000602084013e6139ad565b606091505b5091509150816139d05760405163f1568f9560e01b815260040160405180910390fd5b805115612d4557808060200190518101906139eb919061444a565b612d455760405163f1568f9560e01b815260040160405180910390fd5b6040518060a001604052806005905b6040805180820190915260008082526020820152815260200190600190039081613a175790505090565b60008083601f840112613a5357600080fd5b5081356001600160401b03811115613a6a57600080fd5b6020830191508360208260051b8501011115613a8557600080fd5b9250929050565b8015158114610d0357600080fd5b600080600060408486031215613aaf57600080fd5b83356001600160401b03811115613ac557600080fd5b613ad186828701613a41565b9094509250506020840135613ae581613a8c565b809150509250925092565b634e487b7160e01b600052604160045260246000fd5b604051601f8201601f191681016001600160401b0381118282101715613b2e57613b2e613af0565b604052919050565b60008060408385031215613b4957600080fd5b823591506020808401356001600160401b0380821115613b6857600080fd5b818601915086601f830112613b7c57600080fd5b813581811115613b8e57613b8e613af0565b8060051b9150613b9f848301613b06565b8181529183018401918481019089841115613bb957600080fd5b938501935b83851015613bd757843582529385019390850190613bbe565b8096505050505050509250929050565b600060208284031215613bf957600080fd5b813561ffff8116811461380457600080fd5b634e487b7160e01b600052602160045260246000fd5b6020810160038310613c3557613c35613c0b565b91905290565b600060208284031215613c4d57600080fd5b5035919050565b6101408101818360005b6005811015613c99578151805164ffffffffff1684526020908101516001600160d01b03168185015260409093019290910190600101613c5e565b50505092915050565b80356001600160a01b0381168114613cb957600080fd5b919050565b600060208284031215613cd057600080fd5b61380482613ca2565b60098110613ce957613ce9613c0b565b9052565b6001600160a01b038b81168252610140820190613d0d602084018d613cd9565b991515604083015264ffffffffff9889166060830152968816608082015294871660a08601529290951660c084015290941660e082015261ffff9092166101008301526001600160d01b039092166101209091015292915050565b602080825282518282018190526000919060409081850190868401855b82811015613dd457815180516001600160a01b03168552868101511515878601528581015160ff168686015260609081015164ffffffffff169085015260809093019290850190600101613d85565b5091979650505050505050565b60008060208385031215613df457600080fd5b82356001600160401b03811115613e0a57600080fd5b613e1685828601613a41565b90969095509350505050565b60008060408385031215613e3557600080fd5b82359150613e4560208401613ca2565b90509250929050565b602080825282518282018190526000919060409081850190868401855b82811015613dd4578151805164ffffffffff90811686528782015116878601528581015160048110613e9f57613e9f613c0b565b8587015260608181015160ff16908601526080808201516001600160a01b03169086015260a0808201519086015260c0908101519085015260e09093019290850190600101613e6b565b602080825282518282018190526000919060409081850190868401855b82811015613dd4578151805164ffffffffff1685528601516001600160a01b0316868501529284019290850190600101613f06565b600060208284031215613f4d57600080fd5b81356001600160401b03811115613f6357600080fd5b8201610220818503121561380457600080fd5b60008060008060008060a08789031215613f8f57600080fd5b613f9887613ca2565b9550613fa660208801613ca2565b9450604087013593506060870135925060808701356001600160401b0380821115613fd057600080fd5b818901915089601f830112613fe457600080fd5b813581811115613ff357600080fd5b8a602082850101111561400557600080fd5b6020830194508093505050509295509295509295565b6000806020838503121561402e57600080fd5b82356001600160401b038082111561404557600080fd5b818501915085601f83011261405957600080fd5b81358181111561406857600080fd5b8660208260061b850101111561407d57600080fd5b60209290920196919550909350505050565b634e487b7160e01b600052603260045260246000fd5b6040808252810183905260008460608301825b868110156140e6576001600160a01b036140d184613ca2565b168252602092830192909101906001016140b8565b5080925050508215156020830152949350505050565b634e487b7160e01b600052601160045260246000fd5b81810381811115612c7b57612c7b6140fc565b80820180821115612c7b57612c7b6140fc565b634e487b7160e01b600052601260045260246000fd5b60008261415d5761415d614138565b500690565b60008235603e1983360301811261417857600080fd5b9190910192915050565b8082028115828204841417612c7b57612c7b6140fc565b6001600160d01b03828116828216818102831692918115828504821417613c9957613c996140fc565b60006001600160d01b03838116806141dc576141dc614138565b92169190910492915050565b803564ffffffffff81168114613cb957600080fd5b60006020828403121561420f57600080fd5b613804826141e8565b6000808335601e1984360301811261422f57600080fd5b8301803591506001600160401b0382111561424957600080fd5b602001915060e081023603821315613a8557600080fd5b803560ff81168114613cb957600080fd5b600060e0828403121561428357600080fd5b60405160e081018181106001600160401b03821117156142a5576142a5613af0565b6040526142b1836141e8565b81526142bf602084016141e8565b60208201526040830135600481106142d657600080fd5b60408201526142e760608401614260565b60608201526142f860808401613ca2565b608082015260a083013560a082015260c083013560c08201528091505092915050565b64ffffffffff818116838216019080821115614339576143396140fc565b5092915050565b60006020828403121561435257600080fd5b813561380481613a8c565b6001600160d01b03818116838216019080821115614339576143396140fc565b828152604081016138046020830184613cd9565b6000808335601e198436030181126143a857600080fd5b8301803591506001600160401b038211156143c257600080fd5b6020019150600581901b3603821315613a8557600080fd5b838152604060208201819052810182905260006001600160fb1b0383111561440157600080fd5b8260051b8085606085013791909101606001949350505050565b6000825160005b8181101561443c5760208186018101518583015201614422565b506000920191825250919050565b60006020828403121561445c57600080fd5b815161380481613a8c565b60006040828403121561447957600080fd5b604051604081018181106001600160401b038211171561449b5761449b613af0565b6040526144a7836141e8565b815260208301356001600160d01b03811681146144c357600080fd5b60208201529392505050565b60006001600160d01b03838116806144e9576144e9614138565b92169190910692915050565b60006020828403121561450757600080fd5b5051919050565b60008261451d5761451d614138565b50049056fea26469706673582212203d4607f80974e4fafe58c93b82a2fd8db27711e28228bdf8ef443537788b96ed64736f6c63430008110033",
			"opcodes": "PUSH2 0x120 PUSH1 0x40 MSTORE CALLVALUE DUP1 ISZERO PUSH3 0x12 JUMPI PUSH1 0x0 DUP1 REVERT JUMPDEST POP PUSH1 0x40 MLOAD PUSH3 0x4865 CODESIZE SUB DUP1 PUSH3 0x4865 DUP4 CODECOPY DUP2 ADD PUSH1 0x40 DUP2 SWAP1 MSTORE PUSH3 0x35 SWAP2 PUSH3 0x1FA JUMP JUMPDEST PUSH1 0x1 PUSH1 0x1 PUSH1 0xA0 SHL SUB DUP5 DUP2 AND PUSH1 0x80 MSTORE PUSH1 0x0 DUP1 SLOAD PUSH1 0x1 PUSH1 0x1 PUSH1 0xA0 SHL SUB NOT AND SWAP2 DUP6 AND SWAP2 DUP3 OR SWAP1 SSTORE PUSH1 0x40 MLOAD SWAP1 DUP2 MSTORE DUP4 SWAP1 PUSH32 0x3EDD90E7770F06FAFDE38004653B33870066C33BFC923FF6102ACD601F85DFBC SWAP1 PUSH1 0x20 ADD PUSH1 0x40 MLOAD DUP1 SWAP2 SUB SWAP1 LOG1 POP PUSH1 0x1 DUP1 SLOAD PUSH1 0xFF PUSH1 0xA8 SHL NOT AND PUSH1 0x1 PUSH1 0xA8 SHL OR SWAP1 SSTORE PUSH3 0xAD DUP2 PUSH3 0xE7 JUMP JUMPDEST PUSH3 0xB8 DUP3 PUSH3 0x166 JUMP JUMPDEST POP POP POP PUSH1 0x1 PUSH1 0x1 PUSH1 0xA0 SHL SUB SWAP4 DUP5 AND PUSH1 0xA0 MSTORE PUSH1 0xC0 SWAP3 SWAP1 SWAP3 MSTORE SWAP2 AND PUSH2 0x100 MSTORE PUSH1 0x1 PUSH1 0x1 PUSH1 0x40 SHL SUB AND PUSH1 0xE0 MSTORE PUSH3 0x29E JUMP JUMPDEST PUSH2 0x9C4 PUSH2 0xFFFF DUP3 AND GT ISZERO PUSH3 0x10F JUMPI PUSH1 0x40 MLOAD PUSH4 0x4929ACD7 PUSH1 0xE0 SHL DUP2 MSTORE PUSH1 0x4 ADD PUSH1 0x40 MLOAD DUP1 SWAP2 SUB SWAP1 REVERT JUMPDEST PUSH1 0x7 DUP1 SLOAD PUSH2 0xFFFF PUSH1 0xA0 SHL NOT AND PUSH1 0x1 PUSH1 0xA0 SHL PUSH2 0xFFFF DUP5 AND SWAP1 DUP2 MUL SWAP2 SWAP1 SWAP2 OR SWAP1 SWAP2 SSTORE PUSH1 0x40 MLOAD SWAP1 DUP2 MSTORE PUSH32 0xEDE4AEE4284B8033B84C1AADCC51B229A4E46E6B42AB40092E237F07508B4626 SWAP1 PUSH1 0x20 ADD JUMPDEST PUSH1 0x40 MLOAD DUP1 SWAP2 SUB SWAP1 LOG1 POP JUMP JUMPDEST PUSH1 0x1 PUSH1 0x1 PUSH1 0xA0 SHL SUB DUP2 AND PUSH3 0x18E JUMPI PUSH1 0x40 MLOAD PUSH4 0x3106A0C7 PUSH1 0xE0 SHL DUP2 MSTORE PUSH1 0x4 ADD PUSH1 0x40 MLOAD DUP1 SWAP2 SUB SWAP1 REVERT JUMPDEST PUSH1 0x7 DUP1 SLOAD PUSH1 0x1 PUSH1 0x1 PUSH1 0xA0 SHL SUB NOT AND PUSH1 0x1 PUSH1 0x1 PUSH1 0xA0 SHL SUB DUP4 AND SWAP1 DUP2 OR SWAP1 SWAP2 SSTORE PUSH1 0x40 MLOAD SWAP1 DUP2 MSTORE PUSH32 0xC1B5345CCE283376356748DC57F2DFA7120431D016FC7CA9BA641BC65F91411D SWAP1 PUSH1 0x20 ADD PUSH3 0x15B JUMP JUMPDEST DUP1 MLOAD PUSH1 0x1 PUSH1 0x1 PUSH1 0xA0 SHL SUB DUP2 AND DUP2 EQ PUSH3 0x1F5 JUMPI PUSH1 0x0 DUP1 REVERT JUMPDEST SWAP2 SWAP1 POP JUMP JUMPDEST PUSH1 0x0 DUP1 PUSH1 0x0 DUP1 PUSH1 0x0 DUP1 PUSH1 0x0 PUSH1 0xE0 DUP9 DUP11 SUB SLT ISZERO PUSH3 0x216 JUMPI PUSH1 0x0 DUP1 REVERT JUMPDEST PUSH3 0x221 DUP9 PUSH3 0x1DD JUMP JUMPDEST PUSH1 0x20 DUP10 ADD MLOAD PUSH1 0x40 DUP11 ADD MLOAD SWAP2 SWAP9 POP SWAP7 POP PUSH1 0x1 PUSH1 0x1 PUSH1 0x40 SHL SUB DUP2 AND DUP2 EQ PUSH3 0x246 JUMPI PUSH1 0x0 DUP1 REVERT JUMPDEST SWAP5 POP PUSH3 0x256 PUSH1 0x60 DUP10 ADD PUSH3 0x1DD JUMP JUMPDEST SWAP4 POP PUSH3 0x266 PUSH1 0x80 DUP10 ADD PUSH3 0x1DD JUMP JUMPDEST SWAP3 POP PUSH3 0x276 PUSH1 0xA0 DUP10 ADD PUSH3 0x1DD JUMP JUMPDEST SWAP2 POP PUSH1 0xC0 DUP9 ADD MLOAD PUSH2 0xFFFF DUP2 AND DUP2 EQ PUSH3 0x28E JUMPI PUSH1 0x0 DUP1 REVERT JUMPDEST DUP1 SWAP2 POP POP SWAP3 SWAP6 SWAP9 SWAP2 SWAP5 SWAP8 POP SWAP3 SWAP6 POP JUMP JUMPDEST PUSH1 0x80 MLOAD PUSH1 0xA0 MLOAD PUSH1 0xC0 MLOAD PUSH1 0xE0 MLOAD PUSH2 0x100 MLOAD PUSH2 0x4558 PUSH3 0x30D PUSH1 0x0 CODECOPY PUSH1 0x0 DUP2 DUP2 PUSH2 0x331 ADD MSTORE PUSH2 0x36C1 ADD MSTORE PUSH1 0x0 DUP2 DUP2 PUSH2 0x2E0 ADD MSTORE PUSH2 0x3680 ADD MSTORE PUSH1 0x0 DUP2 DUP2 PUSH2 0x55E ADD MSTORE PUSH2 0x3652 ADD MSTORE PUSH1 0x0 DUP2 DUP2 PUSH2 0x9B5 ADD MSTORE DUP2 DUP2 PUSH2 0x2D5F ADD MSTORE PUSH2 0x32BD ADD MSTORE PUSH1 0x0 DUP2 DUP2 PUSH2 0xBC7 ADD MSTORE PUSH2 0xC09 ADD MSTORE PUSH2 0x4558 PUSH1 0x0 RETURN INVALID PUSH1 0x80 PUSH1 0x40 MSTORE PUSH1 0x4 CALLDATASIZE LT PUSH2 0x2C9 JUMPI PUSH1 0x0 CALLDATALOAD PUSH1 0xE0 SHR DUP1 PUSH4 0x65D697F7 GT PUSH2 0x175 JUMPI DUP1 PUSH4 0x98753C46 GT PUSH2 0xDC JUMPI DUP1 PUSH4 0xCC307795 GT PUSH2 0x95 JUMPI DUP1 PUSH4 0xE521CB92 GT PUSH2 0x6F JUMPI DUP1 PUSH4 0xE521CB92 EQ PUSH2 0xA71 JUMPI DUP1 PUSH4 0xF23A6E61 EQ PUSH2 0xA91 JUMPI DUP1 PUSH4 0xF42DF132 EQ PUSH2 0xAD7 JUMPI DUP1 PUSH4 0xF54A6F83 EQ PUSH2 0xAEA JUMPI PUSH1 0x0 DUP1 REVERT JUMPDEST DUP1 PUSH4 0xCC307795 EQ PUSH2 0x9F7 JUMPI DUP1 PUSH4 0xD3549EBD EQ PUSH2 0xA24 JUMPI DUP1 PUSH4 0xD49A5630 EQ PUSH2 0xA51 JUMPI PUSH1 0x0 DUP1 REVERT JUMPDEST DUP1 PUSH4 0x98753C46 EQ PUSH2 0x8B8 JUMPI DUP1 PUSH4 0xA17BE154 EQ PUSH2 0x8DA JUMPI DUP1 PUSH4 0xA72844BA EQ PUSH2 0x963 JUMPI DUP1 PUSH4 0xAC68A748 EQ PUSH2 0x983 JUMPI DUP1 PUSH4 0xAD5C4648 EQ PUSH2 0x9A3 JUMPI DUP1 PUSH4 0xC0B6F561 EQ PUSH2 0x9D7 JUMPI PUSH1 0x0 DUP1 REVERT JUMPDEST DUP1 PUSH4 0x7200B829 GT PUSH2 0x12E JUMPI DUP1 PUSH4 0x7200B829 EQ PUSH2 0x822 JUMPI DUP1 PUSH4 0x7762DF25 EQ PUSH2 0x837 JUMPI DUP1 PUSH4 0x82D6848C EQ PUSH2 0x857 JUMPI DUP1 PUSH4 0x863E76DB EQ PUSH2 0x86A JUMPI DUP1 PUSH4 0x8DA5CB5B EQ PUSH2 0x881 JUMPI DUP1 PUSH4 0x8E6F6B77 EQ PUSH2 0x8A1 JUMPI PUSH1 0x0 DUP1 REVERT JUMPDEST DUP1 PUSH4 0x65D697F7 EQ PUSH2 0x776 JUMPI DUP1 PUSH4 0x67F082B0 EQ PUSH2 0x78B JUMPI DUP1 PUSH4 0x68986912 EQ PUSH2 0x7A0 JUMPI DUP1 PUSH4 0x69CE6D47 EQ PUSH2 0x7B5 JUMPI DUP1 PUSH4 0x6B1426A4 EQ PUSH2 0x7D5 JUMPI DUP1 PUSH4 0x6F30D7B5 EQ PUSH2 0x802 JUMPI PUSH1 0x0 DUP1 REVERT JUMPDEST DUP1 PUSH4 0x40E58EE5 GT PUSH2 0x234 JUMPI DUP1 PUSH4 0x5708B502 GT PUSH2 0x1ED JUMPI DUP1 PUSH4 0x5C975ABB GT PUSH2 0x1C7 JUMPI DUP1 PUSH4 0x5C975ABB EQ PUSH2 0x60B JUMPI DUP1 PUSH4 0x5CB6DFFF EQ PUSH2 0x62A JUMPI DUP1 PUSH4 0x5D4BC0CE EQ PUSH2 0x697 JUMPI DUP1 PUSH4 0x64DF049E EQ PUSH2 0x756 JUMPI PUSH1 0x0 DUP1 REVERT JUMPDEST DUP1 PUSH4 0x5708B502 EQ PUSH2 0x5A0 JUMPI DUP1 PUSH4 0x5A195D19 EQ PUSH2 0x5B6 JUMPI DUP1 PUSH4 0x5B6AC011 EQ PUSH2 0x5F6 JUMPI PUSH1 0x0 DUP1 REVERT JUMPDEST DUP1 PUSH4 0x40E58EE5 EQ PUSH2 0x4B2 JUMPI DUP1 PUSH4 0x436313B2 EQ PUSH2 0x4D2 JUMPI DUP1 PUSH4 0x49890E15 EQ PUSH2 0x50D JUMPI DUP1 PUSH4 0x4D2C53CD EQ PUSH2 0x536 JUMPI DUP1 PUSH4 0x51DC86A5 EQ PUSH2 0x54C JUMPI DUP1 PUSH4 0x534FFF0E EQ PUSH2 0x580 JUMPI PUSH1 0x0 DUP1 REVERT JUMPDEST DUP1 PUSH4 0x2BB5A9E6 GT PUSH2 0x286 JUMPI DUP1 PUSH4 0x2BB5A9E6 EQ PUSH2 0x3E2 JUMPI DUP1 PUSH4 0x31FE74A9 EQ PUSH2 0x410 JUMPI DUP1 PUSH4 0x36566F06 EQ PUSH2 0x43D JUMPI DUP1 PUSH4 0x39A2EB2A EQ PUSH2 0x452 JUMPI DUP1 PUSH4 0x3B6CB153 EQ PUSH2 0x472 JUMPI DUP1 PUSH4 0x3E567539 EQ PUSH2 0x49D JUMPI PUSH1 0x0 DUP1 REVERT JUMPDEST DUP1 PUSH4 0x30932BB EQ PUSH2 0x2CE JUMPI DUP1 PUSH4 0x5F6A924 EQ PUSH2 0x31F JUMPI DUP1 PUSH4 0x1E9F1A82 EQ PUSH2 0x36B JUMPI DUP1 PUSH4 0x1FE543E3 EQ PUSH2 0x38D JUMPI DUP1 PUSH4 0x23452B9C EQ PUSH2 0x3AD JUMPI DUP1 PUSH4 0x2A6A4EB8 EQ PUSH2 0x3C2 JUMPI JUMPDEST PUSH1 0x0 DUP1 REVERT JUMPDEST CALLVALUE DUP1 ISZERO PUSH2 0x2DA JUMPI PUSH1 0x0 DUP1 REVERT JUMPDEST POP PUSH2 0x302 PUSH32 0x0 DUP2 JUMP JUMPDEST PUSH1 0x40 MLOAD PUSH1 0x1 PUSH1 0x1 PUSH1 0x40 SHL SUB SWAP1 SWAP2 AND DUP2 MSTORE PUSH1 0x20 ADD JUMPDEST PUSH1 0x40 MLOAD DUP1 SWAP2 SUB SWAP1 RETURN JUMPDEST CALLVALUE DUP1 ISZERO PUSH2 0x32B JUMPI PUSH1 0x0 DUP1 REVERT JUMPDEST POP PUSH2 0x353 PUSH32 0x0 DUP2 JUMP JUMPDEST PUSH1 0x40 MLOAD PUSH1 0x1 PUSH1 0x1 PUSH1 0xA0 SHL SUB SWAP1 SWAP2 AND DUP2 MSTORE PUSH1 0x20 ADD PUSH2 0x316 JUMP JUMPDEST CALLVALUE DUP1 ISZERO PUSH2 0x377 JUMPI PUSH1 0x0 DUP1 REVERT JUMPDEST POP PUSH2 0x38B PUSH2 0x386 CALLDATASIZE PUSH1 0x4 PUSH2 0x3A9A JUMP JUMPDEST PUSH2 0xB0A JUMP JUMPDEST STOP JUMPDEST CALLVALUE DUP1 ISZERO PUSH2 0x399 JUMPI PUSH1 0x0 DUP1 REVERT JUMPDEST POP PUSH2 0x38B PUSH2 0x3A8 CALLDATASIZE PUSH1 0x4 PUSH2 0x3B36 JUMP JUMPDEST PUSH2 0xBBC JUMP JUMPDEST CALLVALUE DUP1 ISZERO PUSH2 0x3B9 JUMPI PUSH1 0x0 DUP1 REVERT JUMPDEST POP PUSH2 0x38B PUSH2 0xC48 JUMP JUMPDEST CALLVALUE DUP1 ISZERO PUSH2 0x3CE JUMPI PUSH1 0x0 DUP1 REVERT JUMPDEST POP PUSH2 0x38B PUSH2 0x3DD CALLDATASIZE PUSH1 0x4 PUSH2 0x3BE7 JUMP JUMPDEST PUSH2 0xCF2 JUMP JUMPDEST CALLVALUE DUP1 ISZERO PUSH2 0x3EE JUMPI PUSH1 0x0 DUP1 REVERT JUMPDEST POP PUSH1 0x1 SLOAD PUSH2 0x403 SWAP1 PUSH1 0x1 PUSH1 0xA0 SHL SWAP1 DIV PUSH1 0xFF AND DUP2 JUMP JUMPDEST PUSH1 0x40 MLOAD PUSH2 0x316 SWAP2 SWAP1 PUSH2 0x3C21 JUMP JUMPDEST CALLVALUE DUP1 ISZERO PUSH2 0x41C JUMPI PUSH1 0x0 DUP1 REVERT JUMPDEST POP PUSH2 0x430 PUSH2 0x42B CALLDATASIZE PUSH1 0x4 PUSH2 0x3C3B JUMP JUMPDEST PUSH2 0xD06 JUMP JUMPDEST PUSH1 0x40 MLOAD PUSH2 0x316 SWAP2 SWAP1 PUSH2 0x3C54 JUMP JUMPDEST CALLVALUE DUP1 ISZERO PUSH2 0x449 JUMPI PUSH1 0x0 DUP1 REVERT JUMPDEST POP PUSH2 0x38B PUSH2 0xD85 JUMP JUMPDEST CALLVALUE DUP1 ISZERO PUSH2 0x45E JUMPI PUSH1 0x0 DUP1 REVERT JUMPDEST POP PUSH2 0x38B PUSH2 0x46D CALLDATASIZE PUSH1 0x4 PUSH2 0x3C3B JUMP JUMPDEST PUSH2 0xDB0 JUMP JUMPDEST CALLVALUE DUP1 ISZERO PUSH2 0x47E JUMPI PUSH1 0x0 DUP1 REVERT JUMPDEST POP PUSH2 0x487 PUSH1 0x6E DUP2 JUMP JUMPDEST PUSH1 0x40 MLOAD PUSH5 0xFFFFFFFFFF SWAP1 SWAP2 AND DUP2 MSTORE PUSH1 0x20 ADD PUSH2 0x316 JUMP JUMPDEST CALLVALUE DUP1 ISZERO PUSH2 0x4A9 JUMPI PUSH1 0x0 DUP1 REVERT JUMPDEST POP PUSH2 0x38B PUSH2 0x126C JUMP JUMPDEST CALLVALUE DUP1 ISZERO PUSH2 0x4BE JUMPI PUSH1 0x0 DUP1 REVERT JUMPDEST POP PUSH2 0x38B PUSH2 0x4CD CALLDATASIZE PUSH1 0x4 PUSH2 0x3C3B JUMP JUMPDEST PUSH2 0x1305 JUMP JUMPDEST CALLVALUE DUP1 ISZERO PUSH2 0x4DE JUMPI PUSH1 0x0 DUP1 REVERT JUMPDEST POP PUSH2 0x4FF PUSH2 0x4ED CALLDATASIZE PUSH1 0x4 PUSH2 0x3CBE JUMP JUMPDEST PUSH1 0x8 PUSH1 0x20 MSTORE PUSH1 0x0 SWAP1 DUP2 MSTORE PUSH1 0x40 SWAP1 KECCAK256 SLOAD DUP2 JUMP JUMPDEST PUSH1 0x40 MLOAD SWAP1 DUP2 MSTORE PUSH1 0x20 ADD PUSH2 0x316 JUMP JUMPDEST CALLVALUE DUP1 ISZERO PUSH2 0x519 JUMPI PUSH1 0x0 DUP1 REVERT JUMPDEST POP PUSH2 0x523 PUSH2 0x9C4 DUP2 JUMP JUMPDEST PUSH1 0x40 MLOAD PUSH2 0xFFFF SWAP1 SWAP2 AND DUP2 MSTORE PUSH1 0x20 ADD PUSH2 0x316 JUMP JUMPDEST CALLVALUE DUP1 ISZERO PUSH2 0x542 JUMPI PUSH1 0x0 DUP1 REVERT JUMPDEST POP PUSH2 0x4FF PUSH1 0x2 SLOAD DUP2 JUMP JUMPDEST CALLVALUE DUP1 ISZERO PUSH2 0x558 JUMPI PUSH1 0x0 DUP1 REVERT JUMPDEST POP PUSH2 0x4FF PUSH32 0x0 DUP2 JUMP JUMPDEST CALLVALUE DUP1 ISZERO PUSH2 0x58C JUMPI PUSH1 0x0 DUP1 REVERT JUMPDEST POP PUSH2 0x38B PUSH2 0x59B CALLDATASIZE PUSH1 0x4 PUSH2 0x3C3B JUMP JUMPDEST PUSH2 0x13F5 JUMP JUMPDEST CALLVALUE DUP1 ISZERO PUSH2 0x5AC JUMPI PUSH1 0x0 DUP1 REVERT JUMPDEST POP PUSH2 0x4FF PUSH2 0x2710 DUP2 JUMP JUMPDEST CALLVALUE DUP1 ISZERO PUSH2 0x5C2 JUMPI PUSH1 0x0 DUP1 REVERT JUMPDEST POP PUSH2 0x5E6 PUSH2 0x5D1 CALLDATASIZE PUSH1 0x4 PUSH2 0x3CBE JUMP JUMPDEST PUSH1 0x5 PUSH1 0x20 MSTORE PUSH1 0x0 SWAP1 DUP2 MSTORE PUSH1 0x40 SWAP1 KECCAK256 SLOAD PUSH1 0xFF AND DUP2 JUMP JUMPDEST PUSH1 0x40 MLOAD SWAP1 ISZERO ISZERO DUP2 MSTORE PUSH1 0x20 ADD PUSH2 0x316 JUMP JUMPDEST CALLVALUE DUP1 ISZERO PUSH2 0x602 JUMPI PUSH1 0x0 DUP1 REVERT JUMPDEST POP PUSH2 0x38B PUSH2 0x14E0 JUMP JUMPDEST CALLVALUE DUP1 ISZERO PUSH2 0x617 JUMPI PUSH1 0x0 DUP1 REVERT JUMPDEST POP PUSH1 0x1 SLOAD PUSH1 0x1 PUSH1 0xB0 SHL SWAP1 DIV PUSH1 0xFF AND PUSH2 0x5E6 JUMP JUMPDEST CALLVALUE DUP1 ISZERO PUSH2 0x636 JUMPI PUSH1 0x0 DUP1 REVERT JUMPDEST POP PUSH2 0x672 PUSH2 0x645 CALLDATASIZE PUSH1 0x4 PUSH2 0x3C3B JUMP JUMPDEST PUSH1 0x6 PUSH1 0x20 MSTORE PUSH1 0x0 SWAP1 DUP2 MSTORE PUSH1 0x40 SWAP1 KECCAK256 DUP1 SLOAD PUSH1 0x1 SWAP1 SWAP2 ADD SLOAD PUSH1 0xFF DUP3 AND SWAP2 PUSH2 0x100 SWAP1 DIV PUSH1 0x1 PUSH1 0x1 PUSH1 0xF8 SHL SUB AND SWAP1 DUP4 JUMP JUMPDEST PUSH1 0x40 DUP1 MLOAD SWAP4 ISZERO ISZERO DUP5 MSTORE PUSH1 0x1 PUSH1 0x1 PUSH1 0xF8 SHL SUB SWAP1 SWAP3 AND PUSH1 0x20 DUP5 ADD MSTORE SWAP1 DUP3 ADD MSTORE PUSH1 0x60 ADD PUSH2 0x316 JUMP JUMPDEST CALLVALUE DUP1 ISZERO PUSH2 0x6A3 JUMPI PUSH1 0x0 DUP1 REVERT JUMPDEST POP PUSH2 0x740 PUSH2 0x6B2 CALLDATASIZE PUSH1 0x4 PUSH2 0x3C3B JUMP JUMPDEST PUSH1 0x3 PUSH1 0x20 MSTORE PUSH1 0x0 SWAP1 DUP2 MSTORE PUSH1 0x40 SWAP1 KECCAK256 DUP1 SLOAD PUSH1 0x1 DUP3 ADD SLOAD PUSH1 0x2 SWAP1 SWAP3 ADD SLOAD PUSH1 0x1 PUSH1 0x1 PUSH1 0xA0 SHL SUB DUP1 DUP4 AND SWAP4 PUSH1 0x1 PUSH1 0xA0 SHL DUP5 DIV PUSH1 0xFF SWAP1 DUP2 AND SWAP5 PUSH1 0x1 PUSH1 0xA8 SHL DUP2 DIV SWAP1 SWAP2 AND SWAP4 PUSH1 0x1 PUSH1 0xB0 SHL DUP3 DIV PUSH5 0xFFFFFFFFFF SWAP1 DUP2 AND SWAP5 PUSH1 0x1 PUSH1 0xD8 SHL SWAP1 SWAP4 DIV DUP2 AND SWAP4 DUP2 DUP2 AND SWAP4 PUSH1 0x1 PUSH1 0x28 SHL DUP3 DIV SWAP1 SWAP3 AND SWAP3 PUSH1 0x1 PUSH1 0x50 SHL DUP3 DIV SWAP1 SWAP3 AND SWAP2 PUSH1 0x1 PUSH1 0xF0 SHL SWAP1 SWAP2 DIV PUSH2 0xFFFF AND SWAP1 PUSH1 0x1 PUSH1 0x1 PUSH1 0xD0 SHL SUB AND DUP11 JUMP JUMPDEST PUSH1 0x40 MLOAD PUSH2 0x316 SWAP11 SWAP10 SWAP9 SWAP8 SWAP7 SWAP6 SWAP5 SWAP4 SWAP3 SWAP2 SWAP1 PUSH2 0x3CED JUMP JUMPDEST CALLVALUE DUP1 ISZERO PUSH2 0x762 JUMPI PUSH1 0x0 DUP1 REVERT JUMPDEST POP PUSH1 0x7 SLOAD PUSH2 0x353 SWAP1 PUSH1 0x1 PUSH1 0x1 PUSH1 0xA0 SHL SUB AND DUP2 JUMP JUMPDEST CALLVALUE DUP1 ISZERO PUSH2 0x782 JUMPI PUSH1 0x0 DUP1 REVERT JUMPDEST POP PUSH2 0x4FF PUSH1 0x14 DUP2 JUMP JUMPDEST CALLVALUE DUP1 ISZERO PUSH2 0x797 JUMPI PUSH1 0x0 DUP1 REVERT JUMPDEST POP PUSH2 0x523 PUSH1 0x3 DUP2 JUMP JUMPDEST CALLVALUE DUP1 ISZERO PUSH2 0x7AC JUMPI PUSH1 0x0 DUP1 REVERT JUMPDEST POP PUSH2 0x4FF PUSH1 0x5 DUP2 JUMP JUMPDEST CALLVALUE DUP1 ISZERO PUSH2 0x7C1 JUMPI PUSH1 0x0 DUP1 REVERT JUMPDEST POP PUSH2 0x38B PUSH2 0x7D0 CALLDATASIZE PUSH1 0x4 PUSH2 0x3CBE JUMP JUMPDEST PUSH2 0x1564 JUMP JUMPDEST CALLVALUE DUP1 ISZERO PUSH2 0x7E1 JUMPI PUSH1 0x0 DUP1 REVERT JUMPDEST POP PUSH2 0x7F5 PUSH2 0x7F0 CALLDATASIZE PUSH1 0x4 PUSH2 0x3C3B JUMP JUMPDEST PUSH2 0x159C JUMP JUMPDEST PUSH1 0x40 MLOAD PUSH2 0x316 SWAP2 SWAP1 PUSH2 0x3D68 JUMP JUMPDEST CALLVALUE DUP1 ISZERO PUSH2 0x80E JUMPI PUSH1 0x0 DUP1 REVERT JUMPDEST POP PUSH2 0x38B PUSH2 0x81D CALLDATASIZE PUSH1 0x4 PUSH2 0x3DE1 JUMP JUMPDEST PUSH2 0x1643 JUMP JUMPDEST CALLVALUE DUP1 ISZERO PUSH2 0x82E JUMPI PUSH1 0x0 DUP1 REVERT JUMPDEST POP PUSH2 0x38B PUSH2 0x16E4 JUMP JUMPDEST CALLVALUE DUP1 ISZERO PUSH2 0x843 JUMPI PUSH1 0x0 DUP1 REVERT JUMPDEST POP PUSH1 0x1 SLOAD PUSH2 0x353 SWAP1 PUSH1 0x1 PUSH1 0x1 PUSH1 0xA0 SHL SUB AND DUP2 JUMP JUMPDEST PUSH2 0x38B PUSH2 0x865 CALLDATASIZE PUSH1 0x4 PUSH2 0x3C3B JUMP JUMPDEST PUSH2 0x17A1 JUMP JUMPDEST CALLVALUE DUP1 ISZERO PUSH2 0x876 JUMPI PUSH1 0x0 DUP1 REVERT JUMPDEST POP PUSH2 0x4FF PUSH3 0x15180 DUP2 JUMP JUMPDEST CALLVALUE DUP1 ISZERO PUSH2 0x88D JUMPI PUSH1 0x0 DUP1 REVERT JUMPDEST POP PUSH1 0x0 SLOAD PUSH2 0x353 SWAP1 PUSH1 0x1 PUSH1 0x1 PUSH1 0xA0 SHL SUB AND DUP2 JUMP JUMPDEST CALLVALUE DUP1 ISZERO PUSH2 0x8AD JUMPI PUSH1 0x0 DUP1 REVERT JUMPDEST POP PUSH2 0x4FF PUSH3 0x93A80 DUP2 JUMP JUMPDEST CALLVALUE DUP1 ISZERO PUSH2 0x8C4 JUMPI PUSH1 0x0 DUP1 REVERT JUMPDEST POP PUSH1 0x7 SLOAD PUSH2 0x523 SWAP1 PUSH1 0x1 PUSH1 0xA0 SHL SWAP1 DIV PUSH2 0xFFFF AND DUP2 JUMP JUMPDEST CALLVALUE DUP1 ISZERO PUSH2 0x8E6 JUMPI PUSH1 0x0 DUP1 REVERT JUMPDEST POP PUSH2 0x936 PUSH2 0x8F5 CALLDATASIZE PUSH1 0x4 PUSH2 0x3E22 JUMP JUMPDEST PUSH1 0x4 PUSH1 0x20 SWAP1 DUP2 MSTORE PUSH1 0x0 SWAP3 DUP4 MSTORE PUSH1 0x40 DUP1 DUP5 KECCAK256 SWAP1 SWAP2 MSTORE SWAP1 DUP3 MSTORE SWAP1 KECCAK256 SLOAD PUSH1 0x1 PUSH1 0x1 PUSH1 0xD0 SHL SUB DUP2 AND SWAP1 PUSH1 0x1 PUSH1 0xD0 SHL DUP2 DIV PUSH5 0xFFFFFFFFFF AND SWAP1 PUSH1 0x1 PUSH1 0xF8 SHL SWAP1 DIV PUSH1 0xFF AND DUP4 JUMP JUMPDEST PUSH1 0x40 DUP1 MLOAD PUSH1 0x1 PUSH1 0x1 PUSH1 0xD0 SHL SUB SWAP1 SWAP5 AND DUP5 MSTORE PUSH5 0xFFFFFFFFFF SWAP1 SWAP3 AND PUSH1 0x20 DUP5 ADD MSTORE ISZERO ISZERO SWAP1 DUP3 ADD MSTORE PUSH1 0x60 ADD PUSH2 0x316 JUMP JUMPDEST CALLVALUE DUP1 ISZERO PUSH2 0x96F JUMPI PUSH1 0x0 DUP1 REVERT JUMPDEST POP PUSH2 0x38B PUSH2 0x97E CALLDATASIZE PUSH1 0x4 PUSH2 0x3C3B JUMP JUMPDEST PUSH2 0x198B JUMP JUMPDEST CALLVALUE DUP1 ISZERO PUSH2 0x98F JUMPI PUSH1 0x0 DUP1 REVERT JUMPDEST POP PUSH2 0x38B PUSH2 0x99E CALLDATASIZE PUSH1 0x4 PUSH2 0x3C3B JUMP JUMPDEST PUSH2 0x1A51 JUMP JUMPDEST CALLVALUE DUP1 ISZERO PUSH2 0x9AF JUMPI PUSH1 0x0 DUP1 REVERT JUMPDEST POP PUSH2 0x353 PUSH32 0x0 DUP2 JUMP JUMPDEST CALLVALUE DUP1 ISZERO PUSH2 0x9E3 JUMPI PUSH1 0x0 DUP1 REVERT JUMPDEST POP PUSH2 0x38B PUSH2 0x9F2 CALLDATASIZE PUSH1 0x4 PUSH2 0x3CBE JUMP JUMPDEST PUSH2 0x1C05 JUMP JUMPDEST CALLVALUE DUP1 ISZERO PUSH2 0xA03 JUMPI PUSH1 0x0 DUP1 REVERT JUMPDEST POP PUSH2 0xA17 PUSH2 0xA12 CALLDATASIZE PUSH1 0x4 PUSH2 0x3C3B JUMP JUMPDEST PUSH2 0x1CAE JUMP JUMPDEST PUSH1 0x40 MLOAD PUSH2 0x316 SWAP2 SWAP1 PUSH2 0x3E4E JUMP JUMPDEST CALLVALUE DUP1 ISZERO PUSH2 0xA30 JUMPI PUSH1 0x0 DUP1 REVERT JUMPDEST POP PUSH2 0xA44 PUSH2 0xA3F CALLDATASIZE PUSH1 0x4 PUSH2 0x3C3B JUMP JUMPDEST PUSH2 0x1DB0 JUMP JUMPDEST PUSH1 0x40 MLOAD PUSH2 0x316 SWAP2 SWAP1 PUSH2 0x3EE9 JUMP JUMPDEST CALLVALUE DUP1 ISZERO PUSH2 0xA5D JUMPI PUSH1 0x0 DUP1 REVERT JUMPDEST POP PUSH2 0x4FF PUSH2 0xA6C CALLDATASIZE PUSH1 0x4 PUSH2 0x3F3B JUMP JUMPDEST PUSH2 0x1E35 JUMP JUMPDEST CALLVALUE DUP1 ISZERO PUSH2 0xA7D JUMPI PUSH1 0x0 DUP1 REVERT JUMPDEST POP PUSH2 0x38B PUSH2 0xA8C CALLDATASIZE PUSH1 0x4 PUSH2 0x3CBE JUMP JUMPDEST PUSH2 0x2283 JUMP JUMPDEST CALLVALUE DUP1 ISZERO PUSH2 0xA9D JUMPI PUSH1 0x0 DUP1 REVERT JUMPDEST POP PUSH2 0xABE PUSH2 0xAAC CALLDATASIZE PUSH1 0x4 PUSH2 0x3F76 JUMP JUMPDEST PUSH4 0xF23A6E61 PUSH1 0xE0 SHL SWAP7 SWAP6 POP POP POP POP POP POP JUMP JUMPDEST PUSH1 0x40 MLOAD PUSH1 0x1 PUSH1 0x1 PUSH1 0xE0 SHL SUB NOT SWAP1 SWAP2 AND DUP2 MSTORE PUSH1 0x20 ADD PUSH2 0x316 JUMP JUMPDEST PUSH2 0x38B PUSH2 0xAE5 CALLDATASIZE PUSH1 0x4 PUSH2 0x401B JUMP JUMPDEST PUSH2 0x2294 JUMP JUMPDEST CALLVALUE DUP1 ISZERO PUSH2 0xAF6 JUMPI PUSH1 0x0 DUP1 REVERT JUMPDEST POP PUSH2 0x38B PUSH2 0xB05 CALLDATASIZE PUSH1 0x4 PUSH2 0x3DE1 JUMP JUMPDEST PUSH2 0x26DD JUMP JUMPDEST PUSH2 0xB12 PUSH2 0x287A JUMP JUMPDEST DUP2 PUSH1 0x0 JUMPDEST DUP2 DUP2 LT ISZERO PUSH2 0xB7A JUMPI DUP3 PUSH1 0x5 PUSH1 0x0 DUP8 DUP8 DUP6 DUP2 DUP2 LT PUSH2 0xB35 JUMPI PUSH2 0xB35 PUSH2 0x408F JUMP JUMPDEST SWAP1 POP PUSH1 0x20 MUL ADD PUSH1 0x20 DUP2 ADD SWAP1 PUSH2 0xB4A SWAP2 SWAP1 PUSH2 0x3CBE JUMP JUMPDEST PUSH1 0x1 PUSH1 0x1 PUSH1 0xA0 SHL SUB AND DUP2 MSTORE PUSH1 0x20 DUP2 ADD SWAP2 SWAP1 SWAP2 MSTORE PUSH1 0x40 ADD PUSH1 0x0 KECCAK256 DUP1 SLOAD PUSH1 0xFF NOT AND SWAP2 ISZERO ISZERO SWAP2 SWAP1 SWAP2 OR SWAP1 SSTORE PUSH1 0x1 ADD PUSH2 0xB16 JUMP JUMPDEST POP PUSH32 0xCB2FEF16EE9F3EA43E174DAF88FFCDC8BEEE4AD884C7570093D998D710586987 DUP5 DUP5 DUP5 PUSH1 0x40 MLOAD PUSH2 0xBAE SWAP4 SWAP3 SWAP2 SWAP1 PUSH2 0x40A5 JUMP JUMPDEST PUSH1 0x40 MLOAD DUP1 SWAP2 SUB SWAP1 LOG1 POP POP POP POP JUMP JUMPDEST CALLER PUSH1 0x1 PUSH1 0x1 PUSH1 0xA0 SHL SUB PUSH32 0x0 AND EQ PUSH2 0xC3A JUMPI PUSH1 0x40 MLOAD PUSH4 0x73E64FD PUSH1 0xE2 SHL DUP2 MSTORE CALLER PUSH1 0x4 DUP3 ADD MSTORE PUSH1 0x1 PUSH1 0x1 PUSH1 0xA0 SHL SUB PUSH32 0x0 AND PUSH1 0x24 DUP3 ADD MSTORE PUSH1 0x44 ADD PUSH1 0x40 MLOAD DUP1 SWAP2 SUB SWAP1 REVERT JUMPDEST PUSH2 0xC44 DUP3 DUP3 PUSH2 0x28A5 JUMP JUMPDEST POP POP JUMP JUMPDEST PUSH2 0xC50 PUSH2 0x287A JUMP JUMPDEST PUSH1 0x1 SLOAD PUSH1 0x1 PUSH1 0xA0 SHL SWAP1 DIV PUSH1 0xFF AND PUSH1 0x0 DUP2 PUSH1 0x2 DUP2 GT ISZERO PUSH2 0xC71 JUMPI PUSH2 0xC71 PUSH2 0x3C0B JUMP JUMPDEST SUB PUSH2 0xC8F JUMPI PUSH1 0x40 MLOAD PUSH4 0xCCF69DB7 PUSH1 0xE0 SHL DUP2 MSTORE PUSH1 0x4 ADD PUSH1 0x40 MLOAD DUP1 SWAP2 SUB SWAP1 REVERT JUMPDEST PUSH1 0x1 DUP2 PUSH1 0x2 DUP2 GT ISZERO PUSH2 0xCA3 JUMPI PUSH2 0xCA3 PUSH2 0x3C0B JUMP JUMPDEST SUB PUSH2 0xCB9 JUMPI PUSH1 0x1 DUP1 SLOAD PUSH1 0x1 PUSH1 0x1 PUSH1 0xA0 SHL SUB NOT AND SWAP1 SSTORE JUMPDEST PUSH1 0x1 DUP1 SLOAD PUSH1 0xFF PUSH1 0xA0 SHL NOT AND SWAP1 SSTORE PUSH1 0x40 MLOAD PUSH32 0x8ECA980489E87F7DBA4F26917AA4BFC906EB3F2B4F7B4B9FD0FF2B8BB3E21AE3 SWAP1 PUSH1 0x0 SWAP1 LOG1 POP JUMP JUMPDEST PUSH2 0xCFA PUSH2 0x287A JUMP JUMPDEST PUSH2 0xD03 DUP2 PUSH2 0x2967 JUMP JUMPDEST POP JUMP JUMPDEST PUSH2 0xD0E PUSH2 0x3A08 JUMP JUMPDEST PUSH1 0x0 DUP3 DUP2 MSTORE PUSH1 0x3 PUSH1 0x20 DUP2 SWAP1 MSTORE PUSH1 0x40 DUP1 DUP4 KECCAK256 DUP2 MLOAD PUSH1 0xA0 DUP2 ADD SWAP1 SWAP3 MSTORE SWAP1 SWAP3 SWAP2 ADD SWAP1 PUSH1 0x5 SWAP1 DUP4 JUMPDEST DUP3 DUP3 LT ISZERO PUSH2 0xD7A JUMPI PUSH1 0x40 DUP1 MLOAD DUP1 DUP3 ADD SWAP1 SWAP2 MSTORE DUP5 DUP4 ADD SLOAD PUSH5 0xFFFFFFFFFF DUP2 AND DUP3 MSTORE PUSH1 0x1 PUSH1 0x28 SHL SWAP1 DIV PUSH1 0x1 PUSH1 0x1 PUSH1 0xD0 SHL SUB AND PUSH1 0x20 DUP1 DUP4 ADD SWAP2 SWAP1 SWAP2 MSTORE SWAP1 DUP3 MSTORE PUSH1 0x1 SWAP1 SWAP3 ADD SWAP2 ADD PUSH2 0xD32 JUMP JUMPDEST POP POP POP POP SWAP1 POP SWAP2 SWAP1 POP JUMP JUMPDEST PUSH2 0xD8D PUSH2 0x287A JUMP JUMPDEST PUSH1 0x1 SLOAD PUSH1 0x1 PUSH1 0xB0 SHL SWAP1 DIV PUSH1 0xFF AND PUSH2 0xDA8 JUMPI PUSH2 0xDA6 PUSH2 0x29DE JUMP JUMPDEST JUMP JUMPDEST PUSH2 0xDA6 PUSH2 0x2A29 JUMP JUMPDEST PUSH1 0x0 DUP2 DUP2 MSTORE PUSH1 0x6 PUSH1 0x20 SWAP1 DUP2 MSTORE PUSH1 0x40 SWAP2 DUP3 SWAP1 KECCAK256 DUP3 MLOAD PUSH1 0x60 DUP2 ADD DUP5 MSTORE DUP2 SLOAD PUSH1 0xFF DUP2 AND ISZERO ISZERO DUP1 DUP4 MSTORE PUSH2 0x100 SWAP1 SWAP2 DIV PUSH1 0x1 PUSH1 0x1 PUSH1 0xF8 SHL SUB AND SWAP4 DUP3 ADD SWAP4 SWAP1 SWAP4 MSTORE PUSH1 0x1 SWAP1 SWAP2 ADD SLOAD SWAP3 DUP2 ADD SWAP3 SWAP1 SWAP3 MSTORE PUSH2 0xE15 JUMPI PUSH1 0x40 MLOAD PUSH4 0x6DC6A13 PUSH1 0xE2 SHL DUP2 MSTORE PUSH1 0x4 ADD PUSH1 0x40 MLOAD DUP1 SWAP2 SUB SWAP1 REVERT JUMPDEST PUSH1 0x40 DUP1 DUP3 ADD MLOAD PUSH1 0x0 DUP2 DUP2 MSTORE PUSH1 0x3 PUSH1 0x20 MSTORE SWAP2 SWAP1 SWAP2 KECCAK256 PUSH2 0xE34 DUP2 PUSH1 0x4 PUSH2 0x2A6E JUMP JUMPDEST PUSH2 0xE40 DUP2 DUP4 PUSH1 0x5 PUSH2 0x2ABB JUMP JUMPDEST PUSH1 0x8 DUP2 ADD DUP1 SLOAD PUSH1 0x0 DUP3 PUSH2 0xE54 PUSH1 0x1 DUP5 PUSH2 0x4112 JUMP JUMPDEST DUP2 SLOAD DUP2 LT PUSH2 0xE64 JUMPI PUSH2 0xE64 PUSH2 0x408F JUMP JUMPDEST SWAP1 PUSH1 0x0 MSTORE PUSH1 0x20 PUSH1 0x0 KECCAK256 SWAP1 PUSH1 0x3 MUL ADD PUSH1 0x0 ADD PUSH1 0x5 SWAP1 SLOAD SWAP1 PUSH2 0x100 EXP SWAP1 DIV PUSH5 0xFFFFFFFFFF AND PUSH5 0xFFFFFFFFFF AND SWAP1 POP PUSH1 0x0 DUP5 PUSH1 0x9 ADD DUP1 SLOAD DUP1 PUSH1 0x20 MUL PUSH1 0x20 ADD PUSH1 0x40 MLOAD SWAP1 DUP2 ADD PUSH1 0x40 MSTORE DUP1 SWAP3 SWAP2 SWAP1 DUP2 DUP2 MSTORE PUSH1 0x20 ADD PUSH1 0x0 SWAP1 JUMPDEST DUP3 DUP3 LT ISZERO PUSH2 0xF03 JUMPI PUSH1 0x0 DUP5 DUP2 MSTORE PUSH1 0x20 SWAP1 DUP2 SWAP1 KECCAK256 PUSH1 0x40 DUP1 MLOAD DUP1 DUP3 ADD SWAP1 SWAP2 MSTORE SWAP1 DUP5 ADD SLOAD PUSH5 0xFFFFFFFFFF DUP2 AND DUP3 MSTORE PUSH1 0x1 PUSH1 0x28 SHL SWAP1 DIV PUSH1 0x1 PUSH1 0x1 PUSH1 0xA0 SHL SUB AND DUP2 DUP4 ADD MSTORE DUP3 MSTORE PUSH1 0x1 SWAP1 SWAP3 ADD SWAP2 ADD PUSH2 0xEB6 JUMP JUMPDEST POP POP DUP3 MLOAD SWAP3 SWAP4 POP PUSH1 0x0 SWAP2 POP DUP4 SWAP1 POP PUSH2 0xF1C PUSH1 0x1 DUP5 PUSH2 0x4112 JUMP JUMPDEST DUP2 MLOAD DUP2 LT PUSH2 0xF2C JUMPI PUSH2 0xF2C PUSH2 0x408F JUMP JUMPDEST PUSH1 0x20 MUL PUSH1 0x20 ADD ADD MLOAD PUSH1 0x0 ADD MLOAD PUSH5 0xFFFFFFFFFF AND SWAP1 POP PUSH1 0x0 PUSH1 0x8 DUP3 SWAP1 SHR PUSH1 0x1 PUSH2 0xF54 SWAP2 SWAP1 PUSH2 0x4125 JUMP JUMPDEST PUSH1 0x1 PUSH1 0x1 PUSH1 0x40 SHL SUB DUP2 GT ISZERO PUSH2 0xF6B JUMPI PUSH2 0xF6B PUSH2 0x3AF0 JUMP JUMPDEST PUSH1 0x40 MLOAD SWAP1 DUP1 DUP3 MSTORE DUP1 PUSH1 0x20 MUL PUSH1 0x20 ADD DUP3 ADD PUSH1 0x40 MSTORE DUP1 ISZERO PUSH2 0xF94 JUMPI DUP2 PUSH1 0x20 ADD PUSH1 0x20 DUP3 MUL DUP1 CALLDATASIZE DUP4 CALLDATACOPY ADD SWAP1 POP JUMPDEST POP SWAP1 POP PUSH1 0x0 DUP4 PUSH1 0x1 PUSH1 0x1 PUSH1 0x40 SHL SUB DUP2 GT ISZERO PUSH2 0xFB1 JUMPI PUSH2 0xFB1 PUSH2 0x3AF0 JUMP JUMPDEST PUSH1 0x40 MLOAD SWAP1 DUP1 DUP3 MSTORE DUP1 PUSH1 0x20 MUL PUSH1 0x20 ADD DUP3 ADD PUSH1 0x40 MSTORE DUP1 ISZERO PUSH2 0xFDA JUMPI DUP2 PUSH1 0x20 ADD PUSH1 0x20 DUP3 MUL DUP1 CALLDATASIZE DUP4 CALLDATACOPY ADD SWAP1 POP JUMPDEST POP SWAP1 POP PUSH1 0x0 JUMPDEST DUP5 DUP2 LT ISZERO PUSH2 0x1032 JUMPI DUP6 DUP2 DUP2 MLOAD DUP2 LT PUSH2 0xFFA JUMPI PUSH2 0xFFA PUSH2 0x408F JUMP JUMPDEST PUSH1 0x20 MUL PUSH1 0x20 ADD ADD MLOAD PUSH1 0x0 ADD MLOAD PUSH5 0xFFFFFFFFFF AND DUP3 DUP3 DUP2 MLOAD DUP2 LT PUSH2 0x101F JUMPI PUSH2 0x101F PUSH2 0x408F JUMP JUMPDEST PUSH1 0x20 SWAP1 DUP2 MUL SWAP2 SWAP1 SWAP2 ADD ADD MSTORE PUSH1 0x1 ADD PUSH2 0xFE0 JUMP JUMPDEST POP PUSH1 0x0 DUP8 PUSH1 0x1 PUSH1 0x1 PUSH1 0x40 SHL SUB DUP2 GT ISZERO PUSH2 0x104D JUMPI PUSH2 0x104D PUSH2 0x3AF0 JUMP JUMPDEST PUSH1 0x40 MLOAD SWAP1 DUP1 DUP3 MSTORE DUP1 PUSH1 0x20 MUL PUSH1 0x20 ADD DUP3 ADD PUSH1 0x40 MSTORE DUP1 ISZERO PUSH2 0x1076 JUMPI DUP2 PUSH1 0x20 ADD PUSH1 0x20 DUP3 MUL DUP1 CALLDATASIZE DUP4 CALLDATACOPY ADD SWAP1 POP JUMPDEST POP SWAP1 POP PUSH1 0x0 JUMPDEST DUP9 DUP2 LT ISZERO PUSH2 0x10E5 JUMPI DUP10 DUP2 DUP2 SLOAD DUP2 LT PUSH2 0x1096 JUMPI PUSH2 0x1096 PUSH2 0x408F JUMP JUMPDEST SWAP1 PUSH1 0x0 MSTORE PUSH1 0x20 PUSH1 0x0 KECCAK256 SWAP1 PUSH1 0x3 MUL ADD PUSH1 0x0 ADD PUSH1 0x5 SWAP1 SLOAD SWAP1 PUSH2 0x100 EXP SWAP1 DIV PUSH5 0xFFFFFFFFFF AND PUSH5 0xFFFFFFFFFF AND DUP3 DUP3 DUP2 MLOAD DUP2 LT PUSH2 0x10D2 JUMPI PUSH2 0x10D2 PUSH2 0x408F JUMP JUMPDEST PUSH1 0x20 SWAP1 DUP2 MUL SWAP2 SWAP1 SWAP2 ADD ADD MSTORE PUSH1 0x1 ADD PUSH2 0x107C JUMP JUMPDEST POP PUSH1 0x20 DUP13 ADD MLOAD PUSH1 0x1 PUSH1 0x1 PUSH1 0xF8 SHL SUB AND PUSH1 0x0 JUMPDEST DUP9 DUP2 LT ISZERO PUSH2 0x125B JUMPI PUSH1 0x0 PUSH2 0x110C DUP8 PUSH1 0x1 PUSH2 0x4125 JUMP JUMPDEST PUSH2 0x1116 SWAP1 DUP5 PUSH2 0x414E JUMP JUMPDEST SWAP1 POP PUSH2 0x1123 DUP8 DUP3 DUP9 PUSH2 0x2B22 JUMP JUMPDEST PUSH1 0x40 DUP1 MLOAD PUSH1 0x80 DUP2 ADD SWAP1 SWAP2 MSTORE SWAP1 SWAP8 POP SWAP1 SWAP2 POP PUSH1 0xA DUP15 ADD SWAP1 DUP1 DUP12 PUSH2 0x1145 DUP10 DUP7 PUSH2 0x2BCF JUMP JUMPDEST DUP2 MLOAD DUP2 LT PUSH2 0x1155 JUMPI PUSH2 0x1155 PUSH2 0x408F JUMP JUMPDEST PUSH1 0x20 MUL PUSH1 0x20 ADD ADD MLOAD PUSH1 0x20 ADD MLOAD PUSH1 0x1 PUSH1 0x1 PUSH1 0xA0 SHL SUB AND DUP2 MSTORE PUSH1 0x20 ADD PUSH1 0x0 ISZERO ISZERO DUP2 MSTORE PUSH1 0x20 ADD PUSH2 0x118C PUSH2 0x1185 DUP7 PUSH1 0x1 ADD SWAP1 JUMP JUMPDEST DUP9 SWAP1 PUSH2 0x2BCF JUMP JUMPDEST PUSH1 0xFF SWAP1 DUP2 AND DUP3 MSTORE PUSH5 0xFFFFFFFFFF DUP1 DUP7 AND PUSH1 0x20 SWAP4 DUP5 ADD MSTORE DUP5 SLOAD PUSH1 0x1 DUP2 ADD DUP7 SSTORE PUSH1 0x0 SWAP6 DUP7 MSTORE SWAP5 DUP4 SWAP1 KECCAK256 DUP5 MLOAD SWAP6 ADD DUP1 SLOAD DUP6 DUP6 ADD MLOAD PUSH1 0x40 DUP1 DUP9 ADD MLOAD PUSH1 0x60 SWAP1 SWAP9 ADD MLOAD SWAP1 SWAP5 AND PUSH1 0x1 PUSH1 0xB0 SHL MUL PUSH5 0xFFFFFFFFFF PUSH1 0xB0 SHL NOT SWAP8 SWAP1 SWAP6 AND PUSH1 0x1 PUSH1 0xA8 SHL MUL SWAP7 SWAP1 SWAP7 AND PUSH6 0xFFFFFFFFFFFF PUSH1 0xA8 SHL NOT SWAP7 ISZERO ISZERO PUSH1 0x1 PUSH1 0xA0 SHL MUL PUSH1 0x1 PUSH1 0x1 PUSH1 0xA8 SHL SUB NOT SWAP1 SWAP3 AND PUSH1 0x1 PUSH1 0x1 PUSH1 0xA0 SHL SUB SWAP1 SWAP9 AND SWAP8 SWAP1 SWAP8 OR OR SWAP5 SWAP1 SWAP5 AND SWAP5 SWAP1 SWAP5 OR OR SWAP1 SWAP2 SSTORE SWAP1 MLOAD PUSH2 0x1238 SWAP2 DUP6 SWAP2 ADD SWAP1 DUP2 MSTORE PUSH1 0x20 ADD SWAP1 JUMP JUMPDEST PUSH1 0x40 DUP1 MLOAD PUSH1 0x1F NOT DUP2 DUP5 SUB ADD DUP2 MSTORE SWAP2 SWAP1 MSTORE DUP1 MLOAD PUSH1 0x20 SWAP1 SWAP2 ADD KECCAK256 SWAP3 POP POP PUSH1 0x1 ADD PUSH2 0x10F7 JUMP JUMPDEST POP POP POP POP POP POP POP POP POP POP POP POP POP POP POP JUMP JUMPDEST PUSH2 0x1274 PUSH2 0x287A JUMP JUMPDEST PUSH1 0x2 PUSH1 0x1 SLOAD PUSH1 0x1 PUSH1 0xA0 SHL SWAP1 DIV PUSH1 0xFF AND PUSH1 0x2 DUP2 GT ISZERO PUSH2 0x1294 JUMPI PUSH2 0x1294 PUSH2 0x3C0B JUMP JUMPDEST EQ PUSH2 0x12B2 JUMPI PUSH1 0x40 MLOAD PUSH4 0x22E2891 PUSH1 0xE1 SHL DUP2 MSTORE PUSH1 0x4 ADD PUSH1 0x40 MLOAD DUP1 SWAP2 SUB SWAP1 REVERT JUMPDEST PUSH1 0x0 DUP1 SLOAD PUSH1 0x1 PUSH1 0x1 PUSH1 0xA0 SHL SUB NOT AND DUP2 SSTORE PUSH1 0x1 DUP1 SLOAD PUSH1 0xFF PUSH1 0xA0 SHL NOT AND SWAP1 SSTORE PUSH1 0x40 MLOAD SWAP1 DUP2 MSTORE PUSH32 0x3EDD90E7770F06FAFDE38004653B33870066C33BFC923FF6102ACD601F85DFBC SWAP1 PUSH1 0x20 ADD JUMPDEST PUSH1 0x40 MLOAD DUP1 SWAP2 SUB SWAP1 LOG1 JUMP JUMPDEST PUSH1 0x1 SLOAD PUSH1 0x1 PUSH1 0xA8 SHL SWAP1 DIV PUSH1 0xFF AND PUSH1 0x2 SUB PUSH2 0x1332 JUMPI PUSH1 0x40 MLOAD PUSH4 0xDDF7393 PUSH1 0xE1 SHL DUP2 MSTORE PUSH1 0x4 ADD PUSH1 0x40 MLOAD DUP1 SWAP2 SUB SWAP1 REVERT JUMPDEST PUSH1 0x1 DUP1 SLOAD PUSH1 0xFF PUSH1 0xA8 SHL NOT AND PUSH1 0x1 PUSH1 0xA9 SHL OR SWAP1 SSTORE PUSH2 0x134D PUSH2 0x2C81 JUMP JUMPDEST PUSH1 0x0 DUP2 DUP2 MSTORE PUSH1 0x3 PUSH1 0x20 MSTORE PUSH1 0x40 DUP2 KECCAK256 SWAP1 PUSH1 0x2 DUP3 SLOAD PUSH1 0x1 PUSH1 0xA0 SHL SWAP1 DIV PUSH1 0xFF AND PUSH1 0x8 DUP2 GT ISZERO PUSH2 0x137B JUMPI PUSH2 0x137B PUSH2 0x3C0B JUMP JUMPDEST EQ SWAP1 POP DUP1 ISZERO PUSH2 0x13BA JUMPI DUP2 SLOAD TIMESTAMP PUSH1 0x1 PUSH1 0xB0 SHL SWAP1 SWAP2 DIV PUSH5 0xFFFFFFFFFF AND GT ISZERO PUSH2 0x13B5 JUMPI PUSH1 0x40 MLOAD PUSH4 0xF9AD93F5 PUSH1 0xE0 SHL DUP2 MSTORE PUSH1 0x4 ADD PUSH1 0x40 MLOAD DUP1 SWAP2 SUB SWAP1 REVERT JUMPDEST PUSH2 0x13C5 JUMP JUMPDEST PUSH2 0x13C5 DUP3 PUSH1 0x1 PUSH2 0x2A6E JUMP JUMPDEST PUSH2 0x13DD DUP3 DUP5 DUP4 PUSH2 0x13D6 JUMPI PUSH1 0x8 PUSH2 0x2ABB JUMP JUMPDEST PUSH1 0x7 PUSH2 0x2ABB JUMP JUMPDEST POP POP PUSH1 0x1 DUP1 SLOAD PUSH1 0xFF PUSH1 0xA8 SHL NOT AND PUSH1 0x1 PUSH1 0xA8 SHL OR SWAP1 SSTORE POP JUMP JUMPDEST PUSH1 0x1 SLOAD PUSH1 0x1 PUSH1 0xA8 SHL SWAP1 DIV PUSH1 0xFF AND PUSH1 0x2 SUB PUSH2 0x1422 JUMPI PUSH1 0x40 MLOAD PUSH4 0xDDF7393 PUSH1 0xE1 SHL DUP2 MSTORE PUSH1 0x4 ADD PUSH1 0x40 MLOAD DUP1 SWAP2 SUB SWAP1 REVERT JUMPDEST PUSH1 0x1 DUP1 SLOAD PUSH1 0xFF PUSH1 0xA8 SHL NOT AND PUSH1 0x1 PUSH1 0xA9 SHL OR SWAP1 SSTORE PUSH2 0x143D PUSH2 0x2C81 JUMP JUMPDEST PUSH1 0x0 DUP2 DUP2 MSTORE PUSH1 0x3 PUSH1 0x20 MSTORE PUSH1 0x40 SWAP1 KECCAK256 PUSH2 0x1456 DUP2 PUSH1 0x7 PUSH2 0x2A6E JUMP JUMPDEST PUSH2 0x1462 DUP2 DUP4 PUSH1 0x8 PUSH2 0x2ABB JUMP JUMPDEST PUSH1 0x8 DUP2 ADD SLOAD DUP2 SLOAD PUSH1 0x1 PUSH1 0x1 PUSH1 0xA0 SHL SUB AND PUSH1 0x0 JUMPDEST DUP3 DUP2 LT ISZERO PUSH2 0x14C6 JUMPI PUSH1 0x0 DUP5 PUSH1 0x8 ADD DUP3 DUP2 SLOAD DUP2 LT PUSH2 0x1494 JUMPI PUSH2 0x1494 PUSH2 0x408F JUMP JUMPDEST PUSH1 0x0 SWAP2 DUP3 MSTORE PUSH1 0x20 SWAP1 SWAP2 KECCAK256 PUSH1 0x3 SWAP1 SWAP2 MUL ADD DUP1 SLOAD SWAP1 SWAP2 POP PUSH2 0x14BD SWAP1 DUP3 SWAP1 DUP6 SWAP1 PUSH5 0xFFFFFFFFFF AND PUSH2 0x2CAC JUMP JUMPDEST POP PUSH1 0x1 ADD PUSH2 0x1475 JUMP JUMPDEST POP POP PUSH1 0x1 DUP1 SLOAD PUSH1 0xFF PUSH1 0xA8 SHL NOT AND PUSH1 0x1 PUSH1 0xA8 SHL OR SWAP1 SSTORE POP POP POP JUMP JUMPDEST PUSH2 0x14E8 PUSH2 0x287A JUMP JUMPDEST PUSH1 0x0 PUSH1 0x1 SLOAD PUSH1 0x1 PUSH1 0xA0 SHL SWAP1 DIV PUSH1 0xFF AND PUSH1 0x2 DUP2 GT ISZERO PUSH2 0x1508 JUMPI PUSH2 0x1508 PUSH2 0x3C0B JUMP JUMPDEST EQ PUSH2 0x1526 JUMPI PUSH1 0x40 MLOAD PUSH4 0x3A76BCD7 PUSH1 0xE1 SHL DUP2 MSTORE PUSH1 0x4 ADD PUSH1 0x40 MLOAD DUP1 SWAP2 SUB SWAP1 REVERT JUMPDEST PUSH1 0x1 DUP1 SLOAD PUSH1 0xFF PUSH1 0xA0 SHL NOT AND PUSH1 0x1 PUSH1 0xA1 SHL OR SWAP1 SSTORE PUSH1 0x40 MLOAD PUSH32 0x3FF05A45E46337FA1CBF20996D2EEB927280BCE099F37252BCCA1040609604EC SWAP1 PUSH1 0x0 SWAP1 LOG1 JUMP JUMPDEST PUSH2 0x156C PUSH2 0x287A JUMP JUMPDEST PUSH1 0x1 PUSH1 0x1 PUSH1 0xA0 SHL SUB DUP1 DUP3 AND PUSH1 0x0 SWAP1 DUP2 MSTORE PUSH1 0x8 PUSH1 0x20 MSTORE PUSH1 0x40 DUP2 KECCAK256 DUP1 SLOAD SWAP2 SWAP1 SSTORE PUSH1 0x7 SLOAD SWAP1 SWAP2 PUSH2 0xC44 SWAP2 DUP5 SWAP2 AND DUP4 PUSH2 0x2D4C JUMP JUMPDEST PUSH1 0x60 PUSH1 0x3 PUSH1 0x0 DUP4 DUP2 MSTORE PUSH1 0x20 ADD SWAP1 DUP2 MSTORE PUSH1 0x20 ADD PUSH1 0x0 KECCAK256 PUSH1 0xA ADD DUP1 SLOAD DUP1 PUSH1 0x20 MUL PUSH1 0x20 ADD PUSH1 0x40 MLOAD SWAP1 DUP2 ADD PUSH1 0x40 MSTORE DUP1 SWAP3 SWAP2 SWAP1 DUP2 DUP2 MSTORE PUSH1 0x20 ADD PUSH1 0x0 SWAP1 JUMPDEST DUP3 DUP3 LT ISZERO PUSH2 0xD7A JUMPI PUSH1 0x0 DUP5 DUP2 MSTORE PUSH1 0x20 SWAP1 DUP2 SWAP1 KECCAK256 PUSH1 0x40 DUP1 MLOAD PUSH1 0x80 DUP2 ADD DUP3 MSTORE SWAP2 DUP6 ADD SLOAD PUSH1 0x1 PUSH1 0x1 PUSH1 0xA0 SHL SUB DUP2 AND DUP4 MSTORE PUSH1 0xFF PUSH1 0x1 PUSH1 0xA0 SHL DUP3 DIV DUP2 AND ISZERO ISZERO DUP5 DUP7 ADD MSTORE PUSH1 0x1 PUSH1 0xA8 SHL DUP3 DIV AND SWAP2 DUP4 ADD SWAP2 SWAP1 SWAP2 MSTORE PUSH5 0xFFFFFFFFFF PUSH1 0x1 PUSH1 0xB0 SHL SWAP1 SWAP2 DIV AND PUSH1 0x60 DUP3 ADD MSTORE DUP3 MSTORE PUSH1 0x1 SWAP1 SWAP3 ADD SWAP2 ADD PUSH2 0x15D4 JUMP JUMPDEST PUSH1 0x1 SLOAD PUSH1 0x1 PUSH1 0xA8 SHL SWAP1 DIV PUSH1 0xFF AND PUSH1 0x2 SUB PUSH2 0x1670 JUMPI PUSH1 0x40 MLOAD PUSH4 0xDDF7393 PUSH1 0xE1 SHL DUP2 MSTORE PUSH1 0x4 ADD PUSH1 0x40 MLOAD DUP1 SWAP2 SUB SWAP1 REVERT JUMPDEST PUSH1 0x1 DUP1 SLOAD PUSH1 0xFF PUSH1 0xA8 SHL NOT AND PUSH1 0x1 PUSH1 0xA9 SHL OR SWAP1 SSTORE PUSH2 0x168B PUSH2 0x2C81 JUMP JUMPDEST DUP1 PUSH1 0x0 JUMPDEST DUP2 DUP2 LT ISZERO PUSH2 0x16CB JUMPI PUSH2 0x16C3 DUP5 DUP5 DUP4 DUP2 DUP2 LT PUSH2 0x16AC JUMPI PUSH2 0x16AC PUSH2 0x408F JUMP JUMPDEST SWAP1 POP PUSH1 0x20 MUL DUP2 ADD SWAP1 PUSH2 0x16BE SWAP2 SWAP1 PUSH2 0x4162 JUMP JUMPDEST PUSH2 0x2D96 JUMP JUMPDEST PUSH1 0x1 ADD PUSH2 0x168F JUMP JUMPDEST POP POP PUSH1 0x1 DUP1 SLOAD PUSH1 0xFF PUSH1 0xA8 SHL NOT AND PUSH1 0x1 PUSH1 0xA8 SHL OR SWAP1 SSTORE POP POP JUMP JUMPDEST PUSH1 0x1 DUP1 SLOAD PUSH1 0x1 PUSH1 0xA0 SHL SWAP1 DIV PUSH1 0xFF AND PUSH1 0x2 DUP2 GT ISZERO PUSH2 0x1703 JUMPI PUSH2 0x1703 PUSH2 0x3C0B JUMP JUMPDEST EQ PUSH2 0x1721 JUMPI PUSH1 0x40 MLOAD PUSH4 0x2F279413 PUSH1 0xE1 SHL DUP2 MSTORE PUSH1 0x4 ADD PUSH1 0x40 MLOAD DUP1 SWAP2 SUB SWAP1 REVERT JUMPDEST PUSH1 0x1 SLOAD PUSH1 0x1 PUSH1 0x1 PUSH1 0xA0 SHL SUB AND CALLER EQ PUSH2 0x174C JUMPI PUSH1 0x40 MLOAD PUSH4 0x57EE7DC9 PUSH1 0xE1 SHL DUP2 MSTORE PUSH1 0x4 ADD PUSH1 0x40 MLOAD DUP1 SWAP2 SUB SWAP1 REVERT JUMPDEST PUSH1 0x0 DUP1 SLOAD PUSH1 0x1 PUSH1 0x1 PUSH1 0xA0 SHL SUB NOT AND CALLER SWAP1 DUP2 OR SWAP1 SWAP2 SSTORE PUSH1 0x1 DUP1 SLOAD PUSH1 0x1 PUSH1 0x1 PUSH1 0xA8 SHL SUB NOT AND SWAP1 SSTORE PUSH1 0x40 MLOAD SWAP1 DUP2 MSTORE PUSH32 0x3EDD90E7770F06FAFDE38004653B33870066C33BFC923FF6102ACD601F85DFBC SWAP1 PUSH1 0x20 ADD PUSH2 0x12FB JUMP JUMPDEST PUSH1 0x1 SLOAD PUSH1 0x1 PUSH1 0xA8 SHL SWAP1 DIV PUSH1 0xFF AND PUSH1 0x2 SUB PUSH2 0x17CE JUMPI PUSH1 0x40 MLOAD PUSH4 0xDDF7393 PUSH1 0xE1 SHL DUP2 MSTORE PUSH1 0x4 ADD PUSH1 0x40 MLOAD DUP1 SWAP2 SUB SWAP1 REVERT JUMPDEST PUSH1 0x1 DUP1 SLOAD PUSH1 0xFF PUSH1 0xA8 SHL NOT AND PUSH1 0x1 PUSH1 0xA9 SHL OR SWAP1 SSTORE PUSH2 0x17E9 PUSH2 0x2C81 JUMP JUMPDEST PUSH1 0x0 DUP2 DUP2 MSTORE PUSH1 0x3 PUSH1 0x20 MSTORE PUSH1 0x40 SWAP1 KECCAK256 PUSH2 0x1802 DUP2 PUSH1 0x1 PUSH2 0x2A6E JUMP JUMPDEST DUP1 SLOAD PUSH2 0x1816 SWAP1 PUSH1 0x1 PUSH1 0x1 PUSH1 0xA0 SHL SUB AND PUSH2 0x2F3F JUMP JUMPDEST PUSH1 0x8 DUP2 ADD DUP1 SLOAD PUSH1 0x0 DUP1 JUMPDEST DUP3 DUP2 LT ISZERO PUSH2 0x1975 JUMPI PUSH1 0x0 DUP5 DUP3 DUP2 SLOAD DUP2 LT PUSH2 0x183C JUMPI PUSH2 0x183C PUSH2 0x408F JUMP JUMPDEST PUSH1 0x0 SWAP2 DUP3 MSTORE PUSH1 0x20 DUP3 KECCAK256 PUSH1 0x3 SWAP1 SWAP2 MUL ADD DUP1 SLOAD SWAP1 SWAP3 POP PUSH1 0xFF PUSH1 0x1 PUSH1 0x50 SHL SWAP1 SWAP2 DIV AND SWAP1 DUP2 PUSH1 0x3 DUP2 GT ISZERO PUSH2 0x186E JUMPI PUSH2 0x186E PUSH2 0x3C0B JUMP JUMPDEST SUB PUSH2 0x189D JUMPI DUP2 SLOAD PUSH1 0x1 DUP4 ADD SLOAD PUSH2 0x1898 SWAP2 PUSH1 0x1 PUSH1 0x60 SHL SWAP1 DIV PUSH1 0x1 PUSH1 0x1 PUSH1 0xA0 SHL SUB AND SWAP1 CALLER SWAP1 ADDRESS SWAP1 PUSH2 0x2F68 JUMP JUMPDEST PUSH2 0x196B JUMP JUMPDEST PUSH1 0x3 DUP2 PUSH1 0x3 DUP2 GT ISZERO PUSH2 0x18B1 JUMPI PUSH2 0x18B1 PUSH2 0x3C0B JUMP JUMPDEST SUB PUSH2 0x18EC JUMPI DUP2 SLOAD PUSH1 0x2 DUP4 ADD SLOAD PUSH2 0x1898 SWAP2 PUSH1 0x1 PUSH1 0x1 PUSH1 0xA0 SHL SUB PUSH1 0x1 PUSH1 0x60 SHL DUP3 DIV AND SWAP2 CALLER SWAP2 ADDRESS SWAP2 PUSH2 0x18E7 SWAP2 PUSH5 0xFFFFFFFFFF AND SWAP1 PUSH2 0x4182 JUMP JUMPDEST PUSH2 0x3058 JUMP JUMPDEST PUSH1 0x2 DUP2 PUSH1 0x3 DUP2 GT ISZERO PUSH2 0x1900 JUMPI PUSH2 0x1900 PUSH2 0x3C0B JUMP JUMPDEST SUB PUSH2 0x192E JUMPI DUP2 SLOAD PUSH1 0x2 DUP4 ADD SLOAD PUSH2 0x191D SWAP2 PUSH5 0xFFFFFFFFFF AND SWAP1 PUSH2 0x4182 JUMP JUMPDEST PUSH2 0x1927 SWAP1 DUP6 PUSH2 0x4125 JUMP JUMPDEST SWAP4 POP PUSH2 0x196B JUMP JUMPDEST DUP2 SLOAD PUSH1 0x1 DUP4 ADD SLOAD PUSH1 0x2 DUP5 ADD SLOAD PUSH2 0x196B SWAP3 PUSH1 0x1 PUSH1 0x1 PUSH1 0xA0 SHL SUB PUSH1 0x1 PUSH1 0x60 SHL DUP3 DIV AND SWAP3 CALLER SWAP3 ADDRESS SWAP3 PUSH2 0x1966 SWAP2 PUSH5 0xFFFFFFFFFF SWAP1 SWAP2 AND SWAP1 PUSH2 0x4182 JUMP JUMPDEST PUSH2 0x318A JUMP JUMPDEST POP POP PUSH1 0x1 ADD PUSH2 0x1820 JUMP JUMPDEST POP PUSH2 0x197F DUP2 PUSH2 0x328F JUMP JUMPDEST PUSH2 0x14C6 DUP5 DUP7 PUSH1 0x2 PUSH2 0x2ABB JUMP JUMPDEST PUSH2 0x1993 PUSH2 0x287A JUMP JUMPDEST PUSH1 0x1 SLOAD PUSH1 0x1 PUSH1 0xA8 SHL SWAP1 DIV PUSH1 0xFF AND PUSH1 0x2 SUB PUSH2 0x19C0 JUMPI PUSH1 0x40 MLOAD PUSH4 0xDDF7393 PUSH1 0xE1 SHL DUP2 MSTORE PUSH1 0x4 ADD PUSH1 0x40 MLOAD DUP1 SWAP2 SUB SWAP1 REVERT JUMPDEST PUSH1 0x1 DUP1 SLOAD PUSH1 0xFF PUSH1 0xA8 SHL NOT AND PUSH1 0x1 PUSH1 0xA9 SHL OR SWAP1 SSTORE PUSH1 0x0 DUP2 DUP2 MSTORE PUSH1 0x3 PUSH1 0x20 DUP2 SWAP1 MSTORE PUSH1 0x40 SWAP1 SWAP2 KECCAK256 SWAP1 PUSH2 0x19F0 SWAP1 DUP3 SWAP1 PUSH2 0x2A6E JUMP JUMPDEST DUP1 SLOAD PUSH2 0x1A0E SWAP1 PUSH3 0x15180 SWAP1 PUSH1 0x1 PUSH1 0xD8 SHL SWAP1 DIV PUSH5 0xFFFFFFFFFF AND PUSH2 0x4125 JUMP JUMPDEST TIMESTAMP LT ISZERO PUSH2 0x1A2E JUMPI PUSH1 0x40 MLOAD PUSH4 0x7A606537 PUSH1 0xE1 SHL DUP2 MSTORE PUSH1 0x4 ADD PUSH1 0x40 MLOAD DUP1 SWAP2 SUB SWAP1 REVERT JUMPDEST PUSH2 0x1A3A DUP2 DUP4 PUSH1 0x7 PUSH2 0x2ABB JUMP JUMPDEST POP POP PUSH1 0x1 DUP1 SLOAD PUSH1 0xFF PUSH1 0xA8 SHL NOT AND PUSH1 0x1 PUSH1 0xA8 SHL OR SWAP1 SSTORE JUMP JUMPDEST PUSH1 0x1 SLOAD PUSH1 0x1 PUSH1 0xA8 SHL SWAP1 DIV PUSH1 0xFF AND PUSH1 0x2 SUB PUSH2 0x1A7E JUMPI PUSH1 0x40 MLOAD PUSH4 0xDDF7393 PUSH1 0xE1 SHL DUP2 MSTORE PUSH1 0x4 ADD PUSH1 0x40 MLOAD DUP1 SWAP2 SUB SWAP1 REVERT JUMPDEST PUSH1 0x1 DUP1 SLOAD PUSH1 0xFF PUSH1 0xA8 SHL NOT AND PUSH1 0x1 PUSH1 0xA9 SHL OR SWAP1 SSTORE PUSH2 0x1A99 PUSH2 0x2C81 JUMP JUMPDEST PUSH1 0x0 DUP2 DUP2 MSTORE PUSH1 0x3 PUSH1 0x20 MSTORE PUSH1 0x40 SWAP1 KECCAK256 PUSH2 0x1AB2 DUP2 PUSH1 0x5 PUSH2 0x2A6E JUMP JUMPDEST DUP1 SLOAD PUSH1 0x1 PUSH1 0x1 PUSH1 0xA0 SHL SUB AND CALLER DUP2 EQ PUSH2 0x1AD9 JUMPI PUSH1 0x0 SLOAD PUSH2 0x1AD9 SWAP1 PUSH1 0x1 PUSH1 0x1 PUSH1 0xA0 SHL SUB AND PUSH2 0x2F3F JUMP JUMPDEST PUSH1 0x2 DUP3 ADD SLOAD PUSH1 0x1 DUP4 ADD SLOAD PUSH1 0x1 PUSH1 0x1 PUSH1 0xD0 SHL SUB SWAP1 SWAP2 AND SWAP1 PUSH1 0x0 SWAP1 PUSH2 0x2710 SWAP1 PUSH2 0x1B0B SWAP1 PUSH1 0x1 PUSH1 0xF0 SHL SWAP1 DIV PUSH2 0xFFFF AND DUP5 PUSH2 0x4199 JUMP JUMPDEST PUSH2 0x1B15 SWAP2 SWAP1 PUSH2 0x41C2 JUMP JUMPDEST SWAP1 POP DUP1 DUP3 SUB SWAP2 POP PUSH2 0x1B28 DUP5 DUP7 PUSH1 0x6 PUSH2 0x2ABB JUMP JUMPDEST PUSH1 0x2 DUP5 ADD DUP1 SLOAD PUSH1 0x1 PUSH1 0x1 PUSH1 0xD0 SHL SUB NOT AND SWAP1 SSTORE PUSH1 0x1 DUP5 ADD SLOAD PUSH1 0x1 PUSH1 0x50 SHL SWAP1 DIV PUSH1 0x1 PUSH1 0x1 PUSH1 0xA0 SHL SUB AND PUSH2 0x1B63 DUP2 DUP6 PUSH1 0x1 PUSH1 0x1 PUSH1 0xD0 SHL SUB DUP7 AND PUSH2 0x2D4C JUMP JUMPDEST PUSH1 0x1 PUSH1 0x1 PUSH1 0xD0 SHL SUB DUP3 AND ISZERO PUSH2 0x1BA9 JUMPI PUSH1 0x1 PUSH1 0x1 PUSH1 0xA0 SHL SUB DUP2 AND PUSH1 0x0 SWAP1 DUP2 MSTORE PUSH1 0x8 PUSH1 0x20 MSTORE PUSH1 0x40 DUP2 KECCAK256 DUP1 SLOAD PUSH1 0x1 PUSH1 0x1 PUSH1 0xD0 SHL SUB DUP6 AND SWAP3 SWAP1 PUSH2 0x1BA3 SWAP1 DUP5 SWAP1 PUSH2 0x4125 JUMP JUMPDEST SWAP1 SWAP2 SSTORE POP POP JUMPDEST PUSH1 0x40 DUP1 MLOAD DUP8 DUP2 MSTORE PUSH1 0x1 PUSH1 0x1 PUSH1 0xD0 SHL SUB DUP6 AND PUSH1 0x20 DUP3 ADD MSTORE PUSH32 0xA1F87F32D0F17FAB0242CA800D736293DE8988C14B27747E218CF13D5C249F53 SWAP2 ADD PUSH1 0x40 MLOAD DUP1 SWAP2 SUB SWAP1 LOG1 POP POP PUSH1 0x1 DUP1 SLOAD PUSH1 0xFF PUSH1 0xA8 SHL NOT AND PUSH1 0x1 PUSH1 0xA8 SHL OR SWAP1 SSTORE POP POP POP POP JUMP JUMPDEST PUSH2 0x1C0D PUSH2 0x287A JUMP JUMPDEST PUSH1 0x0 PUSH1 0x1 SLOAD PUSH1 0x1 PUSH1 0xA0 SHL SWAP1 DIV PUSH1 0xFF AND PUSH1 0x2 DUP2 GT ISZERO PUSH2 0x1C2D JUMPI PUSH2 0x1C2D PUSH2 0x3C0B JUMP JUMPDEST EQ PUSH2 0x1C4B JUMPI PUSH1 0x40 MLOAD PUSH4 0x3A76BCD7 PUSH1 0xE1 SHL DUP2 MSTORE PUSH1 0x4 ADD PUSH1 0x40 MLOAD DUP1 SWAP2 SUB SWAP1 REVERT JUMPDEST PUSH1 0x1 DUP1 SLOAD PUSH1 0x1 PUSH1 0x1 PUSH1 0xA0 SHL SUB DUP4 AND PUSH1 0x1 PUSH1 0x1 PUSH1 0xA8 SHL SUB NOT SWAP1 SWAP2 AND DUP2 OR PUSH1 0x1 PUSH1 0xA0 SHL OR SWAP1 SWAP2 SSTORE PUSH1 0x40 DUP1 MLOAD CALLER DUP2 MSTORE PUSH1 0x20 DUP2 ADD SWAP3 SWAP1 SWAP3 MSTORE PUSH32 0xB86C75C9BFFCA616B2D314CC914F7C3F1D174255B16B941C3F3EDEDEE276D5EF SWAP2 ADD JUMPDEST PUSH1 0x40 MLOAD DUP1 SWAP2 SUB SWAP1 LOG1 POP JUMP JUMPDEST PUSH1 0x60 PUSH1 0x3 PUSH1 0x0 DUP4 DUP2 MSTORE PUSH1 0x20 ADD SWAP1 DUP2 MSTORE PUSH1 0x20 ADD PUSH1 0x0 KECCAK256 PUSH1 0x8 ADD DUP1 SLOAD DUP1 PUSH1 0x20 MUL PUSH1 0x20 ADD PUSH1 0x40 MLOAD SWAP1 DUP2 ADD PUSH1 0x40 MSTORE DUP1 SWAP3 SWAP2 SWAP1 DUP2 DUP2 MSTORE PUSH1 0x20 ADD PUSH1 0x0 SWAP1 JUMPDEST DUP3 DUP3 LT ISZERO PUSH2 0xD7A JUMPI PUSH1 0x0 DUP5 DUP2 MSTORE PUSH1 0x20 SWAP1 DUP2 SWAP1 KECCAK256 PUSH1 0x40 DUP1 MLOAD PUSH1 0xE0 DUP2 ADD DUP3 MSTORE PUSH1 0x3 DUP7 DUP2 MUL SWAP1 SWAP4 ADD DUP1 SLOAD PUSH5 0xFFFFFFFFFF DUP1 DUP3 AND DUP5 MSTORE PUSH1 0x1 PUSH1 0x28 SHL DUP3 DIV AND SWAP6 DUP4 ADD SWAP6 SWAP1 SWAP6 MSTORE SWAP1 SWAP4 SWAP1 SWAP3 SWAP2 DUP5 ADD SWAP2 PUSH1 0x1 PUSH1 0x50 SHL SWAP1 SWAP2 DIV PUSH1 0xFF AND SWAP1 DUP2 GT ISZERO PUSH2 0x1D4A JUMPI PUSH2 0x1D4A PUSH2 0x3C0B JUMP JUMPDEST PUSH1 0x3 DUP2 GT ISZERO PUSH2 0x1D5B JUMPI PUSH2 0x1D5B PUSH2 0x3C0B JUMP JUMPDEST DUP2 MSTORE DUP2 SLOAD PUSH1 0x1 PUSH1 0x58 SHL DUP2 DIV PUSH1 0xFF AND PUSH1 0x20 DUP1 DUP5 ADD SWAP2 SWAP1 SWAP2 MSTORE PUSH1 0x1 PUSH1 0x60 SHL SWAP1 SWAP2 DIV PUSH1 0x1 PUSH1 0x1 PUSH1 0xA0 SHL SUB AND PUSH1 0x40 DUP4 ADD MSTORE PUSH1 0x1 DUP1 DUP5 ADD SLOAD PUSH1 0x60 DUP5 ADD MSTORE PUSH1 0x2 SWAP1 SWAP4 ADD SLOAD PUSH1 0x80 SWAP1 SWAP3 ADD SWAP2 SWAP1 SWAP2 MSTORE SWAP2 DUP4 MSTORE SWAP3 SWAP1 SWAP3 ADD SWAP2 ADD PUSH2 0x1CE6 JUMP JUMPDEST PUSH1 0x60 PUSH1 0x3 PUSH1 0x0 DUP4 DUP2 MSTORE PUSH1 0x20 ADD SWAP1 DUP2 MSTORE PUSH1 0x20 ADD PUSH1 0x0 KECCAK256 PUSH1 0x9 ADD DUP1 SLOAD DUP1 PUSH1 0x20 MUL PUSH1 0x20 ADD PUSH1 0x40 MLOAD SWAP1 DUP2 ADD PUSH1 0x40 MSTORE DUP1 SWAP3 SWAP2 SWAP1 DUP2 DUP2 MSTORE PUSH1 0x20 ADD PUSH1 0x0 SWAP1 JUMPDEST DUP3 DUP3 LT ISZERO PUSH2 0xD7A JUMPI PUSH1 0x0 DUP5 DUP2 MSTORE PUSH1 0x20 SWAP1 DUP2 SWAP1 KECCAK256 PUSH1 0x40 DUP1 MLOAD DUP1 DUP3 ADD SWAP1 SWAP2 MSTORE SWAP1 DUP5 ADD SLOAD PUSH5 0xFFFFFFFFFF DUP2 AND DUP3 MSTORE PUSH1 0x1 PUSH1 0x28 SHL SWAP1 DIV PUSH1 0x1 PUSH1 0x1 PUSH1 0xA0 SHL SUB AND DUP2 DUP4 ADD MSTORE DUP3 MSTORE PUSH1 0x1 SWAP1 SWAP3 ADD SWAP2 ADD PUSH2 0x1DE8 JUMP JUMPDEST PUSH1 0x0 DUP1 PUSH2 0x1E45 PUSH1 0x20 DUP5 ADD DUP5 PUSH2 0x41FD JUMP JUMPDEST SWAP1 POP PUSH5 0xFFFFFFFFFF DUP2 AND PUSH3 0x15180 TIMESTAMP ADD GT DUP1 PUSH2 0x1E6C JUMPI POP PUSH3 0x93A80 TIMESTAMP ADD DUP2 PUSH5 0xFFFFFFFFFF AND GT JUMPDEST ISZERO PUSH2 0x1E8A JUMPI PUSH1 0x40 MLOAD PUSH4 0xCE8F4BFD PUSH1 0xE0 SHL DUP2 MSTORE PUSH1 0x4 ADD PUSH1 0x40 MLOAD DUP1 SWAP2 SUB SWAP1 REVERT JUMPDEST PUSH1 0x0 PUSH2 0x1E9C PUSH1 0xA0 DUP6 ADD PUSH1 0x80 DUP7 ADD PUSH2 0x3BE7 JUMP JUMPDEST PUSH1 0x7 SLOAD SWAP1 SWAP2 POP PUSH2 0xFFFF DUP1 DUP4 AND PUSH1 0x1 PUSH1 0xA0 SHL SWAP1 SWAP3 DIV AND EQ PUSH2 0x1ECF JUMPI PUSH1 0x40 MLOAD PUSH4 0x4929ACD7 PUSH1 0xE0 SHL DUP2 MSTORE PUSH1 0x4 ADD PUSH1 0x40 MLOAD DUP1 SWAP2 SUB SWAP1 REVERT JUMPDEST PUSH1 0x0 PUSH2 0x1EE1 PUSH1 0xC0 DUP7 ADD PUSH1 0xA0 DUP8 ADD PUSH2 0x3CBE JUMP JUMPDEST SWAP1 POP PUSH1 0x1 PUSH1 0x1 PUSH1 0xA0 SHL SUB DUP2 AND ISZERO PUSH2 0x1F2B JUMPI PUSH1 0x1 PUSH1 0x1 PUSH1 0xA0 SHL SUB DUP2 AND PUSH1 0x0 SWAP1 DUP2 MSTORE PUSH1 0x5 PUSH1 0x20 MSTORE PUSH1 0x40 SWAP1 KECCAK256 SLOAD PUSH1 0xFF AND PUSH2 0x1F2B JUMPI PUSH1 0x40 MLOAD PUSH4 0x1EB32685 PUSH1 0xE3 SHL DUP2 MSTORE PUSH1 0x4 ADD PUSH1 0x40 MLOAD DUP1 SWAP2 SUB SWAP1 REVERT JUMPDEST PUSH1 0x2 DUP1 SLOAD PUSH1 0x1 ADD SWAP1 DUP2 SWAP1 SSTORE SWAP4 POP PUSH1 0x0 PUSH2 0x1F47 PUSH1 0xC0 DUP8 ADD DUP8 PUSH2 0x4218 JUMP JUMPDEST SWAP2 POP POP DUP1 ISZERO DUP1 PUSH2 0x1F57 JUMPI POP PUSH1 0x14 DUP2 GT JUMPDEST ISZERO PUSH2 0x1F75 JUMPI PUSH1 0x40 MLOAD PUSH4 0xAB13062D PUSH1 0xE0 SHL DUP2 MSTORE PUSH1 0x4 ADD PUSH1 0x40 MLOAD DUP1 SWAP2 SUB SWAP1 REVERT JUMPDEST PUSH1 0x0 DUP6 DUP2 MSTORE PUSH1 0x3 PUSH1 0x20 MSTORE PUSH1 0x40 DUP2 KECCAK256 SWAP1 DUP1 DUP1 JUMPDEST DUP5 DUP2 LT ISZERO PUSH2 0x2106 JUMPI PUSH1 0x0 PUSH2 0x1F9E PUSH1 0xC0 DUP13 ADD DUP13 PUSH2 0x4218 JUMP JUMPDEST DUP4 DUP2 DUP2 LT PUSH2 0x1FAE JUMPI PUSH2 0x1FAE PUSH2 0x408F JUMP JUMPDEST SWAP1 POP PUSH1 0xE0 MUL ADD DUP1 CALLDATASIZE SUB DUP2 ADD SWAP1 PUSH2 0x1FC4 SWAP2 SWAP1 PUSH2 0x4271 JUMP JUMPDEST SWAP1 POP DUP3 PUSH1 0xFF AND DUP2 PUSH1 0x60 ADD MLOAD PUSH1 0xFF AND LT ISZERO PUSH2 0x1FF1 JUMPI PUSH1 0x40 MLOAD PUSH4 0x2F897177 PUSH1 0xE1 SHL DUP2 MSTORE PUSH1 0x4 ADD PUSH1 0x40 MLOAD DUP1 SWAP2 SUB SWAP1 REVERT JUMPDEST PUSH2 0x1FFA DUP2 PUSH2 0x32E7 JUMP JUMPDEST DUP1 MLOAD PUSH2 0x2006 SWAP1 DUP6 PUSH2 0x431B JUMP JUMPDEST PUSH5 0xFFFFFFFFFF DUP1 DUP3 AND PUSH1 0x20 DUP1 DUP6 ADD SWAP2 DUP3 MSTORE PUSH1 0x60 DUP6 ADD MLOAD PUSH1 0x8 DUP11 ADD DUP1 SLOAD PUSH1 0x1 DUP2 ADD DUP3 SSTORE PUSH1 0x0 SWAP2 DUP3 MSTORE SWAP3 SWAP1 KECCAK256 DUP7 MLOAD PUSH1 0x3 SWAP4 DUP5 MUL SWAP1 SWAP2 ADD DUP1 SLOAD SWAP5 MLOAD DUP7 AND PUSH1 0x1 PUSH1 0x28 SHL MUL PUSH10 0xFFFFFFFFFFFFFFFFFFFF NOT SWAP1 SWAP6 AND SWAP2 SWAP1 SWAP6 AND OR SWAP3 SWAP1 SWAP3 OR DUP1 DUP5 SSTORE PUSH1 0x40 DUP7 ADD MLOAD SWAP5 SWAP9 POP SWAP2 SWAP7 POP DUP5 SWAP4 SWAP2 DUP4 SWAP2 PUSH1 0xFF PUSH1 0x50 SHL NOT SWAP1 SWAP2 AND SWAP1 PUSH1 0x1 PUSH1 0x50 SHL SWAP1 DUP5 SWAP1 DUP2 GT ISZERO PUSH2 0x2092 JUMPI PUSH2 0x2092 PUSH2 0x3C0B JUMP JUMPDEST MUL OR SWAP1 SSTORE POP PUSH1 0x60 DUP3 ADD MLOAD DUP2 SLOAD PUSH1 0x80 DUP5 ADD MLOAD PUSH1 0x1 PUSH1 0x1 PUSH1 0xA0 SHL SUB AND PUSH1 0x1 PUSH1 0x60 SHL MUL PUSH12 0xFFFFFFFFFFFFFFFFFFFFFFFF PUSH1 0xFF SWAP1 SWAP4 AND PUSH1 0x1 PUSH1 0x58 SHL MUL SWAP3 SWAP1 SWAP3 AND PUSH11 0xFFFFFFFFFFFFFFFFFFFFFF SWAP1 SWAP2 AND OR OR DUP2 SSTORE PUSH1 0xA0 DUP3 ADD MLOAD PUSH1 0x1 DUP1 DUP4 ADD SWAP2 SWAP1 SWAP2 SSTORE PUSH1 0xC0 SWAP1 SWAP3 ADD MLOAD PUSH1 0x2 SWAP1 SWAP2 ADD SSTORE SWAP2 SWAP1 SWAP2 ADD SWAP1 POP PUSH2 0x1F87 JUMP JUMPDEST POP PUSH1 0x0 PUSH2 0x2119 PUSH1 0x60 DUP12 ADD PUSH1 0x40 DUP13 ADD PUSH2 0x41FD JUMP JUMPDEST SWAP1 POP DUP1 PUSH5 0xFFFFFFFFFF AND DUP4 PUSH5 0xFFFFFFFFFF AND GT DUP1 PUSH2 0x213E JUMPI POP PUSH1 0x6E PUSH5 0xFFFFFFFFFF DUP5 AND GT JUMPDEST ISZERO PUSH2 0x215C JUMPI PUSH1 0x40 MLOAD PUSH4 0x40250F01 PUSH1 0xE1 SHL DUP2 MSTORE PUSH1 0x4 ADD PUSH1 0x40 MLOAD DUP1 SWAP2 SUB SWAP1 REVERT JUMPDEST PUSH2 0x2169 DUP10 DUP12 PUSH1 0xE0 ADD PUSH2 0x33CE JUMP JUMPDEST DUP4 SLOAD PUSH1 0x1 PUSH1 0x1 PUSH1 0xA0 SHL SUB NOT AND CALLER OR DUP5 SSTORE PUSH2 0x2189 PUSH1 0x40 DUP12 ADD PUSH1 0x20 DUP13 ADD PUSH2 0x4340 JUMP JUMPDEST DUP5 SLOAD PUSH6 0xFFFFFFFFFFFF PUSH1 0xA8 SHL NOT AND PUSH1 0x1 PUSH1 0xA8 SHL SWAP2 ISZERO ISZERO SWAP2 SWAP1 SWAP2 MUL PUSH5 0xFFFFFFFFFF PUSH1 0xB0 SHL NOT AND OR PUSH1 0x1 PUSH1 0xB0 SHL PUSH5 0xFFFFFFFFFF DUP11 DUP2 AND SWAP2 SWAP1 SWAP2 MUL SWAP2 SWAP1 SWAP2 OR DUP6 SSTORE PUSH1 0x1 DUP6 ADD DUP1 SLOAD PUSH5 0xFFFFFFFFFF NOT AND SWAP2 DUP4 AND SWAP2 SWAP1 SWAP2 OR SWAP1 SSTORE PUSH2 0x21EE PUSH1 0x80 DUP12 ADD PUSH1 0x60 DUP13 ADD PUSH2 0x41FD JUMP JUMPDEST PUSH1 0x1 DUP6 DUP2 ADD DUP1 SLOAD PUSH10 0xFFFFFFFFFF0000000001 PUSH1 0x1 PUSH1 0xF0 SHL SUB AND PUSH1 0x1 PUSH1 0x28 SHL PUSH5 0xFFFFFFFFFF SWAP5 SWAP1 SWAP5 AND SWAP4 SWAP1 SWAP4 MUL PUSH1 0x1 PUSH1 0x1 PUSH1 0xF0 SHL SUB AND SWAP3 SWAP1 SWAP3 OR PUSH1 0x1 PUSH1 0xF0 SHL PUSH2 0xFFFF DUP12 AND MUL OR PUSH32 0xFFFF0000000000000000000000000000000000000000FFFFFFFFFFFFFFFFFFFF AND PUSH1 0x1 PUSH1 0x50 SHL PUSH1 0x1 PUSH1 0x1 PUSH1 0xA0 SHL SUB DUP11 AND MUL OR SWAP1 SWAP2 SSTORE PUSH2 0x2276 SWAP1 DUP6 SWAP1 DUP12 SWAP1 PUSH2 0x2ABB JUMP JUMPDEST POP POP POP POP POP POP POP POP SWAP2 SWAP1 POP JUMP JUMPDEST PUSH2 0x228B PUSH2 0x287A JUMP JUMPDEST PUSH2 0xD03 DUP2 PUSH2 0x35A6 JUMP JUMPDEST PUSH1 0x1 SLOAD PUSH1 0x1 PUSH1 0xA8 SHL SWAP1 DIV PUSH1 0xFF AND PUSH1 0x2 SUB PUSH2 0x22C1 JUMPI PUSH1 0x40 MLOAD PUSH4 0xDDF7393 PUSH1 0xE1 SHL DUP2 MSTORE PUSH1 0x4 ADD PUSH1 0x40 MLOAD DUP1 SWAP2 SUB SWAP1 REVERT JUMPDEST PUSH1 0x1 DUP1 SLOAD PUSH1 0xFF PUSH1 0xA8 SHL NOT AND PUSH1 0x1 PUSH1 0xA9 SHL OR SWAP1 SSTORE PUSH2 0x22DC PUSH2 0x2C81 JUMP JUMPDEST DUP1 PUSH1 0x0 DUP1 JUMPDEST DUP3 DUP2 LT ISZERO PUSH2 0x26CA JUMPI CALLDATASIZE DUP6 DUP6 DUP4 DUP2 DUP2 LT PUSH2 0x22FC JUMPI PUSH2 0x22FC PUSH2 0x408F JUMP JUMPDEST SWAP1 POP PUSH1 0x40 MUL ADD SWAP1 POP PUSH1 0x5 DUP2 PUSH1 0x20 ADD CALLDATALOAD LT PUSH2 0x2329 JUMPI PUSH1 0x40 MLOAD PUSH4 0x63DF8171 PUSH1 0xE0 SHL DUP2 MSTORE PUSH1 0x4 ADD PUSH1 0x40 MLOAD DUP1 SWAP2 SUB SWAP1 REVERT JUMPDEST DUP1 CALLDATALOAD PUSH1 0x0 DUP2 DUP2 MSTORE PUSH1 0x3 PUSH1 0x20 MSTORE PUSH1 0x40 SWAP1 KECCAK256 PUSH2 0x2344 DUP2 PUSH1 0x2 PUSH2 0x2A6E JUMP JUMPDEST DUP1 SLOAD PUSH1 0x1 PUSH1 0xB0 SHL SWAP1 DIV PUSH5 0xFFFFFFFFFF AND TIMESTAMP LT PUSH2 0x2373 JUMPI PUSH1 0x40 MLOAD PUSH4 0x2DA31E37 PUSH1 0xE2 SHL DUP2 MSTORE PUSH1 0x4 ADD PUSH1 0x40 MLOAD DUP1 SWAP2 SUB SWAP1 REVERT JUMPDEST PUSH1 0x0 DUP2 PUSH1 0x3 ADD DUP5 PUSH1 0x20 ADD CALLDATALOAD PUSH1 0x5 DUP2 LT PUSH2 0x238E JUMPI PUSH2 0x238E PUSH2 0x408F JUMP JUMPDEST PUSH1 0x40 DUP1 MLOAD DUP1 DUP3 ADD DUP3 MSTORE SWAP2 SWAP1 SWAP3 ADD SLOAD PUSH5 0xFFFFFFFFFF DUP1 DUP3 AND DUP1 DUP5 MSTORE PUSH1 0x1 PUSH1 0x28 SHL SWAP1 SWAP3 DIV PUSH1 0x1 PUSH1 0x1 PUSH1 0xD0 SHL SUB AND PUSH1 0x20 DUP1 DUP6 ADD SWAP2 SWAP1 SWAP2 MSTORE PUSH1 0x0 DUP9 DUP2 MSTORE PUSH1 0x4 DUP3 MSTORE DUP6 DUP2 KECCAK256 CALLER DUP3 MSTORE SWAP1 SWAP2 MSTORE SWAP4 DUP5 KECCAK256 SLOAD SWAP3 SWAP5 POP PUSH2 0x23EC SWAP3 PUSH1 0x1 PUSH1 0xD0 SHL SWAP1 DIV AND PUSH2 0x431B JUMP JUMPDEST PUSH1 0x1 DUP5 ADD SLOAD SWAP1 SWAP2 POP PUSH5 0xFFFFFFFFFF PUSH1 0x1 PUSH1 0x28 SHL SWAP1 SWAP2 DIV DUP2 AND SWAP1 DUP3 AND GT ISZERO PUSH2 0x2426 JUMPI PUSH1 0x40 MLOAD PUSH4 0xD085F161 PUSH1 0xE0 SHL DUP2 MSTORE PUSH1 0x4 ADD PUSH1 0x40 MLOAD DUP1 SWAP2 SUB SWAP1 REVERT JUMPDEST PUSH1 0x0 DUP5 DUP2 MSTORE PUSH1 0x4 PUSH1 0x20 SWAP1 DUP2 MSTORE PUSH1 0x40 DUP1 DUP4 KECCAK256 CALLER DUP5 MSTORE DUP3 MSTORE SWAP1 SWAP2 KECCAK256 DUP1 SLOAD PUSH5 0xFFFFFFFFFF PUSH1 0xD0 SHL NOT AND PUSH1 0x1 PUSH1 0xD0 SHL PUSH5 0xFFFFFFFFFF DUP6 AND MUL OR SWAP1 SSTORE DUP3 ADD MLOAD PUSH1 0x1 DUP5 ADD SLOAD PUSH1 0x1 PUSH1 0x1 PUSH1 0xA0 SHL SUB PUSH1 0x1 PUSH1 0x50 SHL SWAP1 SWAP2 DIV AND PUSH2 0x248B JUMPI PUSH2 0x2484 DUP2 DUP10 PUSH2 0x435D JUMP JUMPDEST SWAP8 POP PUSH2 0x24B5 JUMP JUMPDEST PUSH1 0x1 DUP5 ADD SLOAD PUSH2 0x24B5 SWAP1 PUSH1 0x1 PUSH1 0x50 SHL SWAP1 DIV PUSH1 0x1 PUSH1 0x1 PUSH1 0xA0 SHL SUB AND CALLER ADDRESS PUSH1 0x1 PUSH1 0x1 PUSH1 0xD0 SHL SUB DUP6 AND PUSH2 0x3058 JUMP JUMPDEST PUSH1 0x9 DUP5 ADD SLOAD PUSH1 0x0 SWAP1 DUP1 DUP3 SUB PUSH2 0x24D8 JUMPI DUP5 MLOAD PUSH5 0xFFFFFFFFFF AND PUSH1 0x0 NOT ADD SWAP2 POP PUSH2 0x2513 JUMP JUMPDEST DUP5 MLOAD PUSH1 0x9 DUP8 ADD PUSH1 0x0 NOT DUP4 ADD DUP2 SLOAD DUP2 LT PUSH2 0x24F3 JUMPI PUSH2 0x24F3 PUSH2 0x408F JUMP JUMPDEST PUSH1 0x0 SWAP2 DUP3 MSTORE PUSH1 0x20 SWAP1 SWAP2 KECCAK256 ADD SLOAD PUSH2 0x2510 SWAP2 SWAP1 PUSH5 0xFFFFFFFFFF AND PUSH2 0x431B JUMP JUMPDEST SWAP2 POP JUMPDEST DUP6 SLOAD PUSH1 0x1 PUSH1 0xA8 SHL SWAP1 DIV PUSH1 0xFF AND ISZERO PUSH2 0x2553 JUMPI PUSH1 0x1 DUP7 ADD SLOAD PUSH5 0xFFFFFFFFFF SWAP1 DUP2 AND SWAP1 DUP4 AND LT PUSH2 0x2553 JUMPI PUSH1 0x40 MLOAD PUSH4 0x34B3FB3B PUSH1 0xE0 SHL DUP2 MSTORE PUSH1 0x4 ADD PUSH1 0x40 MLOAD DUP1 SWAP2 SUB SWAP1 REVERT JUMPDEST PUSH1 0x40 DUP1 MLOAD DUP1 DUP3 ADD SWAP1 SWAP2 MSTORE PUSH5 0xFFFFFFFFFF DUP1 DUP5 AND DUP3 MSTORE CALLER PUSH1 0x20 DUP1 DUP5 ADD SWAP2 DUP3 MSTORE PUSH1 0x9 DUP11 ADD DUP1 SLOAD PUSH1 0x1 DUP2 ADD DUP3 SSTORE PUSH1 0x0 SWAP2 DUP3 MSTORE SWAP2 DUP2 KECCAK256 SWAP5 MLOAD SWAP5 SWAP1 SWAP2 ADD DUP1 SLOAD SWAP3 MLOAD PUSH1 0x1 PUSH1 0x1 PUSH1 0xA0 SHL SUB AND PUSH1 0x1 PUSH1 0x28 SHL MUL PUSH1 0x1 PUSH1 0x1 PUSH1 0xC8 SHL SUB NOT SWAP1 SWAP4 AND SWAP5 SWAP1 SWAP4 AND SWAP4 SWAP1 SWAP4 OR OR SWAP1 SSTORE PUSH1 0x2 DUP8 ADD DUP1 SLOAD DUP6 SWAP3 SWAP1 PUSH2 0x25D2 SWAP1 DUP5 SWAP1 PUSH1 0x1 PUSH1 0x1 PUSH1 0xD0 SHL SUB AND PUSH2 0x435D JUMP JUMPDEST DUP3 SLOAD PUSH2 0x100 SWAP3 SWAP1 SWAP3 EXP PUSH1 0x1 PUSH1 0x1 PUSH1 0xD0 SHL SUB DUP2 DUP2 MUL NOT SWAP1 SWAP4 AND SWAP2 DUP4 AND MUL OR SWAP1 SWAP2 SSTORE PUSH1 0x0 DUP10 DUP2 MSTORE PUSH1 0x4 PUSH1 0x20 SWAP1 DUP2 MSTORE PUSH1 0x40 DUP1 DUP4 KECCAK256 CALLER DUP5 MSTORE SWAP1 SWAP2 MSTORE DUP2 KECCAK256 DUP1 SLOAD DUP8 SWAP5 POP SWAP1 SWAP3 PUSH2 0x261E SWAP2 DUP6 SWAP2 AND PUSH2 0x435D JUMP JUMPDEST DUP3 SLOAD PUSH2 0x100 SWAP3 SWAP1 SWAP3 EXP PUSH1 0x1 PUSH1 0x1 PUSH1 0xD0 SHL SUB DUP2 DUP2 MUL NOT SWAP1 SWAP4 AND SWAP2 DUP4 AND MUL OR SWAP1 SWAP2 SSTORE DUP7 MLOAD PUSH1 0x40 DUP1 MLOAD DUP12 DUP2 MSTORE CALLER PUSH1 0x20 DUP3 ADD MSTORE PUSH5 0xFFFFFFFFFF SWAP1 SWAP3 AND SWAP1 DUP3 ADD MSTORE SWAP1 DUP6 AND PUSH1 0x60 DUP3 ADD MSTORE PUSH32 0xC25CD4CEC0CBFB9BC40AD8F59AC733EFCDDF6ED3B7519369C9B9CEB2EE784601 SWAP2 POP PUSH1 0x80 ADD PUSH1 0x40 MLOAD DUP1 SWAP2 SUB SWAP1 LOG1 PUSH1 0x1 DUP7 ADD SLOAD PUSH5 0xFFFFFFFFFF AND PUSH1 0x0 NOT ADD DUP3 PUSH5 0xFFFFFFFFFF AND LT PUSH2 0x26B7 JUMPI PUSH2 0x26B7 DUP8 DUP8 PUSH2 0x361B JUMP JUMPDEST DUP9 PUSH1 0x1 ADD SWAP9 POP POP POP POP POP POP POP POP POP PUSH2 0x22E1 JUMP JUMPDEST POP PUSH2 0x16CB DUP2 PUSH1 0x1 PUSH1 0x1 PUSH1 0xD0 SHL SUB AND PUSH2 0x328F JUMP JUMPDEST PUSH1 0x1 SLOAD PUSH1 0x1 PUSH1 0xA8 SHL SWAP1 DIV PUSH1 0xFF AND PUSH1 0x2 SUB PUSH2 0x270A JUMPI PUSH1 0x40 MLOAD PUSH4 0xDDF7393 PUSH1 0xE1 SHL DUP2 MSTORE PUSH1 0x4 ADD PUSH1 0x40 MLOAD DUP1 SWAP2 SUB SWAP1 REVERT JUMPDEST PUSH1 0x1 DUP1 SLOAD PUSH1 0xFF PUSH1 0xA8 SHL NOT AND PUSH1 0x1 PUSH1 0xA9 SHL OR SWAP1 SSTORE PUSH2 0x2725 PUSH2 0x2C81 JUMP JUMPDEST DUP1 PUSH1 0x0 JUMPDEST DUP2 DUP2 LT ISZERO PUSH2 0x16CB JUMPI PUSH1 0x0 DUP5 DUP5 DUP4 DUP2 DUP2 LT PUSH2 0x2745 JUMPI PUSH2 0x2745 PUSH2 0x408F JUMP JUMPDEST PUSH1 0x20 SWAP1 DUP2 MUL SWAP3 SWAP1 SWAP3 ADD CALLDATALOAD PUSH1 0x0 DUP2 DUP2 MSTORE PUSH1 0x3 SWAP1 SWAP4 MSTORE PUSH1 0x40 SWAP1 SWAP3 KECCAK256 SWAP2 SWAP3 POP PUSH1 0x7 SWAP1 POP DUP2 SLOAD PUSH1 0x1 PUSH1 0xA0 SHL SWAP1 DIV PUSH1 0xFF AND PUSH1 0x8 DUP2 GT ISZERO PUSH2 0x2782 JUMPI PUSH2 0x2782 PUSH2 0x3C0B JUMP JUMPDEST LT ISZERO PUSH2 0x27A1 JUMPI PUSH1 0x40 MLOAD PUSH4 0x7A92F19 PUSH1 0xE5 SHL DUP2 MSTORE PUSH1 0x4 ADD PUSH1 0x40 MLOAD DUP1 SWAP2 SUB SWAP1 REVERT JUMPDEST PUSH1 0x0 DUP3 DUP2 MSTORE PUSH1 0x4 PUSH1 0x20 SWAP1 DUP2 MSTORE PUSH1 0x40 DUP1 DUP4 KECCAK256 CALLER DUP5 MSTORE SWAP1 SWAP2 MSTORE SWAP1 KECCAK256 DUP1 SLOAD PUSH1 0x1 PUSH1 0xF8 SHL SWAP1 DIV PUSH1 0xFF AND ISZERO PUSH2 0x27E4 JUMPI PUSH1 0x40 MLOAD PUSH4 0x542F378D PUSH1 0xE1 SHL DUP2 MSTORE PUSH1 0x4 ADD PUSH1 0x40 MLOAD DUP1 SWAP2 SUB SWAP1 REVERT JUMPDEST DUP1 SLOAD PUSH1 0x1 PUSH1 0xF8 SHL PUSH1 0x1 PUSH1 0x1 PUSH1 0xF8 SHL SUB DUP3 AND OR DUP3 SSTORE PUSH1 0x1 DUP4 ADD SLOAD PUSH1 0x1 PUSH1 0x1 PUSH1 0xD0 SHL SUB SWAP1 SWAP2 AND SWAP1 PUSH2 0x2824 SWAP1 PUSH1 0x1 PUSH1 0x50 SHL SWAP1 DIV PUSH1 0x1 PUSH1 0x1 PUSH1 0xA0 SHL SUB AND CALLER DUP4 PUSH2 0x2D4C JUMP JUMPDEST PUSH1 0x40 DUP1 MLOAD DUP6 DUP2 MSTORE CALLER PUSH1 0x20 DUP3 ADD MSTORE PUSH1 0x1 PUSH1 0x1 PUSH1 0xD0 SHL SUB DUP4 AND DUP2 DUP4 ADD MSTORE SWAP1 MLOAD PUSH32 0xC0B7CF12926534C2D86D0ABB17D620A3A06E07A84B3B8156A4B21189222B16D2 SWAP2 DUP2 SWAP1 SUB PUSH1 0x60 ADD SWAP1 LOG1 DUP5 PUSH1 0x1 ADD SWAP5 POP POP POP POP POP PUSH2 0x2729 JUMP JUMPDEST PUSH1 0x0 SLOAD PUSH1 0x1 PUSH1 0x1 PUSH1 0xA0 SHL SUB AND CALLER EQ PUSH2 0xDA6 JUMPI PUSH1 0x40 MLOAD PUSH4 0x30CD7471 PUSH1 0xE0 SHL DUP2 MSTORE PUSH1 0x4 ADD PUSH1 0x40 MLOAD DUP1 SWAP2 SUB SWAP1 REVERT JUMPDEST PUSH1 0x0 DUP3 DUP2 MSTORE PUSH1 0x6 PUSH1 0x20 MSTORE PUSH1 0x40 SWAP1 KECCAK256 SLOAD PUSH1 0xFF AND ISZERO PUSH2 0xC44 JUMPI PUSH1 0x0 DUP3 DUP2 MSTORE PUSH1 0x6 PUSH1 0x20 SWAP1 DUP2 MSTORE PUSH1 0x40 DUP1 DUP4 KECCAK256 PUSH1 0x1 ADD SLOAD DUP1 DUP5 MSTORE PUSH1 0x3 SWAP3 DUP4 SWAP1 MSTORE SWAP3 KECCAK256 SWAP1 DUP2 SLOAD PUSH1 0x1 PUSH1 0xA0 SHL SWAP1 DIV PUSH1 0xFF AND PUSH1 0x8 DUP2 GT ISZERO PUSH2 0x28FA JUMPI PUSH2 0x28FA PUSH2 0x3C0B JUMP JUMPDEST SUB PUSH2 0x2961 JUMPI PUSH2 0x290B DUP2 DUP4 PUSH1 0x4 PUSH2 0x2ABB JUMP JUMPDEST DUP3 PUSH1 0x0 DUP2 MLOAD DUP2 LT PUSH2 0x291E JUMPI PUSH2 0x291E PUSH2 0x408F JUMP JUMPDEST PUSH1 0x20 MUL PUSH1 0x20 ADD ADD MLOAD PUSH1 0x6 PUSH1 0x0 DUP7 DUP2 MSTORE PUSH1 0x20 ADD SWAP1 DUP2 MSTORE PUSH1 0x20 ADD PUSH1 0x0 KECCAK256 PUSH1 0x0 ADD PUSH1 0x1 PUSH2 0x100 EXP DUP2 SLOAD DUP2 PUSH1 0x1 PUSH1 0x1 PUSH1 0xF8 SHL SUB MUL NOT AND SWAP1 DUP4 PUSH1 0x1 PUSH1 0x1 PUSH1 0xF8 SHL SUB AND MUL OR SWAP1 SSTORE POP JUMPDEST POP POP POP POP JUMP JUMPDEST PUSH2 0x9C4 PUSH2 0xFFFF DUP3 AND GT ISZERO PUSH2 0x298E JUMPI PUSH1 0x40 MLOAD PUSH4 0x4929ACD7 PUSH1 0xE0 SHL DUP2 MSTORE PUSH1 0x4 ADD PUSH1 0x40 MLOAD DUP1 SWAP2 SUB SWAP1 REVERT JUMPDEST PUSH1 0x7 DUP1 SLOAD PUSH2 0xFFFF PUSH1 0xA0 SHL NOT AND PUSH1 0x1 PUSH1 0xA0 SHL PUSH2 0xFFFF DUP5 AND SWAP1 DUP2 MUL SWAP2 SWAP1 SWAP2 OR SWAP1 SWAP2 SSTORE PUSH1 0x40 MLOAD SWAP1 DUP2 MSTORE PUSH32 0xEDE4AEE4284B8033B84C1AADCC51B229A4E46E6B42AB40092E237F07508B4626 SWAP1 PUSH1 0x20 ADD PUSH2 0x1CA3 JUMP JUMPDEST PUSH2 0x29E6 PUSH2 0x2C81 JUMP JUMPDEST PUSH1 0x1 DUP1 SLOAD PUSH1 0xFF PUSH1 0xB0 SHL NOT AND PUSH1 0x1 PUSH1 0xB0 SHL OR SWAP1 SSTORE PUSH1 0x40 MLOAD CALLER DUP2 MSTORE PUSH32 0x62E78CEA01BEE320CD4E420270B5EA74000D11B0C9F74754EBDBFC544B05A258 SWAP1 PUSH1 0x20 ADD PUSH2 0x12FB JUMP JUMPDEST PUSH2 0x2A31 PUSH2 0x37BF JUMP JUMPDEST PUSH1 0x1 DUP1 SLOAD PUSH1 0xFF PUSH1 0xB0 SHL NOT AND SWAP1 SSTORE PUSH1 0x40 MLOAD CALLER DUP2 MSTORE PUSH32 0x5DB9EE0A495BF2E6FF9C91A7834C1BA4FDD244A5E8AA4E537BD38AEAE4B073AA SWAP1 PUSH1 0x20 ADD PUSH2 0x12FB JUMP JUMPDEST DUP1 PUSH1 0x8 DUP2 GT ISZERO PUSH2 0x2A80 JUMPI PUSH2 0x2A80 PUSH2 0x3C0B JUMP JUMPDEST DUP3 SLOAD PUSH1 0x1 PUSH1 0xA0 SHL SWAP1 DIV PUSH1 0xFF AND PUSH1 0x8 DUP2 GT ISZERO PUSH2 0x2A9D JUMPI PUSH2 0x2A9D PUSH2 0x3C0B JUMP JUMPDEST EQ PUSH2 0xC44 JUMPI PUSH1 0x40 MLOAD PUSH4 0x7A92F19 PUSH1 0xE5 SHL DUP2 MSTORE PUSH1 0x4 ADD PUSH1 0x40 MLOAD DUP1 SWAP2 SUB SWAP1 REVERT JUMPDEST DUP3 SLOAD DUP2 SWAP1 DUP5 SWAP1 PUSH1 0xFF PUSH1 0xA0 SHL NOT AND PUSH1 0x1 PUSH1 0xA0 SHL DUP4 PUSH1 0x8 DUP2 GT ISZERO PUSH2 0x2ADF JUMPI PUSH2 0x2ADF PUSH2 0x3C0B JUMP JUMPDEST MUL OR SWAP1 SSTORE POP PUSH32 0xC1191E7178B58AD510709587719F39EC315FA79E81EE7BA5C5EF3C894E94A651 DUP3 DUP3 PUSH1 0x40 MLOAD PUSH2 0x2B15 SWAP3 SWAP2 SWAP1 PUSH2 0x437D JUMP JUMPDEST PUSH1 0x40 MLOAD DUP1 SWAP2 SUB SWAP1 LOG1 POP POP POP JUMP JUMPDEST PUSH1 0x0 PUSH1 0x60 PUSH1 0x8 DUP5 SWAP1 SHR PUSH1 0x1 PUSH1 0xFF DUP7 AND SHL JUMPDEST DUP1 DUP6 DUP4 DUP2 MLOAD DUP2 LT PUSH2 0x2B46 JUMPI PUSH2 0x2B46 PUSH2 0x408F JUMP JUMPDEST PUSH1 0x20 MUL PUSH1 0x20 ADD ADD MLOAD AND PUSH1 0x0 EQ PUSH2 0x2B9E JUMPI DUP7 DUP7 SUB PUSH2 0x2B6A JUMPI PUSH1 0x0 SWAP2 POP PUSH1 0x0 SWAP6 POP PUSH2 0x2B91 JUMP JUMPDEST PUSH2 0x2B75 PUSH1 0x1 DUP8 PUSH2 0x4125 JUMP JUMPDEST SWAP6 POP PUSH2 0x2B83 PUSH2 0x100 DUP8 PUSH2 0x414E JUMP JUMPDEST PUSH1 0x0 SUB PUSH2 0x2B91 JUMPI PUSH1 0x1 DUP3 ADD SWAP2 POP JUMPDEST POP PUSH1 0x1 PUSH1 0xFF DUP7 AND SHL PUSH2 0x2B33 JUMP JUMPDEST DUP1 DUP6 DUP4 DUP2 MLOAD DUP2 LT PUSH2 0x2BB1 JUMPI PUSH2 0x2BB1 PUSH2 0x408F JUMP JUMPDEST PUSH1 0x20 SWAP1 DUP2 MUL SWAP2 SWAP1 SWAP2 ADD ADD DUP1 MLOAD SWAP1 SWAP2 OR SWAP1 MSTORE POP SWAP4 SWAP6 SWAP3 SWAP5 POP SWAP2 SWAP3 POP POP POP JUMP JUMPDEST PUSH1 0x0 DUP3 MLOAD PUSH1 0x0 SUB PUSH2 0x2BE2 JUMPI POP PUSH1 0x0 PUSH2 0x2C7B JUMP JUMPDEST DUP3 MLOAD PUSH1 0x0 SWAP1 JUMPDEST DUP1 DUP3 LT ISZERO PUSH2 0x2C34 JUMPI PUSH1 0x0 PUSH2 0x2BFC DUP4 DUP4 PUSH2 0x37E9 JUMP JUMPDEST SWAP1 POP DUP5 DUP7 DUP3 DUP2 MLOAD DUP2 LT PUSH2 0x2C11 JUMPI PUSH2 0x2C11 PUSH2 0x408F JUMP JUMPDEST PUSH1 0x20 MUL PUSH1 0x20 ADD ADD MLOAD GT ISZERO PUSH2 0x2C27 JUMPI DUP1 SWAP2 POP PUSH2 0x2C2E JUMP JUMPDEST DUP1 PUSH1 0x1 ADD SWAP3 POP JUMPDEST POP PUSH2 0x2BE8 JUMP JUMPDEST PUSH1 0x0 DUP3 GT DUP1 ISZERO PUSH2 0x2C66 JUMPI POP DUP4 DUP6 PUSH2 0x2C4C PUSH1 0x1 DUP6 PUSH2 0x4112 JUMP JUMPDEST DUP2 MLOAD DUP2 LT PUSH2 0x2C5C JUMPI PUSH2 0x2C5C PUSH2 0x408F JUMP JUMPDEST PUSH1 0x20 MUL PUSH1 0x20 ADD ADD MLOAD EQ JUMPDEST ISZERO PUSH2 0x2C77 JUMPI POP PUSH1 0x0 NOT ADD SWAP1 POP PUSH2 0x2C7B JUMP JUMPDEST POP SWAP1 POP JUMPDEST SWAP3 SWAP2 POP POP JUMP JUMPDEST PUSH1 0x1 SLOAD PUSH1 0x1 PUSH1 0xB0 SHL SWAP1 DIV PUSH1 0xFF AND ISZERO PUSH2 0xDA6 JUMPI PUSH1 0x40 MLOAD PUSH4 0x1309A563 PUSH1 0xE0 SHL DUP2 MSTORE PUSH1 0x4 ADD PUSH1 0x40 MLOAD DUP1 SWAP2 SUB SWAP1 REVERT JUMPDEST DUP3 SLOAD PUSH1 0x1 PUSH1 0x50 SHL DUP2 DIV PUSH1 0xFF AND SWAP1 PUSH1 0x1 PUSH1 0x60 SHL SWAP1 DIV PUSH1 0x1 PUSH1 0x1 PUSH1 0xA0 SHL SUB AND PUSH1 0x0 DUP3 PUSH1 0x3 DUP2 GT ISZERO PUSH2 0x2CDD JUMPI PUSH2 0x2CDD PUSH2 0x3C0B JUMP JUMPDEST SUB PUSH2 0x2CF7 JUMPI PUSH2 0x2CF2 DUP2 ADDRESS DUP7 DUP9 PUSH1 0x1 ADD SLOAD PUSH2 0x2F68 JUMP JUMPDEST PUSH2 0x2D45 JUMP JUMPDEST PUSH1 0x1 DUP3 PUSH1 0x3 DUP2 GT ISZERO PUSH2 0x2D0B JUMPI PUSH2 0x2D0B PUSH2 0x3C0B JUMP JUMPDEST SUB PUSH2 0x2D2B JUMPI PUSH2 0x2CF2 DUP2 ADDRESS DUP7 DUP9 PUSH1 0x1 ADD SLOAD DUP8 DUP11 PUSH1 0x2 ADD SLOAD PUSH2 0x1966 SWAP2 SWAP1 PUSH2 0x4182 JUMP JUMPDEST PUSH2 0x2D45 DUP2 DUP6 DUP6 DUP9 PUSH1 0x2 ADD SLOAD PUSH2 0x2D40 SWAP2 SWAP1 PUSH2 0x4182 JUMP JUMPDEST PUSH2 0x2D4C JUMP JUMPDEST POP POP POP POP POP JUMP JUMPDEST PUSH1 0x1 PUSH1 0x1 PUSH1 0xA0 SHL SUB DUP4 AND PUSH2 0x2D8B JUMPI PUSH2 0x2D86 PUSH32 0x0 DUP4 DUP4 GAS PUSH2 0x380B JUMP JUMPDEST POP POP POP JUMP JUMPDEST PUSH2 0x2D86 DUP4 DUP4 DUP4 PUSH2 0x38E6 JUMP JUMPDEST DUP1 CALLDATALOAD PUSH1 0x0 DUP2 DUP2 MSTORE PUSH1 0x3 PUSH1 0x20 MSTORE PUSH1 0x40 SWAP1 KECCAK256 DUP1 SLOAD PUSH1 0x1 PUSH1 0xA0 SHL SWAP1 DIV PUSH1 0xFF AND PUSH1 0x5 DUP2 PUSH1 0x8 DUP2 GT ISZERO PUSH2 0x2DC6 JUMPI PUSH2 0x2DC6 PUSH2 0x3C0B JUMP JUMPDEST EQ PUSH2 0x2DD6 JUMPI PUSH2 0x2DD6 DUP3 PUSH1 0x6 PUSH2 0x2A6E JUMP JUMPDEST PUSH1 0xA DUP3 ADD CALLDATASIZE PUSH1 0x0 PUSH2 0x2DEA PUSH1 0x20 DUP9 ADD DUP9 PUSH2 0x4391 JUMP JUMPDEST DUP5 SLOAD SWAP2 SWAP4 POP SWAP2 POP DUP2 PUSH1 0x0 JUMPDEST DUP2 DUP2 LT ISZERO PUSH2 0x2EF8 JUMPI PUSH1 0x0 DUP6 DUP6 DUP4 DUP2 DUP2 LT PUSH2 0x2E11 JUMPI PUSH2 0x2E11 PUSH2 0x408F JUMP JUMPDEST SWAP1 POP PUSH1 0x20 MUL ADD CALLDATALOAD SWAP1 POP DUP4 DUP2 LT PUSH2 0x2E3A JUMPI PUSH1 0x40 MLOAD PUSH4 0x63DF8171 PUSH1 0xE0 SHL DUP2 MSTORE PUSH1 0x4 ADD PUSH1 0x40 MLOAD DUP1 SWAP2 SUB SWAP1 REVERT JUMPDEST PUSH1 0x0 DUP8 DUP3 DUP2 SLOAD DUP2 LT PUSH2 0x2E4E JUMPI PUSH2 0x2E4E PUSH2 0x408F JUMP JUMPDEST PUSH1 0x0 SWAP2 DUP3 MSTORE PUSH1 0x20 SWAP1 SWAP2 KECCAK256 ADD DUP1 SLOAD SWAP1 SWAP2 POP PUSH1 0x1 PUSH1 0xA0 SHL SWAP1 DIV PUSH1 0xFF AND ISZERO PUSH2 0x2E86 JUMPI PUSH1 0x40 MLOAD PUSH4 0x611AB189 PUSH1 0xE1 SHL DUP2 MSTORE PUSH1 0x4 ADD PUSH1 0x40 MLOAD DUP1 SWAP2 SUB SWAP1 REVERT JUMPDEST DUP1 SLOAD PUSH2 0x2E9A SWAP1 PUSH1 0x1 PUSH1 0x1 PUSH1 0xA0 SHL SUB AND PUSH2 0x2F3F JUMP JUMPDEST DUP1 SLOAD PUSH1 0xFF PUSH1 0xA0 SHL NOT AND PUSH1 0x1 PUSH1 0xA0 SHL OR DUP1 DUP3 SSTORE PUSH1 0x8 DUP12 ADD DUP1 SLOAD PUSH1 0x0 SWAP3 PUSH1 0x1 PUSH1 0xA8 SHL SWAP1 DIV PUSH1 0xFF AND SWAP1 DUP2 LT PUSH2 0x2ECE JUMPI PUSH2 0x2ECE PUSH2 0x408F JUMP JUMPDEST SWAP1 PUSH1 0x0 MSTORE PUSH1 0x20 PUSH1 0x0 KECCAK256 SWAP1 PUSH1 0x3 MUL ADD SWAP1 POP PUSH2 0x2EEA DUP2 CALLER PUSH1 0x1 PUSH2 0x2CAC JUMP JUMPDEST DUP4 PUSH1 0x1 ADD SWAP4 POP POP POP POP PUSH2 0x2DF5 JUMP JUMPDEST POP PUSH32 0xD0AB4A45AFC0276AE825BE9EEB4552011B19AAD5C92B4BB782F3CA0356FEDC5 DUP9 DUP6 DUP6 PUSH1 0x40 MLOAD PUSH2 0x2F2C SWAP4 SWAP3 SWAP2 SWAP1 PUSH2 0x43DA JUMP JUMPDEST PUSH1 0x40 MLOAD DUP1 SWAP2 SUB SWAP1 LOG1 POP POP POP POP POP POP POP POP POP JUMP JUMPDEST CALLER PUSH1 0x1 PUSH1 0x1 PUSH1 0xA0 SHL SUB DUP3 AND EQ PUSH2 0xD03 JUMPI PUSH1 0x40 MLOAD PUSH4 0x48F5C3ED PUSH1 0xE0 SHL DUP2 MSTORE PUSH1 0x4 ADD PUSH1 0x40 MLOAD DUP1 SWAP2 SUB SWAP1 REVERT JUMPDEST DUP4 PUSH1 0x1 PUSH1 0x1 PUSH1 0xA0 SHL SUB AND EXTCODESIZE PUSH1 0x0 SUB PUSH2 0x2F93 JUMPI PUSH1 0x40 MLOAD PUSH4 0x9EE12D5 PUSH1 0xE0 SHL DUP2 MSTORE PUSH1 0x4 ADD PUSH1 0x40 MLOAD DUP1 SWAP2 SUB SWAP1 REVERT JUMPDEST PUSH1 0x40 MLOAD PUSH1 0x1 PUSH1 0x1 PUSH1 0xA0 SHL SUB DUP5 DUP2 AND PUSH1 0x24 DUP4 ADD MSTORE DUP4 DUP2 AND PUSH1 0x44 DUP4 ADD MSTORE PUSH1 0x64 DUP3 ADD DUP4 SWAP1 MSTORE PUSH1 0x0 SWAP2 SWAP1 DUP7 AND SWAP1 PUSH1 0x84 ADD PUSH1 0x40 DUP1 MLOAD PUSH1 0x1F NOT DUP2 DUP5 SUB ADD DUP2 MSTORE SWAP2 DUP2 MSTORE PUSH1 0x20 DUP3 ADD DUP1 MLOAD PUSH1 0x1 PUSH1 0x1 PUSH1 0xE0 SHL SUB AND PUSH4 0x23B872DD PUSH1 0xE0 SHL OR SWAP1 MSTORE MLOAD PUSH2 0x2FF4 SWAP2 SWAP1 PUSH2 0x441B JUMP JUMPDEST PUSH1 0x0 PUSH1 0x40 MLOAD DUP1 DUP4 SUB DUP2 PUSH1 0x0 DUP7 GAS CALL SWAP2 POP POP RETURNDATASIZE DUP1 PUSH1 0x0 DUP2 EQ PUSH2 0x3031 JUMPI PUSH1 0x40 MLOAD SWAP2 POP PUSH1 0x1F NOT PUSH1 0x3F RETURNDATASIZE ADD AND DUP3 ADD PUSH1 0x40 MSTORE RETURNDATASIZE DUP3 MSTORE RETURNDATASIZE PUSH1 0x0 PUSH1 0x20 DUP5 ADD RETURNDATACOPY PUSH2 0x3036 JUMP JUMPDEST PUSH1 0x60 SWAP2 POP JUMPDEST POP POP SWAP1 POP DUP1 PUSH2 0x2D45 JUMPI PUSH1 0x40 MLOAD PUSH4 0x1C1EB8A1 PUSH1 0xE3 SHL DUP2 MSTORE PUSH1 0x4 ADD PUSH1 0x40 MLOAD DUP1 SWAP2 SUB SWAP1 REVERT JUMPDEST DUP4 PUSH1 0x1 PUSH1 0x1 PUSH1 0xA0 SHL SUB AND EXTCODESIZE PUSH1 0x0 SUB PUSH2 0x3083 JUMPI PUSH1 0x40 MLOAD PUSH4 0x9EE12D5 PUSH1 0xE0 SHL DUP2 MSTORE PUSH1 0x4 ADD PUSH1 0x40 MLOAD DUP1 SWAP2 SUB SWAP1 REVERT JUMPDEST PUSH1 0x40 MLOAD PUSH1 0x1 PUSH1 0x1 PUSH1 0xA0 SHL SUB DUP5 DUP2 AND PUSH1 0x24 DUP4 ADD MSTORE DUP4 DUP2 AND PUSH1 0x44 DUP4 ADD MSTORE PUSH1 0x64 DUP3 ADD DUP4 SWAP1 MSTORE PUSH1 0x0 SWAP2 DUP3 SWAP2 DUP8 AND SWAP1 PUSH1 0x84 ADD PUSH1 0x40 DUP1 MLOAD PUSH1 0x1F NOT DUP2 DUP5 SUB ADD DUP2 MSTORE SWAP2 DUP2 MSTORE PUSH1 0x20 DUP3 ADD DUP1 MLOAD PUSH1 0x1 PUSH1 0x1 PUSH1 0xE0 SHL SUB AND PUSH4 0x23B872DD PUSH1 0xE0 SHL OR SWAP1 MSTORE MLOAD PUSH2 0x30E5 SWAP2 SWAP1 PUSH2 0x441B JUMP JUMPDEST PUSH1 0x0 PUSH1 0x40 MLOAD DUP1 DUP4 SUB DUP2 PUSH1 0x0 DUP7 GAS CALL SWAP2 POP POP RETURNDATASIZE DUP1 PUSH1 0x0 DUP2 EQ PUSH2 0x3122 JUMPI PUSH1 0x40 MLOAD SWAP2 POP PUSH1 0x1F NOT PUSH1 0x3F RETURNDATASIZE ADD AND DUP3 ADD PUSH1 0x40 MSTORE RETURNDATASIZE DUP3 MSTORE RETURNDATASIZE PUSH1 0x0 PUSH1 0x20 DUP5 ADD RETURNDATACOPY PUSH2 0x3127 JUMP JUMPDEST PUSH1 0x60 SWAP2 POP JUMPDEST POP SWAP2 POP SWAP2 POP DUP2 PUSH2 0x314A JUMPI PUSH1 0x40 MLOAD PUSH4 0xE5605213 PUSH1 0xE0 SHL DUP2 MSTORE PUSH1 0x4 ADD PUSH1 0x40 MLOAD DUP1 SWAP2 SUB SWAP1 REVERT JUMPDEST DUP1 MLOAD ISZERO PUSH2 0x3182 JUMPI DUP1 DUP1 PUSH1 0x20 ADD SWAP1 MLOAD DUP2 ADD SWAP1 PUSH2 0x3165 SWAP2 SWAP1 PUSH2 0x444A JUMP JUMPDEST PUSH2 0x3182 JUMPI PUSH1 0x40 MLOAD PUSH4 0xE5605213 PUSH1 0xE0 SHL DUP2 MSTORE PUSH1 0x4 ADD PUSH1 0x40 MLOAD DUP1 SWAP2 SUB SWAP1 REVERT JUMPDEST POP POP POP POP POP POP JUMP JUMPDEST DUP5 PUSH1 0x1 PUSH1 0x1 PUSH1 0xA0 SHL SUB AND EXTCODESIZE PUSH1 0x0 SUB PUSH2 0x31B5 JUMPI PUSH1 0x40 MLOAD PUSH4 0x9EE12D5 PUSH1 0xE0 SHL DUP2 MSTORE PUSH1 0x4 ADD PUSH1 0x40 MLOAD DUP1 SWAP2 SUB SWAP1 REVERT JUMPDEST PUSH1 0x40 MLOAD PUSH1 0x1 PUSH1 0x1 PUSH1 0xA0 SHL SUB DUP6 DUP2 AND PUSH1 0x24 DUP4 ADD MSTORE DUP5 DUP2 AND PUSH1 0x44 DUP4 ADD MSTORE PUSH1 0x64 DUP3 ADD DUP5 SWAP1 MSTORE PUSH1 0x84 DUP3 ADD DUP4 SWAP1 MSTORE PUSH1 0xA0 PUSH1 0xA4 DUP4 ADD MSTORE PUSH1 0x0 PUSH1 0xC4 DUP4 ADD DUP2 SWAP1 MSTORE SWAP2 SWAP1 DUP8 AND SWAP1 PUSH1 0xE4 ADD PUSH1 0x40 DUP1 MLOAD PUSH1 0x1F NOT DUP2 DUP5 SUB ADD DUP2 MSTORE SWAP2 DUP2 MSTORE PUSH1 0x20 DUP3 ADD DUP1 MLOAD PUSH1 0x1 PUSH1 0x1 PUSH1 0xE0 SHL SUB AND PUSH4 0x79212195 PUSH1 0xE1 SHL OR SWAP1 MSTORE MLOAD PUSH2 0x322B SWAP2 SWAP1 PUSH2 0x441B JUMP JUMPDEST PUSH1 0x0 PUSH1 0x40 MLOAD DUP1 DUP4 SUB DUP2 PUSH1 0x0 DUP7 GAS CALL SWAP2 POP POP RETURNDATASIZE DUP1 PUSH1 0x0 DUP2 EQ PUSH2 0x3268 JUMPI PUSH1 0x40 MLOAD SWAP2 POP PUSH1 0x1F NOT PUSH1 0x3F RETURNDATASIZE ADD AND DUP3 ADD PUSH1 0x40 MSTORE RETURNDATASIZE DUP3 MSTORE RETURNDATASIZE PUSH1 0x0 PUSH1 0x20 DUP5 ADD RETURNDATACOPY PUSH2 0x326D JUMP JUMPDEST PUSH1 0x60 SWAP2 POP JUMPDEST POP POP SWAP1 POP DUP1 PUSH2 0x3182 JUMPI PUSH1 0x40 MLOAD PUSH4 0x17C788F PUSH1 0xE1 SHL DUP2 MSTORE PUSH1 0x4 ADD PUSH1 0x40 MLOAD DUP1 SWAP2 SUB SWAP1 REVERT JUMPDEST CALLVALUE DUP2 GT ISZERO PUSH2 0x32B0 JUMPI PUSH1 0x40 MLOAD PUSH4 0x11FFFF3 PUSH1 0xE7 SHL DUP2 MSTORE PUSH1 0x4 ADD PUSH1 0x40 MLOAD DUP1 SWAP2 SUB SWAP1 REVERT JUMPDEST DUP1 CALLVALUE GT ISZERO PUSH2 0xD03 JUMPI PUSH2 0xD03 PUSH32 0x0 CALLER CALLVALUE DUP5 SWAP1 SUB GAS PUSH2 0x380B JUMP JUMPDEST PUSH1 0x0 DUP2 PUSH1 0x40 ADD MLOAD PUSH1 0x3 DUP2 GT ISZERO PUSH2 0x32FF JUMPI PUSH2 0x32FF PUSH2 0x3C0B JUMP JUMPDEST SUB PUSH2 0x3342 JUMPI DUP1 PUSH1 0xC0 ADD MLOAD PUSH1 0x1 EQ ISZERO DUP1 PUSH2 0x3324 JUMPI POP DUP1 PUSH1 0x0 ADD MLOAD PUSH5 0xFFFFFFFFFF AND PUSH1 0x1 EQ ISZERO JUMPDEST ISZERO PUSH2 0xD03 JUMPI PUSH1 0x40 MLOAD PUSH4 0x2F897177 PUSH1 0xE1 SHL DUP2 MSTORE PUSH1 0x4 ADD PUSH1 0x40 MLOAD DUP1 SWAP2 SUB SWAP1 REVERT JUMPDEST PUSH1 0x3 DUP2 PUSH1 0x40 ADD MLOAD PUSH1 0x3 DUP2 GT ISZERO PUSH2 0x335A JUMPI PUSH2 0x335A PUSH2 0x3C0B JUMP JUMPDEST SUB PUSH2 0x339C JUMPI PUSH1 0x80 DUP2 ADD MLOAD PUSH1 0x1 PUSH1 0x1 PUSH1 0xA0 SHL SUB AND PUSH1 0x0 SWAP1 DUP2 MSTORE PUSH1 0x5 PUSH1 0x20 MSTORE PUSH1 0x40 SWAP1 KECCAK256 SLOAD PUSH1 0xFF AND PUSH2 0x339C JUMPI PUSH1 0x40 MLOAD PUSH4 0x1EB32685 PUSH1 0xE3 SHL DUP2 MSTORE PUSH1 0x4 ADD PUSH1 0x40 MLOAD DUP1 SWAP2 SUB SWAP1 REVERT JUMPDEST PUSH1 0xC0 DUP2 ADD MLOAD ISZERO DUP1 PUSH2 0x3324 JUMPI POP DUP1 MLOAD PUSH5 0xFFFFFFFFFF AND PUSH2 0xD03 JUMPI PUSH1 0x40 MLOAD PUSH4 0x2F897177 PUSH1 0xE1 SHL DUP2 MSTORE PUSH1 0x4 ADD PUSH1 0x40 MLOAD DUP1 SWAP2 SUB SWAP1 REVERT JUMPDEST PUSH1 0x0 JUMPDEST PUSH1 0x5 DUP2 LT ISZERO PUSH2 0x2D86 JUMPI PUSH1 0x0 DUP3 DUP3 PUSH1 0x5 DUP2 LT PUSH2 0x33EE JUMPI PUSH2 0x33EE PUSH2 0x408F JUMP JUMPDEST PUSH1 0x40 MUL ADD DUP1 CALLDATASIZE SUB DUP2 ADD SWAP1 PUSH2 0x3402 SWAP2 SWAP1 PUSH2 0x4467 JUMP JUMPDEST DUP1 MLOAD PUSH1 0x20 DUP3 ADD MLOAD SWAP2 SWAP3 POP SWAP1 PUSH1 0x0 DUP5 SWAP1 SUB PUSH2 0x3456 JUMPI DUP2 PUSH5 0xFFFFFFFFFF AND PUSH1 0x1 EQ ISZERO DUP1 PUSH2 0x3434 JUMPI POP PUSH1 0x1 PUSH1 0x1 PUSH1 0xD0 SHL SUB DUP2 AND ISZERO JUMPDEST ISZERO PUSH2 0x3451 JUMPI PUSH1 0x40 MLOAD PUSH3 0x5CBA97 PUSH1 0xE5 SHL DUP2 MSTORE PUSH1 0x4 ADD PUSH1 0x40 MLOAD DUP1 SWAP2 SUB SWAP1 REVERT JUMPDEST PUSH2 0x353C JUMP JUMPDEST PUSH1 0x0 DUP6 PUSH1 0x0 NOT DUP7 ADD PUSH1 0x5 DUP2 LT PUSH2 0x346E JUMPI PUSH2 0x346E PUSH2 0x408F JUMP JUMPDEST PUSH1 0x40 MUL ADD DUP1 CALLDATASIZE SUB DUP2 ADD SWAP1 PUSH2 0x3482 SWAP2 SWAP1 PUSH2 0x4467 JUMP JUMPDEST PUSH1 0x20 DUP2 ADD MLOAD DUP2 MLOAD SWAP2 SWAP3 POP SWAP1 PUSH2 0x349E PUSH5 0xFFFFFFFFFF DUP7 AND DUP6 PUSH2 0x44CF JUMP JUMPDEST PUSH1 0x1 PUSH1 0x1 PUSH1 0xD0 SHL SUB AND ISZERO ISZERO DUP1 PUSH2 0x34C2 JUMPI POP DUP1 PUSH5 0xFFFFFFFFFF AND DUP6 PUSH5 0xFFFFFFFFFF AND GT ISZERO JUMPDEST DUP1 PUSH2 0x34DF JUMPI POP DUP2 PUSH1 0x1 PUSH1 0x1 PUSH1 0xD0 SHL SUB AND DUP5 PUSH1 0x1 PUSH1 0x1 PUSH1 0xD0 SHL SUB AND GT ISZERO JUMPDEST DUP1 PUSH2 0x351B JUMPI POP PUSH2 0x34F6 PUSH5 0xFFFFFFFFFF DUP3 AND DUP4 PUSH2 0x41C2 JUMP JUMPDEST PUSH1 0x1 PUSH1 0x1 PUSH1 0xD0 SHL SUB AND PUSH2 0x3510 PUSH5 0xFFFFFFFFFF DUP8 AND DUP7 PUSH2 0x41C2 JUMP JUMPDEST PUSH1 0x1 PUSH1 0x1 PUSH1 0xD0 SHL SUB AND GT JUMPDEST ISZERO PUSH2 0x3538 JUMPI PUSH1 0x40 MLOAD PUSH3 0x5CBA97 PUSH1 0xE5 SHL DUP2 MSTORE PUSH1 0x4 ADD PUSH1 0x40 MLOAD DUP1 SWAP2 SUB SWAP1 REVERT JUMPDEST POP POP POP JUMPDEST PUSH1 0x0 DUP7 DUP2 MSTORE PUSH1 0x3 PUSH1 0x20 DUP2 SWAP1 MSTORE PUSH1 0x40 SWAP1 SWAP2 KECCAK256 DUP5 SWAP2 ADD DUP6 PUSH1 0x5 DUP2 LT PUSH2 0x3561 JUMPI PUSH2 0x3561 PUSH2 0x408F JUMP JUMPDEST DUP3 MLOAD SWAP2 ADD DUP1 SLOAD PUSH1 0x20 SWAP1 SWAP4 ADD MLOAD PUSH1 0x1 PUSH1 0x1 PUSH1 0xD0 SHL SUB AND PUSH1 0x1 PUSH1 0x28 SHL MUL PUSH1 0x1 PUSH1 0x1 PUSH1 0xF8 SHL SUB NOT SWAP1 SWAP4 AND PUSH5 0xFFFFFFFFFF SWAP1 SWAP3 AND SWAP2 SWAP1 SWAP2 OR SWAP2 SWAP1 SWAP2 OR SWAP1 SSTORE POP POP POP PUSH1 0x1 ADD PUSH2 0x33D1 JUMP JUMPDEST PUSH1 0x1 PUSH1 0x1 PUSH1 0xA0 SHL SUB DUP2 AND PUSH2 0x35CD JUMPI PUSH1 0x40 MLOAD PUSH4 0x3106A0C7 PUSH1 0xE0 SHL DUP2 MSTORE PUSH1 0x4 ADD PUSH1 0x40 MLOAD DUP1 SWAP2 SUB SWAP1 REVERT JUMPDEST PUSH1 0x7 DUP1 SLOAD PUSH1 0x1 PUSH1 0x1 PUSH1 0xA0 SHL SUB NOT AND PUSH1 0x1 PUSH1 0x1 PUSH1 0xA0 SHL SUB DUP4 AND SWAP1 DUP2 OR SWAP1 SWAP2 SSTORE PUSH1 0x40 MLOAD SWAP1 DUP2 MSTORE PUSH32 0xC1B5345CCE283376356748DC57F2DFA7120431D016FC7CA9BA641BC65F91411D SWAP1 PUSH1 0x20 ADD PUSH2 0x1CA3 JUMP JUMPDEST PUSH2 0x3627 DUP2 DUP4 PUSH1 0x3 PUSH2 0x2ABB JUMP JUMPDEST DUP1 SLOAD PUSH1 0x1 PUSH1 0x1 PUSH1 0xD8 SHL SUB AND PUSH1 0x1 PUSH1 0xD8 SHL TIMESTAMP PUSH5 0xFFFFFFFFFF AND MUL OR DUP2 SSTORE PUSH1 0x40 MLOAD PUSH4 0x5D3B1D3 PUSH1 0xE4 SHL DUP2 MSTORE PUSH32 0x0 PUSH1 0x4 DUP3 ADD MSTORE PUSH1 0x1 PUSH1 0x1 PUSH1 0x40 SHL SUB PUSH32 0x0 AND PUSH1 0x24 DUP3 ADD MSTORE PUSH1 0x3 PUSH1 0x44 DUP3 ADD MSTORE PUSH3 0x7A120 PUSH1 0x64 DUP3 ADD MSTORE PUSH1 0x1 PUSH1 0x84 DUP3 ADD MSTORE PUSH1 0x0 SWAP1 PUSH32 0x0 PUSH1 0x1 PUSH1 0x1 PUSH1 0xA0 SHL SUB AND SWAP1 PUSH4 0x5D3B1D30 SWAP1 PUSH1 0xA4 ADD PUSH1 0x20 PUSH1 0x40 MLOAD DUP1 DUP4 SUB DUP2 PUSH1 0x0 DUP8 GAS CALL ISZERO DUP1 ISZERO PUSH2 0x3712 JUMPI RETURNDATASIZE PUSH1 0x0 DUP1 RETURNDATACOPY RETURNDATASIZE PUSH1 0x0 REVERT JUMPDEST POP POP POP POP PUSH1 0x40 MLOAD RETURNDATASIZE PUSH1 0x1F NOT PUSH1 0x1F DUP3 ADD AND DUP3 ADD DUP1 PUSH1 0x40 MSTORE POP DUP2 ADD SWAP1 PUSH2 0x3736 SWAP2 SWAP1 PUSH2 0x44F5 JUMP JUMPDEST PUSH1 0x0 DUP2 DUP2 MSTORE PUSH1 0x6 PUSH1 0x20 MSTORE PUSH1 0x40 SWAP1 KECCAK256 SLOAD SWAP1 SWAP2 POP PUSH1 0xFF AND ISZERO PUSH2 0x3769 JUMPI PUSH1 0x40 MLOAD PUSH4 0x7C809099 PUSH1 0xE1 SHL DUP2 MSTORE PUSH1 0x4 ADD PUSH1 0x40 MLOAD DUP1 SWAP2 SUB SWAP1 REVERT JUMPDEST PUSH1 0x0 DUP2 DUP2 MSTORE PUSH1 0x6 PUSH1 0x20 SWAP1 DUP2 MSTORE PUSH1 0x40 SWAP2 DUP3 SWAP1 KECCAK256 DUP1 SLOAD PUSH1 0xFF NOT AND PUSH1 0x1 SWAP1 DUP2 OR DUP3 SSTORE ADD DUP6 SWAP1 SSTORE DUP2 MLOAD DUP6 DUP2 MSTORE SWAP1 DUP2 ADD DUP4 SWAP1 MSTORE PUSH32 0x3D94FECEDAA4F90B8BD459797ADB95F5BB11426025C5541390D9CCC1AD1B60A1 SWAP2 ADD PUSH2 0x2B15 JUMP JUMPDEST PUSH1 0x1 SLOAD PUSH1 0x1 PUSH1 0xB0 SHL SWAP1 DIV PUSH1 0xFF AND PUSH2 0xDA6 JUMPI PUSH1 0x40 MLOAD PUSH4 0x6CD60201 PUSH1 0xE0 SHL DUP2 MSTORE PUSH1 0x4 ADD PUSH1 0x40 MLOAD DUP1 SWAP2 SUB SWAP1 REVERT JUMPDEST PUSH1 0x0 PUSH2 0x37F8 PUSH1 0x2 DUP5 DUP5 XOR PUSH2 0x450E JUMP JUMPDEST PUSH2 0x3804 SWAP1 DUP5 DUP5 AND PUSH2 0x4125 JUMP JUMPDEST SWAP4 SWAP3 POP POP POP JUMP JUMPDEST PUSH1 0x0 DUP1 PUSH1 0x0 DUP1 PUSH1 0x0 DUP7 DUP9 DUP8 CALL SWAP1 POP DUP1 PUSH2 0x2D45 JUMPI DUP5 PUSH1 0x1 PUSH1 0x1 PUSH1 0xA0 SHL SUB AND PUSH4 0xD0E30DB0 DUP5 PUSH1 0x40 MLOAD DUP3 PUSH4 0xFFFFFFFF AND PUSH1 0xE0 SHL DUP2 MSTORE PUSH1 0x4 ADD PUSH1 0x0 PUSH1 0x40 MLOAD DUP1 DUP4 SUB DUP2 DUP6 DUP9 DUP1 EXTCODESIZE ISZERO DUP1 ISZERO PUSH2 0x3859 JUMPI PUSH1 0x0 DUP1 REVERT JUMPDEST POP GAS CALL ISZERO DUP1 ISZERO PUSH2 0x386D JUMPI RETURNDATASIZE PUSH1 0x0 DUP1 RETURNDATACOPY RETURNDATASIZE PUSH1 0x0 REVERT JUMPDEST POP POP PUSH1 0x40 MLOAD PUSH4 0xA9059CBB PUSH1 0xE0 SHL DUP2 MSTORE PUSH1 0x1 PUSH1 0x1 PUSH1 0xA0 SHL SUB DUP9 DUP2 AND PUSH1 0x4 DUP4 ADD MSTORE PUSH1 0x24 DUP3 ADD DUP9 SWAP1 MSTORE DUP10 AND SWAP4 POP PUSH4 0xA9059CBB SWAP3 POP PUSH1 0x44 ADD SWAP1 POP PUSH1 0x20 PUSH1 0x40 MLOAD DUP1 DUP4 SUB DUP2 PUSH1 0x0 DUP8 GAS CALL ISZERO DUP1 ISZERO PUSH2 0x38C2 JUMPI RETURNDATASIZE PUSH1 0x0 DUP1 RETURNDATACOPY RETURNDATASIZE PUSH1 0x0 REVERT JUMPDEST POP POP POP POP PUSH1 0x40 MLOAD RETURNDATASIZE PUSH1 0x1F NOT PUSH1 0x1F DUP3 ADD AND DUP3 ADD DUP1 PUSH1 0x40 MSTORE POP DUP2 ADD SWAP1 PUSH2 0x3182 SWAP2 SWAP1 PUSH2 0x444A JUMP JUMPDEST DUP3 PUSH1 0x1 PUSH1 0x1 PUSH1 0xA0 SHL SUB AND EXTCODESIZE PUSH1 0x0 SUB PUSH2 0x3911 JUMPI PUSH1 0x40 MLOAD PUSH4 0x9EE12D5 PUSH1 0xE0 SHL DUP2 MSTORE PUSH1 0x4 ADD PUSH1 0x40 MLOAD DUP1 SWAP2 SUB SWAP1 REVERT JUMPDEST PUSH1 0x40 MLOAD PUSH1 0x1 PUSH1 0x1 PUSH1 0xA0 SHL SUB DUP4 DUP2 AND PUSH1 0x24 DUP4 ADD MSTORE PUSH1 0x44 DUP3 ADD DUP4 SWAP1 MSTORE PUSH1 0x0 SWAP2 DUP3 SWAP2 DUP7 AND SWAP1 PUSH1 0x64 ADD PUSH1 0x40 DUP1 MLOAD PUSH1 0x1F NOT DUP2 DUP5 SUB ADD DUP2 MSTORE SWAP2 DUP2 MSTORE PUSH1 0x20 DUP3 ADD DUP1 MLOAD PUSH1 0x1 PUSH1 0x1 PUSH1 0xE0 SHL SUB AND PUSH4 0xA9059CBB PUSH1 0xE0 SHL OR SWAP1 MSTORE MLOAD PUSH2 0x396B SWAP2 SWAP1 PUSH2 0x441B JUMP JUMPDEST PUSH1 0x0 PUSH1 0x40 MLOAD DUP1 DUP4 SUB DUP2 PUSH1 0x0 DUP7 GAS CALL SWAP2 POP POP RETURNDATASIZE DUP1 PUSH1 0x0 DUP2 EQ PUSH2 0x39A8 JUMPI PUSH1 0x40 MLOAD SWAP2 POP PUSH1 0x1F NOT PUSH1 0x3F RETURNDATASIZE ADD AND DUP3 ADD PUSH1 0x40 MSTORE RETURNDATASIZE DUP3 MSTORE RETURNDATASIZE PUSH1 0x0 PUSH1 0x20 DUP5 ADD RETURNDATACOPY PUSH2 0x39AD JUMP JUMPDEST PUSH1 0x60 SWAP2 POP JUMPDEST POP SWAP2 POP SWAP2 POP DUP2 PUSH2 0x39D0 JUMPI PUSH1 0x40 MLOAD PUSH4 0xF1568F95 PUSH1 0xE0 SHL DUP2 MSTORE PUSH1 0x4 ADD PUSH1 0x40 MLOAD DUP1 SWAP2 SUB SWAP1 REVERT JUMPDEST DUP1 MLOAD ISZERO PUSH2 0x2D45 JUMPI DUP1 DUP1 PUSH1 0x20 ADD SWAP1 MLOAD DUP2 ADD SWAP1 PUSH2 0x39EB SWAP2 SWAP1 PUSH2 0x444A JUMP JUMPDEST PUSH2 0x2D45 JUMPI PUSH1 0x40 MLOAD PUSH4 0xF1568F95 PUSH1 0xE0 SHL DUP2 MSTORE PUSH1 0x4 ADD PUSH1 0x40 MLOAD DUP1 SWAP2 SUB SWAP1 REVERT JUMPDEST PUSH1 0x40 MLOAD DUP1 PUSH1 0xA0 ADD PUSH1 0x40 MSTORE DUP1 PUSH1 0x5 SWAP1 JUMPDEST PUSH1 0x40 DUP1 MLOAD DUP1 DUP3 ADD SWAP1 SWAP2 MSTORE PUSH1 0x0 DUP1 DUP3 MSTORE PUSH1 0x20 DUP3 ADD MSTORE DUP2 MSTORE PUSH1 0x20 ADD SWAP1 PUSH1 0x1 SWAP1 SUB SWAP1 DUP2 PUSH2 0x3A17 JUMPI SWAP1 POP POP SWAP1 JUMP JUMPDEST PUSH1 0x0 DUP1 DUP4 PUSH1 0x1F DUP5 ADD SLT PUSH2 0x3A53 JUMPI PUSH1 0x0 DUP1 REVERT JUMPDEST POP DUP2 CALLDATALOAD PUSH1 0x1 PUSH1 0x1 PUSH1 0x40 SHL SUB DUP2 GT ISZERO PUSH2 0x3A6A JUMPI PUSH1 0x0 DUP1 REVERT JUMPDEST PUSH1 0x20 DUP4 ADD SWAP2 POP DUP4 PUSH1 0x20 DUP3 PUSH1 0x5 SHL DUP6 ADD ADD GT ISZERO PUSH2 0x3A85 JUMPI PUSH1 0x0 DUP1 REVERT JUMPDEST SWAP3 POP SWAP3 SWAP1 POP JUMP JUMPDEST DUP1 ISZERO ISZERO DUP2 EQ PUSH2 0xD03 JUMPI PUSH1 0x0 DUP1 REVERT JUMPDEST PUSH1 0x0 DUP1 PUSH1 0x0 PUSH1 0x40 DUP5 DUP7 SUB SLT ISZERO PUSH2 0x3AAF JUMPI PUSH1 0x0 DUP1 REVERT JUMPDEST DUP4 CALLDATALOAD PUSH1 0x1 PUSH1 0x1 PUSH1 0x40 SHL SUB DUP2 GT ISZERO PUSH2 0x3AC5 JUMPI PUSH1 0x0 DUP1 REVERT JUMPDEST PUSH2 0x3AD1 DUP7 DUP3 DUP8 ADD PUSH2 0x3A41 JUMP JUMPDEST SWAP1 SWAP5 POP SWAP3 POP POP PUSH1 0x20 DUP5 ADD CALLDATALOAD PUSH2 0x3AE5 DUP2 PUSH2 0x3A8C JUMP JUMPDEST DUP1 SWAP2 POP POP SWAP3 POP SWAP3 POP SWAP3 JUMP JUMPDEST PUSH4 0x4E487B71 PUSH1 0xE0 SHL PUSH1 0x0 MSTORE PUSH1 0x41 PUSH1 0x4 MSTORE PUSH1 0x24 PUSH1 0x0 REVERT JUMPDEST PUSH1 0x40 MLOAD PUSH1 0x1F DUP3 ADD PUSH1 0x1F NOT AND DUP2 ADD PUSH1 0x1 PUSH1 0x1 PUSH1 0x40 SHL SUB DUP2 GT DUP3 DUP3 LT OR ISZERO PUSH2 0x3B2E JUMPI PUSH2 0x3B2E PUSH2 0x3AF0 JUMP JUMPDEST PUSH1 0x40 MSTORE SWAP2 SWAP1 POP JUMP JUMPDEST PUSH1 0x0 DUP1 PUSH1 0x40 DUP4 DUP6 SUB SLT ISZERO PUSH2 0x3B49 JUMPI PUSH1 0x0 DUP1 REVERT JUMPDEST DUP3 CALLDATALOAD SWAP2 POP PUSH1 0x20 DUP1 DUP5 ADD CALLDATALOAD PUSH1 0x1 PUSH1 0x1 PUSH1 0x40 SHL SUB DUP1 DUP3 GT ISZERO PUSH2 0x3B68 JUMPI PUSH1 0x0 DUP1 REVERT JUMPDEST DUP2 DUP7 ADD SWAP2 POP DUP7 PUSH1 0x1F DUP4 ADD SLT PUSH2 0x3B7C JUMPI PUSH1 0x0 DUP1 REVERT JUMPDEST DUP2 CALLDATALOAD DUP2 DUP2 GT ISZERO PUSH2 0x3B8E JUMPI PUSH2 0x3B8E PUSH2 0x3AF0 JUMP JUMPDEST DUP1 PUSH1 0x5 SHL SWAP2 POP PUSH2 0x3B9F DUP5 DUP4 ADD PUSH2 0x3B06 JUMP JUMPDEST DUP2 DUP2 MSTORE SWAP2 DUP4 ADD DUP5 ADD SWAP2 DUP5 DUP2 ADD SWAP1 DUP10 DUP5 GT ISZERO PUSH2 0x3BB9 JUMPI PUSH1 0x0 DUP1 REVERT JUMPDEST SWAP4 DUP6 ADD SWAP4 JUMPDEST DUP4 DUP6 LT ISZERO PUSH2 0x3BD7 JUMPI DUP5 CALLDATALOAD DUP3 MSTORE SWAP4 DUP6 ADD SWAP4 SWAP1 DUP6 ADD SWAP1 PUSH2 0x3BBE JUMP JUMPDEST DUP1 SWAP7 POP POP POP POP POP POP POP SWAP3 POP SWAP3 SWAP1 POP JUMP JUMPDEST PUSH1 0x0 PUSH1 0x20 DUP3 DUP5 SUB SLT ISZERO PUSH2 0x3BF9 JUMPI PUSH1 0x0 DUP1 REVERT JUMPDEST DUP2 CALLDATALOAD PUSH2 0xFFFF DUP2 AND DUP2 EQ PUSH2 0x3804 JUMPI PUSH1 0x0 DUP1 REVERT JUMPDEST PUSH4 0x4E487B71 PUSH1 0xE0 SHL PUSH1 0x0 MSTORE PUSH1 0x21 PUSH1 0x4 MSTORE PUSH1 0x24 PUSH1 0x0 REVERT JUMPDEST PUSH1 0x20 DUP2 ADD PUSH1 0x3 DUP4 LT PUSH2 0x3C35 JUMPI PUSH2 0x3C35 PUSH2 0x3C0B JUMP JUMPDEST SWAP2 SWAP1 MSTORE SWAP1 JUMP JUMPDEST PUSH1 0x0 PUSH1 0x20 DUP3 DUP5 SUB SLT ISZERO PUSH2 0x3C4D JUMPI PUSH1 0x0 DUP1 REVERT JUMPDEST POP CALLDATALOAD SWAP2 SWAP1 POP JUMP JUMPDEST PUSH2 0x140 DUP2 ADD DUP2 DUP4 PUSH1 0x0 JUMPDEST PUSH1 0x5 DUP2 LT ISZERO PUSH2 0x3C99 JUMPI DUP2 MLOAD DUP1 MLOAD PUSH5 0xFFFFFFFFFF AND DUP5 MSTORE PUSH1 0x20 SWAP1 DUP2 ADD MLOAD PUSH1 0x1 PUSH1 0x1 PUSH1 0xD0 SHL SUB AND DUP2 DUP6 ADD MSTORE PUSH1 0x40 SWAP1 SWAP4 ADD SWAP3 SWAP1 SWAP2 ADD SWAP1 PUSH1 0x1 ADD PUSH2 0x3C5E JUMP JUMPDEST POP POP POP SWAP3 SWAP2 POP POP JUMP JUMPDEST DUP1 CALLDATALOAD PUSH1 0x1 PUSH1 0x1 PUSH1 0xA0 SHL SUB DUP2 AND DUP2 EQ PUSH2 0x3CB9 JUMPI PUSH1 0x0 DUP1 REVERT JUMPDEST SWAP2 SWAP1 POP JUMP JUMPDEST PUSH1 0x0 PUSH1 0x20 DUP3 DUP5 SUB SLT ISZERO PUSH2 0x3CD0 JUMPI PUSH1 0x0 DUP1 REVERT JUMPDEST PUSH2 0x3804 DUP3 PUSH2 0x3CA2 JUMP JUMPDEST PUSH1 0x9 DUP2 LT PUSH2 0x3CE9 JUMPI PUSH2 0x3CE9 PUSH2 0x3C0B JUMP JUMPDEST SWAP1 MSTORE JUMP JUMPDEST PUSH1 0x1 PUSH1 0x1 PUSH1 0xA0 SHL SUB DUP12 DUP2 AND DUP3 MSTORE PUSH2 0x140 DUP3 ADD SWAP1 PUSH2 0x3D0D PUSH1 0x20 DUP5 ADD DUP14 PUSH2 0x3CD9 JUMP JUMPDEST SWAP10 ISZERO ISZERO PUSH1 0x40 DUP4 ADD MSTORE PUSH5 0xFFFFFFFFFF SWAP9 DUP10 AND PUSH1 0x60 DUP4 ADD MSTORE SWAP7 DUP9 AND PUSH1 0x80 DUP3 ADD MSTORE SWAP5 DUP8 AND PUSH1 0xA0 DUP7 ADD MSTORE SWAP3 SWAP1 SWAP6 AND PUSH1 0xC0 DUP5 ADD MSTORE SWAP1 SWAP5 AND PUSH1 0xE0 DUP3 ADD MSTORE PUSH2 0xFFFF SWAP1 SWAP3 AND PUSH2 0x100 DUP4 ADD MSTORE PUSH1 0x1 PUSH1 0x1 PUSH1 0xD0 SHL SUB SWAP1 SWAP3 AND PUSH2 0x120 SWAP1 SWAP2 ADD MSTORE SWAP3 SWAP2 POP POP JUMP JUMPDEST PUSH1 0x20 DUP1 DUP3 MSTORE DUP3 MLOAD DUP3 DUP3 ADD DUP2 SWAP1 MSTORE PUSH1 0x0 SWAP2 SWAP1 PUSH1 0x40 SWAP1 DUP2 DUP6 ADD SWAP1 DUP7 DUP5 ADD DUP6 JUMPDEST DUP3 DUP2 LT ISZERO PUSH2 0x3DD4 JUMPI DUP2 MLOAD DUP1 MLOAD PUSH1 0x1 PUSH1 0x1 PUSH1 0xA0 SHL SUB AND DUP6 MSTORE DUP7 DUP2 ADD MLOAD ISZERO ISZERO DUP8 DUP7 ADD MSTORE DUP6 DUP2 ADD MLOAD PUSH1 0xFF AND DUP7 DUP7 ADD MSTORE PUSH1 0x60 SWAP1 DUP2 ADD MLOAD PUSH5 0xFFFFFFFFFF AND SWAP1 DUP6 ADD MSTORE PUSH1 0x80 SWAP1 SWAP4 ADD SWAP3 SWAP1 DUP6 ADD SWAP1 PUSH1 0x1 ADD PUSH2 0x3D85 JUMP JUMPDEST POP SWAP2 SWAP8 SWAP7 POP POP POP POP POP POP POP JUMP JUMPDEST PUSH1 0x0 DUP1 PUSH1 0x20 DUP4 DUP6 SUB SLT ISZERO PUSH2 0x3DF4 JUMPI PUSH1 0x0 DUP1 REVERT JUMPDEST DUP3 CALLDATALOAD PUSH1 0x1 PUSH1 0x1 PUSH1 0x40 SHL SUB DUP2 GT ISZERO PUSH2 0x3E0A JUMPI PUSH1 0x0 DUP1 REVERT JUMPDEST PUSH2 0x3E16 DUP6 DUP3 DUP7 ADD PUSH2 0x3A41 JUMP JUMPDEST SWAP1 SWAP7 SWAP1 SWAP6 POP SWAP4 POP POP POP POP JUMP JUMPDEST PUSH1 0x0 DUP1 PUSH1 0x40 DUP4 DUP6 SUB SLT ISZERO PUSH2 0x3E35 JUMPI PUSH1 0x0 DUP1 REVERT JUMPDEST DUP3 CALLDATALOAD SWAP2 POP PUSH2 0x3E45 PUSH1 0x20 DUP5 ADD PUSH2 0x3CA2 JUMP JUMPDEST SWAP1 POP SWAP3 POP SWAP3 SWAP1 POP JUMP JUMPDEST PUSH1 0x20 DUP1 DUP3 MSTORE DUP3 MLOAD DUP3 DUP3 ADD DUP2 SWAP1 MSTORE PUSH1 0x0 SWAP2 SWAP1 PUSH1 0x40 SWAP1 DUP2 DUP6 ADD SWAP1 DUP7 DUP5 ADD DUP6 JUMPDEST DUP3 DUP2 LT ISZERO PUSH2 0x3DD4 JUMPI DUP2 MLOAD DUP1 MLOAD PUSH5 0xFFFFFFFFFF SWAP1 DUP2 AND DUP7 MSTORE DUP8 DUP3 ADD MLOAD AND DUP8 DUP7 ADD MSTORE DUP6 DUP2 ADD MLOAD PUSH1 0x4 DUP2 LT PUSH2 0x3E9F JUMPI PUSH2 0x3E9F PUSH2 0x3C0B JUMP JUMPDEST DUP6 DUP8 ADD MSTORE PUSH1 0x60 DUP2 DUP2 ADD MLOAD PUSH1 0xFF AND SWAP1 DUP7 ADD MSTORE PUSH1 0x80 DUP1 DUP3 ADD MLOAD PUSH1 0x1 PUSH1 0x1 PUSH1 0xA0 SHL SUB AND SWAP1 DUP7 ADD MSTORE PUSH1 0xA0 DUP1 DUP3 ADD MLOAD SWAP1 DUP7 ADD MSTORE PUSH1 0xC0 SWAP1 DUP2 ADD MLOAD SWAP1 DUP6 ADD MSTORE PUSH1 0xE0 SWAP1 SWAP4 ADD SWAP3 SWAP1 DUP6 ADD SWAP1 PUSH1 0x1 ADD PUSH2 0x3E6B JUMP JUMPDEST PUSH1 0x20 DUP1 DUP3 MSTORE DUP3 MLOAD DUP3 DUP3 ADD DUP2 SWAP1 MSTORE PUSH1 0x0 SWAP2 SWAP1 PUSH1 0x40 SWAP1 DUP2 DUP6 ADD SWAP1 DUP7 DUP5 ADD DUP6 JUMPDEST DUP3 DUP2 LT ISZERO PUSH2 0x3DD4 JUMPI DUP2 MLOAD DUP1 MLOAD PUSH5 0xFFFFFFFFFF AND DUP6 MSTORE DUP7 ADD MLOAD PUSH1 0x1 PUSH1 0x1 PUSH1 0xA0 SHL SUB AND DUP7 DUP6 ADD MSTORE SWAP3 DUP5 ADD SWAP3 SWAP1 DUP6 ADD SWAP1 PUSH1 0x1 ADD PUSH2 0x3F06 JUMP JUMPDEST PUSH1 0x0 PUSH1 0x20 DUP3 DUP5 SUB SLT ISZERO PUSH2 0x3F4D JUMPI PUSH1 0x0 DUP1 REVERT JUMPDEST DUP2 CALLDATALOAD PUSH1 0x1 PUSH1 0x1 PUSH1 0x40 SHL SUB DUP2 GT ISZERO PUSH2 0x3F63 JUMPI PUSH1 0x0 DUP1 REVERT JUMPDEST DUP3 ADD PUSH2 0x220 DUP2 DUP6 SUB SLT ISZERO PUSH2 0x3804 JUMPI PUSH1 0x0 DUP1 REVERT JUMPDEST PUSH1 0x0 DUP1 PUSH1 0x0 DUP1 PUSH1 0x0 DUP1 PUSH1 0xA0 DUP8 DUP10 SUB SLT ISZERO PUSH2 0x3F8F JUMPI PUSH1 0x0 DUP1 REVERT JUMPDEST PUSH2 0x3F98 DUP8 PUSH2 0x3CA2 JUMP JUMPDEST SWAP6 POP PUSH2 0x3FA6 PUSH1 0x20 DUP9 ADD PUSH2 0x3CA2 JUMP JUMPDEST SWAP5 POP PUSH1 0x40 DUP8 ADD CALLDATALOAD SWAP4 POP PUSH1 0x60 DUP8 ADD CALLDATALOAD SWAP3 POP PUSH1 0x80 DUP8 ADD CALLDATALOAD PUSH1 0x1 PUSH1 0x1 PUSH1 0x40 SHL SUB DUP1 DUP3 GT ISZERO PUSH2 0x3FD0 JUMPI PUSH1 0x0 DUP1 REVERT JUMPDEST DUP2 DUP10 ADD SWAP2 POP DUP10 PUSH1 0x1F DUP4 ADD SLT PUSH2 0x3FE4 JUMPI PUSH1 0x0 DUP1 REVERT JUMPDEST DUP2 CALLDATALOAD DUP2 DUP2 GT ISZERO PUSH2 0x3FF3 JUMPI PUSH1 0x0 DUP1 REVERT JUMPDEST DUP11 PUSH1 0x20 DUP3 DUP6 ADD ADD GT ISZERO PUSH2 0x4005 JUMPI PUSH1 0x0 DUP1 REVERT JUMPDEST PUSH1 0x20 DUP4 ADD SWAP5 POP DUP1 SWAP4 POP POP POP POP SWAP3 SWAP6 POP SWAP3 SWAP6 POP SWAP3 SWAP6 JUMP JUMPDEST PUSH1 0x0 DUP1 PUSH1 0x20 DUP4 DUP6 SUB SLT ISZERO PUSH2 0x402E JUMPI PUSH1 0x0 DUP1 REVERT JUMPDEST DUP3 CALLDATALOAD PUSH1 0x1 PUSH1 0x1 PUSH1 0x40 SHL SUB DUP1 DUP3 GT ISZERO PUSH2 0x4045 JUMPI PUSH1 0x0 DUP1 REVERT JUMPDEST DUP2 DUP6 ADD SWAP2 POP DUP6 PUSH1 0x1F DUP4 ADD SLT PUSH2 0x4059 JUMPI PUSH1 0x0 DUP1 REVERT JUMPDEST DUP2 CALLDATALOAD DUP2 DUP2 GT ISZERO PUSH2 0x4068 JUMPI PUSH1 0x0 DUP1 REVERT JUMPDEST DUP7 PUSH1 0x20 DUP3 PUSH1 0x6 SHL DUP6 ADD ADD GT ISZERO PUSH2 0x407D JUMPI PUSH1 0x0 DUP1 REVERT JUMPDEST PUSH1 0x20 SWAP3 SWAP1 SWAP3 ADD SWAP7 SWAP2 SWAP6 POP SWAP1 SWAP4 POP POP POP POP JUMP JUMPDEST PUSH4 0x4E487B71 PUSH1 0xE0 SHL PUSH1 0x0 MSTORE PUSH1 0x32 PUSH1 0x4 MSTORE PUSH1 0x24 PUSH1 0x0 REVERT JUMPDEST PUSH1 0x40 DUP1 DUP3 MSTORE DUP2 ADD DUP4 SWAP1 MSTORE PUSH1 0x0 DUP5 PUSH1 0x60 DUP4 ADD DUP3 JUMPDEST DUP7 DUP2 LT ISZERO PUSH2 0x40E6 JUMPI PUSH1 0x1 PUSH1 0x1 PUSH1 0xA0 SHL SUB PUSH2 0x40D1 DUP5 PUSH2 0x3CA2 JUMP JUMPDEST AND DUP3 MSTORE PUSH1 0x20 SWAP3 DUP4 ADD SWAP3 SWAP1 SWAP2 ADD SWAP1 PUSH1 0x1 ADD PUSH2 0x40B8 JUMP JUMPDEST POP DUP1 SWAP3 POP POP POP DUP3 ISZERO ISZERO PUSH1 0x20 DUP4 ADD MSTORE SWAP5 SWAP4 POP POP POP POP JUMP JUMPDEST PUSH4 0x4E487B71 PUSH1 0xE0 SHL PUSH1 0x0 MSTORE PUSH1 0x11 PUSH1 0x4 MSTORE PUSH1 0x24 PUSH1 0x0 REVERT JUMPDEST DUP2 DUP2 SUB DUP2 DUP2 GT ISZERO PUSH2 0x2C7B JUMPI PUSH2 0x2C7B PUSH2 0x40FC JUMP JUMPDEST DUP1 DUP3 ADD DUP1 DUP3 GT ISZERO PUSH2 0x2C7B JUMPI PUSH2 0x2C7B PUSH2 0x40FC JUMP JUMPDEST PUSH4 0x4E487B71 PUSH1 0xE0 SHL PUSH1 0x0 MSTORE PUSH1 0x12 PUSH1 0x4 MSTORE PUSH1 0x24 PUSH1 0x0 REVERT JUMPDEST PUSH1 0x0 DUP3 PUSH2 0x415D JUMPI PUSH2 0x415D PUSH2 0x4138 JUMP JUMPDEST POP MOD SWAP1 JUMP JUMPDEST PUSH1 0x0 DUP3 CALLDATALOAD PUSH1 0x3E NOT DUP4 CALLDATASIZE SUB ADD DUP2 SLT PUSH2 0x4178 JUMPI PUSH1 0x0 DUP1 REVERT JUMPDEST SWAP2 SWAP1 SWAP2 ADD SWAP3 SWAP2 POP POP JUMP JUMPDEST DUP1 DUP3 MUL DUP2 ISZERO DUP3 DUP3 DIV DUP5 EQ OR PUSH2 0x2C7B JUMPI PUSH2 0x2C7B PUSH2 0x40FC JUMP JUMPDEST PUSH1 0x1 PUSH1 0x1 PUSH1 0xD0 SHL SUB DUP3 DUP2 AND DUP3 DUP3 AND DUP2 DUP2 MUL DUP4 AND SWAP3 SWAP2 DUP2 ISZERO DUP3 DUP6 DIV DUP3 EQ OR PUSH2 0x3C99 JUMPI PUSH2 0x3C99 PUSH2 0x40FC JUMP JUMPDEST PUSH1 0x0 PUSH1 0x1 PUSH1 0x1 PUSH1 0xD0 SHL SUB DUP4 DUP2 AND DUP1 PUSH2 0x41DC JUMPI PUSH2 0x41DC PUSH2 0x4138 JUMP JUMPDEST SWAP3 AND SWAP2 SWAP1 SWAP2 DIV SWAP3 SWAP2 POP POP JUMP JUMPDEST DUP1 CALLDATALOAD PUSH5 0xFFFFFFFFFF DUP2 AND DUP2 EQ PUSH2 0x3CB9 JUMPI PUSH1 0x0 DUP1 REVERT JUMPDEST PUSH1 0x0 PUSH1 0x20 DUP3 DUP5 SUB SLT ISZERO PUSH2 0x420F JUMPI PUSH1 0x0 DUP1 REVERT JUMPDEST PUSH2 0x3804 DUP3 PUSH2 0x41E8 JUMP JUMPDEST PUSH1 0x0 DUP1 DUP4 CALLDATALOAD PUSH1 0x1E NOT DUP5 CALLDATASIZE SUB ADD DUP2 SLT PUSH2 0x422F JUMPI PUSH1 0x0 DUP1 REVERT JUMPDEST DUP4 ADD DUP1 CALLDATALOAD SWAP2 POP PUSH1 0x1 PUSH1 0x1 PUSH1 0x40 SHL SUB DUP3 GT ISZERO PUSH2 0x4249 JUMPI PUSH1 0x0 DUP1 REVERT JUMPDEST PUSH1 0x20 ADD SWAP2 POP PUSH1 0xE0 DUP2 MUL CALLDATASIZE SUB DUP3 SGT ISZERO PUSH2 0x3A85 JUMPI PUSH1 0x0 DUP1 REVERT JUMPDEST DUP1 CALLDATALOAD PUSH1 0xFF DUP2 AND DUP2 EQ PUSH2 0x3CB9 JUMPI PUSH1 0x0 DUP1 REVERT JUMPDEST PUSH1 0x0 PUSH1 0xE0 DUP3 DUP5 SUB SLT ISZERO PUSH2 0x4283 JUMPI PUSH1 0x0 DUP1 REVERT JUMPDEST PUSH1 0x40 MLOAD PUSH1 0xE0 DUP2 ADD DUP2 DUP2 LT PUSH1 0x1 PUSH1 0x1 PUSH1 0x40 SHL SUB DUP3 GT OR ISZERO PUSH2 0x42A5 JUMPI PUSH2 0x42A5 PUSH2 0x3AF0 JUMP JUMPDEST PUSH1 0x40 MSTORE PUSH2 0x42B1 DUP4 PUSH2 0x41E8 JUMP JUMPDEST DUP2 MSTORE PUSH2 0x42BF PUSH1 0x20 DUP5 ADD PUSH2 0x41E8 JUMP JUMPDEST PUSH1 0x20 DUP3 ADD MSTORE PUSH1 0x40 DUP4 ADD CALLDATALOAD PUSH1 0x4 DUP2 LT PUSH2 0x42D6 JUMPI PUSH1 0x0 DUP1 REVERT JUMPDEST PUSH1 0x40 DUP3 ADD MSTORE PUSH2 0x42E7 PUSH1 0x60 DUP5 ADD PUSH2 0x4260 JUMP JUMPDEST PUSH1 0x60 DUP3 ADD MSTORE PUSH2 0x42F8 PUSH1 0x80 DUP5 ADD PUSH2 0x3CA2 JUMP JUMPDEST PUSH1 0x80 DUP3 ADD MSTORE PUSH1 0xA0 DUP4 ADD CALLDATALOAD PUSH1 0xA0 DUP3 ADD MSTORE PUSH1 0xC0 DUP4 ADD CALLDATALOAD PUSH1 0xC0 DUP3 ADD MSTORE DUP1 SWAP2 POP POP SWAP3 SWAP2 POP POP JUMP JUMPDEST PUSH5 0xFFFFFFFFFF DUP2 DUP2 AND DUP4 DUP3 AND ADD SWAP1 DUP1 DUP3 GT ISZERO PUSH2 0x4339 JUMPI PUSH2 0x4339 PUSH2 0x40FC JUMP JUMPDEST POP SWAP3 SWAP2 POP POP JUMP JUMPDEST PUSH1 0x0 PUSH1 0x20 DUP3 DUP5 SUB SLT ISZERO PUSH2 0x4352 JUMPI PUSH1 0x0 DUP1 REVERT JUMPDEST DUP2 CALLDATALOAD PUSH2 0x3804 DUP2 PUSH2 0x3A8C JUMP JUMPDEST PUSH1 0x1 PUSH1 0x1 PUSH1 0xD0 SHL SUB DUP2 DUP2 AND DUP4 DUP3 AND ADD SWAP1 DUP1 DUP3 GT ISZERO PUSH2 0x4339 JUMPI PUSH2 0x4339 PUSH2 0x40FC JUMP JUMPDEST DUP3 DUP2 MSTORE PUSH1 0x40 DUP2 ADD PUSH2 0x3804 PUSH1 0x20 DUP4 ADD DUP5 PUSH2 0x3CD9 JUMP JUMPDEST PUSH1 0x0 DUP1 DUP4 CALLDATALOAD PUSH1 0x1E NOT DUP5 CALLDATASIZE SUB ADD DUP2 SLT PUSH2 0x43A8 JUMPI PUSH1 0x0 DUP1 REVERT JUMPDEST DUP4 ADD DUP1 CALLDATALOAD SWAP2 POP PUSH1 0x1 PUSH1 0x1 PUSH1 0x40 SHL SUB DUP3 GT ISZERO PUSH2 0x43C2 JUMPI PUSH1 0x0 DUP1 REVERT JUMPDEST PUSH1 0x20 ADD SWAP2 POP PUSH1 0x5 DUP2 SWAP1 SHL CALLDATASIZE SUB DUP3 SGT ISZERO PUSH2 0x3A85 JUMPI PUSH1 0x0 DUP1 REVERT JUMPDEST DUP4 DUP2 MSTORE PUSH1 0x40 PUSH1 0x20 DUP3 ADD DUP2 SWAP1 MSTORE DUP2 ADD DUP3 SWAP1 MSTORE PUSH1 0x0 PUSH1 0x1 PUSH1 0x1 PUSH1 0xFB SHL SUB DUP4 GT ISZERO PUSH2 0x4401 JUMPI PUSH1 0x0 DUP1 REVERT JUMPDEST DUP3 PUSH1 0x5 SHL DUP1 DUP6 PUSH1 0x60 DUP6 ADD CALLDATACOPY SWAP2 SWAP1 SWAP2 ADD PUSH1 0x60 ADD SWAP5 SWAP4 POP POP POP POP JUMP JUMPDEST PUSH1 0x0 DUP3 MLOAD PUSH1 0x0 JUMPDEST DUP2 DUP2 LT ISZERO PUSH2 0x443C JUMPI PUSH1 0x20 DUP2 DUP7 ADD DUP2 ADD MLOAD DUP6 DUP4 ADD MSTORE ADD PUSH2 0x4422 JUMP JUMPDEST POP PUSH1 0x0 SWAP3 ADD SWAP2 DUP3 MSTORE POP SWAP2 SWAP1 POP JUMP JUMPDEST PUSH1 0x0 PUSH1 0x20 DUP3 DUP5 SUB SLT ISZERO PUSH2 0x445C JUMPI PUSH1 0x0 DUP1 REVERT JUMPDEST DUP2 MLOAD PUSH2 0x3804 DUP2 PUSH2 0x3A8C JUMP JUMPDEST PUSH1 0x0 PUSH1 0x40 DUP3 DUP5 SUB SLT ISZERO PUSH2 0x4479 JUMPI PUSH1 0x0 DUP1 REVERT JUMPDEST PUSH1 0x40 MLOAD PUSH1 0x40 DUP2 ADD DUP2 DUP2 LT PUSH1 0x1 PUSH1 0x1 PUSH1 0x40 SHL SUB DUP3 GT OR ISZERO PUSH2 0x449B JUMPI PUSH2 0x449B PUSH2 0x3AF0 JUMP JUMPDEST PUSH1 0x40 MSTORE PUSH2 0x44A7 DUP4 PUSH2 0x41E8 JUMP JUMPDEST DUP2 MSTORE PUSH1 0x20 DUP4 ADD CALLDATALOAD PUSH1 0x1 PUSH1 0x1 PUSH1 0xD0 SHL SUB DUP2 AND DUP2 EQ PUSH2 0x44C3 JUMPI PUSH1 0x0 DUP1 REVERT JUMPDEST PUSH1 0x20 DUP3 ADD MSTORE SWAP4 SWAP3 POP POP POP JUMP JUMPDEST PUSH1 0x0 PUSH1 0x1 PUSH1 0x1 PUSH1 0xD0 SHL SUB DUP4 DUP2 AND DUP1 PUSH2 0x44E9 JUMPI PUSH2 0x44E9 PUSH2 0x4138 JUMP JUMPDEST SWAP3 AND SWAP2 SWAP1 SWAP2 MOD SWAP3 SWAP2 POP POP JUMP JUMPDEST PUSH1 0x0 PUSH1 0x20 DUP3 DUP5 SUB SLT ISZERO PUSH2 0x4507 JUMPI PUSH1 0x0 DUP1 REVERT JUMPDEST POP MLOAD SWAP2 SWAP1 POP JUMP JUMPDEST PUSH1 0x0 DUP3 PUSH2 0x451D JUMPI PUSH2 0x451D PUSH2 0x4138 JUMP JUMPDEST POP DIV SWAP1 JUMP INVALID LOG2 PUSH5 0x6970667358 0x22 SLT KECCAK256 RETURNDATASIZE CHAINID SMOD 0xF8 MULMOD PUSH21 0xE4FAFE58C93B82A2FD8DB27711E28228BDF8EF4435 CALLDATACOPY PUSH25 0x8B96ED64736F6C634300081100330000000000000000000000 "
		},
		"gasEstimates": {
			"creation": {
				"codeDepositCost": "3550400",
				"executionCost": "infinite",
				"totalCost": "infinite"
			},
			"external": {
				"KEY_HASH()": "infinite",
				"MAXIMUM_NUMBER_OF_PRIZES_PER_RAFFLE()": "241",
				"MAXIMUM_NUMBER_OF_WINNERS_PER_RAFFLE()": "338",
				"MAXIMUM_PROTOCOL_FEE_BP()": "294",
				"ONE_DAY()": "306",
				"ONE_HUNDRED_PERCENT_BP()": "263",
				"ONE_WEEK()": "350",
				"PRICING_OPTIONS_PER_RAFFLE()": "285",
				"REQUEST_CONFIRMATIONS()": "272",
				"SUBSCRIPTION_ID()": "infinite",
				"VRF_COORDINATOR()": "infinite",
				"WETH()": "infinite",
				"cancel(uint256)": "83314",
				"cancelAfterRandomnessRequest(uint256)": "83390",
				"cancelOwnershipTransfer()": "53891",
				"claimFees(uint256)": "infinite",
				"claimPrizes((uint256,uint256[])[])": "infinite",
				"claimProtocolFees(address)": "infinite",
				"claimRefund(uint256[])": "infinite",
				"confirmOwnershipRenouncement()": "54148",
				"confirmOwnershipTransfer()": "54044",
				"createRaffle((uint40,bool,uint40,uint40,uint16,address,(uint40,uint40,uint8,uint8,address,uint256,uint256)[],(uint40,uint208)[5]))": "infinite",
				"depositPrizes(uint256)": "infinite",
				"enterRaffles((uint256,uint256)[])": "infinite",
				"getEntries(uint256)": "infinite",
				"getPricingOptions(uint256)": "infinite",
				"getPrizes(uint256)": "infinite",
				"getWinners(uint256)": "infinite",
				"initiateOwnershipRenouncement()": "29596",
				"initiateOwnershipTransfer(address)": "30410",
				"isCurrencyAllowed(address)": "2621",
				"onERC1155Received(address,address,uint256,uint256,bytes)": "infinite",
				"owner()": "2470",
				"ownershipStatus()": "2414",
				"paused()": "2388",
				"potentialOwner()": "2404",
				"protocolFeeBp()": "2375",
				"protocolFeeRecipient()": "2470",
				"protocolFeeRecipientClaimableFees(address)": "2587",
				"raffles(uint256)": "7408",
				"rafflesCount()": "2407",
				"rafflesParticipantsStats(uint256,address)": "2829",
				"randomnessRequests(uint256)": "4749",
				"rawFulfillRandomWords(uint256,uint256[])": "infinite",
				"selectWinners(uint256)": "infinite",
				"setProtocolFeeBp(uint16)": "27976",
				"setProtocolFeeRecipient(address)": "27930",
				"togglePaused()": "infinite",
				"updateCurrenciesStatus(address[],bool)": "infinite",
				"withdrawPrizes(uint256)": "infinite"
			},
			"internal": {
				"_claimPrizesPerRaffle(struct IRaffle.ClaimPrizesCalldata calldata)": "infinite",
				"_drawWinners(uint256,struct IRaffle.Raffle storage pointer)": "infinite",
				"_setProtocolFeeBp(uint16)": "infinite",
				"_setProtocolFeeRecipient(address)": "infinite",
				"_setRaffleStatus(struct IRaffle.Raffle storage pointer,uint256,enum IRaffle.RaffleStatus)": "infinite",
				"_transferFungibleTokens(address,address,uint256)": "infinite",
				"_transferPrize(struct IRaffle.Prize storage pointer,address,uint256)": "infinite",
				"_unsafeAdd(uint256,uint256)": "infinite",
				"_unsafeSubtract(uint256,uint256)": "infinite",
				"_validateAndSetPricingOptions(uint256,struct IRaffle.PricingOption calldata[5] calldata)": "infinite",
				"_validateCaller(address)": "infinite",
				"_validateExpectedEthValueOrRefund(uint256)": "infinite",
				"_validatePrize(struct IRaffle.Prize memory)": "infinite",
				"_validateRaffleStatus(struct IRaffle.Raffle storage pointer,enum IRaffle.RaffleStatus)": "infinite",
				"fulfillRandomWords(uint256,uint256[] memory)": "infinite"
			}
		},
		"methodIdentifiers": {
			"KEY_HASH()": "51dc86a5",
			"MAXIMUM_NUMBER_OF_PRIZES_PER_RAFFLE()": "65d697f7",
			"MAXIMUM_NUMBER_OF_WINNERS_PER_RAFFLE()": "3b6cb153",
			"MAXIMUM_PROTOCOL_FEE_BP()": "49890e15",
			"ONE_DAY()": "863e76db",
			"ONE_HUNDRED_PERCENT_BP()": "5708b502",
			"ONE_WEEK()": "8e6f6b77",
			"PRICING_OPTIONS_PER_RAFFLE()": "68986912",
			"REQUEST_CONFIRMATIONS()": "67f082b0",
			"SUBSCRIPTION_ID()": "030932bb",
			"VRF_COORDINATOR()": "05f6a924",
			"WETH()": "ad5c4648",
			"cancel(uint256)": "40e58ee5",
			"cancelAfterRandomnessRequest(uint256)": "a72844ba",
			"cancelOwnershipTransfer()": "23452b9c",
			"claimFees(uint256)": "ac68a748",
			"claimPrizes((uint256,uint256[])[])": "6f30d7b5",
			"claimProtocolFees(address)": "69ce6d47",
			"claimRefund(uint256[])": "f54a6f83",
			"confirmOwnershipRenouncement()": "3e567539",
			"confirmOwnershipTransfer()": "7200b829",
			"createRaffle((uint40,bool,uint40,uint40,uint16,address,(uint40,uint40,uint8,uint8,address,uint256,uint256)[],(uint40,uint208)[5]))": "d49a5630",
			"depositPrizes(uint256)": "82d6848c",
			"enterRaffles((uint256,uint256)[])": "f42df132",
			"getEntries(uint256)": "d3549ebd",
			"getPricingOptions(uint256)": "31fe74a9",
			"getPrizes(uint256)": "cc307795",
			"getWinners(uint256)": "6b1426a4",
			"initiateOwnershipRenouncement()": "5b6ac011",
			"initiateOwnershipTransfer(address)": "c0b6f561",
			"isCurrencyAllowed(address)": "5a195d19",
			"onERC1155Received(address,address,uint256,uint256,bytes)": "f23a6e61",
			"owner()": "8da5cb5b",
			"ownershipStatus()": "2bb5a9e6",
			"paused()": "5c975abb",
			"potentialOwner()": "7762df25",
			"protocolFeeBp()": "98753c46",
			"protocolFeeRecipient()": "64df049e",
			"protocolFeeRecipientClaimableFees(address)": "436313b2",
			"raffles(uint256)": "5d4bc0ce",
			"rafflesCount()": "4d2c53cd",
			"rafflesParticipantsStats(uint256,address)": "a17be154",
			"randomnessRequests(uint256)": "5cb6dfff",
			"rawFulfillRandomWords(uint256,uint256[])": "1fe543e3",
			"selectWinners(uint256)": "39a2eb2a",
			"setProtocolFeeBp(uint16)": "2a6a4eb8",
			"setProtocolFeeRecipient(address)": "e521cb92",
			"togglePaused()": "36566f06",
			"updateCurrenciesStatus(address[],bool)": "1e9f1a82",
			"withdrawPrizes(uint256)": "534fff0e"
		}
	},
	"abi": [
		{
			"inputs": [
				{
					"internalType": "address",
					"name": "_weth",
					"type": "address"
				},
				{
					"internalType": "bytes32",
					"name": "_keyHash",
					"type": "bytes32"
				},
				{
					"internalType": "uint64",
					"name": "_subscriptionId",
					"type": "uint64"
				},
				{
					"internalType": "address",
					"name": "_vrfCoordinator",
					"type": "address"
				},
				{
					"internalType": "address",
					"name": "_owner",
					"type": "address"
				},
				{
					"internalType": "address",
					"name": "_protocolFeeRecipient",
					"type": "address"
				},
				{
					"internalType": "uint16",
					"name": "_protocolFeeBp",
					"type": "uint16"
				}
			],
			"stateMutability": "nonpayable",
			"type": "constructor"
		},
		{
			"inputs": [],
			"name": "AlreadyRefunded",
			"type": "error"
		},
		{
			"inputs": [],
			"name": "CutoffTimeNotReached",
			"type": "error"
		},
		{
			"inputs": [],
			"name": "CutoffTimeReached",
			"type": "error"
		},
		{
			"inputs": [],
			"name": "DrawExpirationTimeNotReached",
			"type": "error"
		},
		{
			"inputs": [],
			"name": "ERC1155SafeTransferFromFail",
			"type": "error"
		},
		{
			"inputs": [],
			"name": "ERC20TransferFail",
			"type": "error"
		},
		{
			"inputs": [],
			"name": "ERC20TransferFromFail",
			"type": "error"
		},
		{
			"inputs": [],
			"name": "ERC721TransferFromFail",
			"type": "error"
		},
		{
			"inputs": [],
			"name": "InsufficientNativeTokensSupplied",
			"type": "error"
		},
		{
			"inputs": [],
			"name": "InvalidCaller",
			"type": "error"
		},
		{
			"inputs": [],
			"name": "InvalidCurrency",
			"type": "error"
		},
		{
			"inputs": [],
			"name": "InvalidCutoffTime",
			"type": "error"
		},
		{
			"inputs": [],
			"name": "InvalidIndex",
			"type": "error"
		},
		{
			"inputs": [],
			"name": "InvalidPricingOption",
			"type": "error"
		},
		{
			"inputs": [],
			"name": "InvalidPrize",
			"type": "error"
		},
		{
			"inputs": [],
			"name": "InvalidPrizesCount",
			"type": "error"
		},
		{
			"inputs": [],
			"name": "InvalidProtocolFeeBp",
			"type": "error"
		},
		{
			"inputs": [],
			"name": "InvalidProtocolFeeRecipient",
			"type": "error"
		},
		{
			"inputs": [],
			"name": "InvalidStatus",
			"type": "error"
		},
		{
			"inputs": [],
			"name": "InvalidWinnersCount",
			"type": "error"
		},
		{
			"inputs": [],
			"name": "IsPaused",
			"type": "error"
		},
		{
			"inputs": [],
			"name": "MaximumEntriesPerParticipantReached",
			"type": "error"
		},
		{
			"inputs": [],
			"name": "MaximumEntriesReached",
			"type": "error"
		},
		{
			"inputs": [],
			"name": "NoOngoingTransferInProgress",
			"type": "error"
		},
		{
			"inputs": [],
			"name": "NotAContract",
			"type": "error"
		},
		{
			"inputs": [],
			"name": "NotOwner",
			"type": "error"
		},
		{
			"inputs": [],
			"name": "NotPaused",
			"type": "error"
		},
		{
			"inputs": [
				{
					"internalType": "address",
					"name": "have",
					"type": "address"
				},
				{
					"internalType": "address",
					"name": "want",
					"type": "address"
				}
			],
			"name": "OnlyCoordinatorCanFulfill",
			"type": "error"
		},
		{
			"inputs": [],
			"name": "PrizeAlreadyClaimed",
			"type": "error"
		},
		{
			"inputs": [],
			"name": "RandomnessRequestAlreadyExists",
			"type": "error"
		},
		{
			"inputs": [],
			"name": "RandomnessRequestDoesNotExist",
			"type": "error"
		},
		{
			"inputs": [],
			"name": "ReentrancyFail",
			"type": "error"
		},
		{
			"inputs": [],
			"name": "RenouncementNotInProgress",
			"type": "error"
		},
		{
			"inputs": [],
			"name": "TransferAlreadyInProgress",
			"type": "error"
		},
		{
			"inputs": [],
			"name": "TransferNotInProgress",
			"type": "error"
		},
		{
			"inputs": [],
			"name": "WrongPotentialOwner",
			"type": "error"
		},
		{
			"anonymous": false,
			"inputs": [],
			"name": "CancelOwnershipTransfer",
			"type": "event"
		},
		{
			"anonymous": false,
			"inputs": [
				{
					"indexed": false,
					"internalType": "address[]",
					"name": "currencies",
					"type": "address[]"
				},
				{
					"indexed": false,
					"internalType": "bool",
					"name": "isAllowed",
					"type": "bool"
				}
			],
			"name": "CurrenciesStatusUpdated",
			"type": "event"
		},
		{
			"anonymous": false,
			"inputs": [
				{
					"indexed": false,
					"internalType": "uint256",
					"name": "raffleId",
					"type": "uint256"
				},
				{
					"indexed": false,
					"internalType": "address",
					"name": "buyer",
					"type": "address"
				},
				{
					"indexed": false,
					"internalType": "uint208",
					"name": "amount",
					"type": "uint208"
				}
			],
			"name": "EntryRefunded",
			"type": "event"
		},
		{
			"anonymous": false,
			"inputs": [
				{
					"indexed": false,
					"internalType": "uint256",
					"name": "raffleId",
					"type": "uint256"
				},
				{
					"indexed": false,
					"internalType": "address",
					"name": "buyer",
					"type": "address"
				},
				{
					"indexed": false,
					"internalType": "uint40",
					"name": "entriesCount",
					"type": "uint40"
				},
				{
					"indexed": false,
					"internalType": "uint208",
					"name": "price",
					"type": "uint208"
				}
			],
			"name": "EntrySold",
			"type": "event"
		},
		{
			"anonymous": false,
			"inputs": [
				{
					"indexed": false,
					"internalType": "uint256",
					"name": "raffleId",
					"type": "uint256"
				},
				{
					"indexed": false,
					"internalType": "uint256",
					"name": "amount",
					"type": "uint256"
				}
			],
			"name": "FeesClaimed",
			"type": "event"
		},
		{
			"anonymous": false,
			"inputs": [],
			"name": "InitiateOwnershipRenouncement",
			"type": "event"
		},
		{
			"anonymous": false,
			"inputs": [
				{
					"indexed": false,
					"internalType": "address",
					"name": "previousOwner",
					"type": "address"
				},
				{
					"indexed": false,
					"internalType": "address",
					"name": "potentialOwner",
					"type": "address"
				}
			],
			"name": "InitiateOwnershipTransfer",
			"type": "event"
		},
		{
			"anonymous": false,
			"inputs": [
				{
					"indexed": false,
					"internalType": "address",
					"name": "newOwner",
					"type": "address"
				}
			],
			"name": "NewOwner",
			"type": "event"
		},
		{
			"anonymous": false,
			"inputs": [
				{
					"indexed": false,
					"internalType": "address",
					"name": "account",
					"type": "address"
				}
			],
			"name": "Paused",
			"type": "event"
		},
		{
			"anonymous": false,
			"inputs": [
				{
					"indexed": false,
					"internalType": "uint256",
					"name": "raffleId",
					"type": "uint256"
				},
				{
					"indexed": false,
					"internalType": "uint256[]",
					"name": "winnerIndex",
					"type": "uint256[]"
				}
			],
			"name": "PrizesClaimed",
			"type": "event"
		},
		{
			"anonymous": false,
			"inputs": [
				{
					"indexed": false,
					"internalType": "uint16",
					"name": "protocolFeeBp",
					"type": "uint16"
				}
			],
			"name": "ProtocolFeeBpUpdated",
			"type": "event"
		},
		{
			"anonymous": false,
			"inputs": [
				{
					"indexed": false,
					"internalType": "address",
					"name": "protocolFeeRecipient",
					"type": "address"
				}
			],
			"name": "ProtocolFeeRecipientUpdated",
			"type": "event"
		},
		{
			"anonymous": false,
			"inputs": [
				{
					"indexed": false,
					"internalType": "uint256",
					"name": "raffleId",
					"type": "uint256"
				},
				{
					"indexed": false,
					"internalType": "enum IRaffle.RaffleStatus",
					"name": "status",
					"type": "uint8"
				}
			],
			"name": "RaffleStatusUpdated",
			"type": "event"
		},
		{
			"anonymous": false,
			"inputs": [
				{
					"indexed": false,
					"internalType": "uint256",
					"name": "raffleId",
					"type": "uint256"
				},
				{
					"indexed": false,
					"internalType": "uint256",
					"name": "requestId",
					"type": "uint256"
				}
			],
			"name": "RandomnessRequested",
			"type": "event"
		},
		{
			"anonymous": false,
			"inputs": [
				{
					"indexed": false,
					"internalType": "address",
					"name": "account",
					"type": "address"
				}
			],
			"name": "Unpaused",
			"type": "event"
		},
		{
			"inputs": [],
			"name": "KEY_HASH",
			"outputs": [
				{
					"internalType": "bytes32",
					"name": "",
					"type": "bytes32"
				}
			],
			"stateMutability": "view",
			"type": "function"
		},
		{
			"inputs": [],
			"name": "MAXIMUM_NUMBER_OF_PRIZES_PER_RAFFLE",
			"outputs": [
				{
					"internalType": "uint256",
					"name": "",
					"type": "uint256"
				}
			],
			"stateMutability": "view",
			"type": "function"
		},
		{
			"inputs": [],
			"name": "MAXIMUM_NUMBER_OF_WINNERS_PER_RAFFLE",
			"outputs": [
				{
					"internalType": "uint40",
					"name": "",
					"type": "uint40"
				}
			],
			"stateMutability": "view",
			"type": "function"
		},
		{
			"inputs": [],
			"name": "MAXIMUM_PROTOCOL_FEE_BP",
			"outputs": [
				{
					"internalType": "uint16",
					"name": "",
					"type": "uint16"
				}
			],
			"stateMutability": "view",
			"type": "function"
		},
		{
			"inputs": [],
			"name": "ONE_DAY",
			"outputs": [
				{
					"internalType": "uint256",
					"name": "",
					"type": "uint256"
				}
			],
			"stateMutability": "view",
			"type": "function"
		},
		{
			"inputs": [],
			"name": "ONE_HUNDRED_PERCENT_BP",
			"outputs": [
				{
					"internalType": "uint256",
					"name": "",
					"type": "uint256"
				}
			],
			"stateMutability": "view",
			"type": "function"
		},
		{
			"inputs": [],
			"name": "ONE_WEEK",
			"outputs": [
				{
					"internalType": "uint256",
					"name": "",
					"type": "uint256"
				}
			],
			"stateMutability": "view",
			"type": "function"
		},
		{
			"inputs": [],
			"name": "PRICING_OPTIONS_PER_RAFFLE",
			"outputs": [
				{
					"internalType": "uint256",
					"name": "",
					"type": "uint256"
				}
			],
			"stateMutability": "view",
			"type": "function"
		},
		{
			"inputs": [],
			"name": "REQUEST_CONFIRMATIONS",
			"outputs": [
				{
					"internalType": "uint16",
					"name": "",
					"type": "uint16"
				}
			],
			"stateMutability": "view",
			"type": "function"
		},
		{
			"inputs": [],
			"name": "SUBSCRIPTION_ID",
			"outputs": [
				{
					"internalType": "uint64",
					"name": "",
					"type": "uint64"
				}
			],
			"stateMutability": "view",
			"type": "function"
		},
		{
			"inputs": [],
			"name": "VRF_COORDINATOR",
			"outputs": [
				{
					"internalType": "contract VRFCoordinatorV2Interface",
					"name": "",
					"type": "address"
				}
			],
			"stateMutability": "view",
			"type": "function"
		},
		{
			"inputs": [],
			"name": "WETH",
			"outputs": [
				{
					"internalType": "address",
					"name": "",
					"type": "address"
				}
			],
			"stateMutability": "view",
			"type": "function"
		},
		{
			"inputs": [
				{
					"internalType": "uint256",
					"name": "raffleId",
					"type": "uint256"
				}
			],
			"name": "cancel",
			"outputs": [],
			"stateMutability": "nonpayable",
			"type": "function"
		},
		{
			"inputs": [
				{
					"internalType": "uint256",
					"name": "raffleId",
					"type": "uint256"
				}
			],
			"name": "cancelAfterRandomnessRequest",
			"outputs": [],
			"stateMutability": "nonpayable",
			"type": "function"
		},
		{
			"inputs": [],
			"name": "cancelOwnershipTransfer",
			"outputs": [],
			"stateMutability": "nonpayable",
			"type": "function"
		},
		{
			"inputs": [
				{
					"internalType": "uint256",
					"name": "raffleId",
					"type": "uint256"
				}
			],
			"name": "claimFees",
			"outputs": [],
			"stateMutability": "nonpayable",
			"type": "function"
		},
		{
			"inputs": [
				{
					"components": [
						{
							"internalType": "uint256",
							"name": "raffleId",
							"type": "uint256"
						},
						{
							"internalType": "uint256[]",
							"name": "winnerIndices",
							"type": "uint256[]"
						}
					],
					"internalType": "struct IRaffle.ClaimPrizesCalldata[]",
					"name": "claimPrizesCalldata",
					"type": "tuple[]"
				}
			],
			"name": "claimPrizes",
			"outputs": [],
			"stateMutability": "nonpayable",
			"type": "function"
		},
		{
			"inputs": [
				{
					"internalType": "address",
					"name": "currency",
					"type": "address"
				}
			],
			"name": "claimProtocolFees",
			"outputs": [],
			"stateMutability": "nonpayable",
			"type": "function"
		},
		{
			"inputs": [
				{
					"internalType": "uint256[]",
					"name": "raffleIds",
					"type": "uint256[]"
				}
			],
			"name": "claimRefund",
			"outputs": [],
			"stateMutability": "nonpayable",
			"type": "function"
		},
		{
			"inputs": [],
			"name": "confirmOwnershipRenouncement",
			"outputs": [],
			"stateMutability": "nonpayable",
			"type": "function"
		},
		{
			"inputs": [],
			"name": "confirmOwnershipTransfer",
			"outputs": [],
			"stateMutability": "nonpayable",
			"type": "function"
		},
		{
			"inputs": [
				{
					"components": [
						{
							"internalType": "uint40",
							"name": "cutoffTime",
							"type": "uint40"
						},
						{
							"internalType": "bool",
							"name": "isMinimumEntriesFixed",
							"type": "bool"
						},
						{
							"internalType": "uint40",
							"name": "minimumEntries",
							"type": "uint40"
						},
						{
							"internalType": "uint40",
							"name": "maximumEntriesPerParticipant",
							"type": "uint40"
						},
						{
							"internalType": "uint16",
							"name": "protocolFeeBp",
							"type": "uint16"
						},
						{
							"internalType": "address",
							"name": "feeTokenAddress",
							"type": "address"
						},
						{
							"components": [
								{
									"internalType": "uint40",
									"name": "winnersCount",
									"type": "uint40"
								},
								{
									"internalType": "uint40",
									"name": "cumulativeWinnersCount",
									"type": "uint40"
								},
								{
									"internalType": "enum IRaffle.TokenType",
									"name": "prizeType",
									"type": "uint8"
								},
								{
									"internalType": "uint8",
									"name": "prizeTier",
									"type": "uint8"
								},
								{
									"internalType": "address",
									"name": "prizeAddress",
									"type": "address"
								},
								{
									"internalType": "uint256",
									"name": "prizeId",
									"type": "uint256"
								},
								{
									"internalType": "uint256",
									"name": "prizeAmount",
									"type": "uint256"
								}
							],
							"internalType": "struct IRaffle.Prize[]",
							"name": "prizes",
							"type": "tuple[]"
						},
						{
							"components": [
								{
									"internalType": "uint40",
									"name": "entriesCount",
									"type": "uint40"
								},
								{
									"internalType": "uint208",
									"name": "price",
									"type": "uint208"
								}
							],
							"internalType": "struct IRaffle.PricingOption[5]",
							"name": "pricingOptions",
							"type": "tuple[5]"
						}
					],
					"internalType": "struct IRaffle.CreateRaffleCalldata",
					"name": "params",
					"type": "tuple"
				}
			],
			"name": "createRaffle",
			"outputs": [
				{
					"internalType": "uint256",
					"name": "raffleId",
					"type": "uint256"
				}
			],
			"stateMutability": "nonpayable",
			"type": "function"
		},
		{
			"inputs": [
				{
					"internalType": "uint256",
					"name": "raffleId",
					"type": "uint256"
				}
			],
			"name": "depositPrizes",
			"outputs": [],
			"stateMutability": "payable",
			"type": "function"
		},
		{
			"inputs": [
				{
					"components": [
						{
							"internalType": "uint256",
							"name": "raffleId",
							"type": "uint256"
						},
						{
							"internalType": "uint256",
							"name": "pricingOptionIndex",
							"type": "uint256"
						}
					],
					"internalType": "struct IRaffle.EntryCalldata[]",
					"name": "entries",
					"type": "tuple[]"
				}
			],
			"name": "enterRaffles",
			"outputs": [],
			"stateMutability": "payable",
			"type": "function"
		},
		{
			"inputs": [
				{
					"internalType": "uint256",
					"name": "raffleId",
					"type": "uint256"
				}
			],
			"name": "getEntries",
			"outputs": [
				{
					"components": [
						{
							"internalType": "uint40",
							"name": "currentEntryIndex",
							"type": "uint40"
						},
						{
							"internalType": "address",
							"name": "participant",
							"type": "address"
						}
					],
					"internalType": "struct IRaffle.Entry[]",
					"name": "entries",
					"type": "tuple[]"
				}
			],
			"stateMutability": "view",
			"type": "function"
		},
		{
			"inputs": [
				{
					"internalType": "uint256",
					"name": "raffleId",
					"type": "uint256"
				}
			],
			"name": "getPricingOptions",
			"outputs": [
				{
					"components": [
						{
							"internalType": "uint40",
							"name": "entriesCount",
							"type": "uint40"
						},
						{
							"internalType": "uint208",
							"name": "price",
							"type": "uint208"
						}
					],
					"internalType": "struct IRaffle.PricingOption[5]",
					"name": "pricingOptions",
					"type": "tuple[5]"
				}
			],
			"stateMutability": "view",
			"type": "function"
		},
		{
			"inputs": [
				{
					"internalType": "uint256",
					"name": "raffleId",
					"type": "uint256"
				}
			],
			"name": "getPrizes",
			"outputs": [
				{
					"components": [
						{
							"internalType": "uint40",
							"name": "winnersCount",
							"type": "uint40"
						},
						{
							"internalType": "uint40",
							"name": "cumulativeWinnersCount",
							"type": "uint40"
						},
						{
							"internalType": "enum IRaffle.TokenType",
							"name": "prizeType",
							"type": "uint8"
						},
						{
							"internalType": "uint8",
							"name": "prizeTier",
							"type": "uint8"
						},
						{
							"internalType": "address",
							"name": "prizeAddress",
							"type": "address"
						},
						{
							"internalType": "uint256",
							"name": "prizeId",
							"type": "uint256"
						},
						{
							"internalType": "uint256",
							"name": "prizeAmount",
							"type": "uint256"
						}
					],
					"internalType": "struct IRaffle.Prize[]",
					"name": "prizes",
					"type": "tuple[]"
				}
			],
			"stateMutability": "view",
			"type": "function"
		},
		{
			"inputs": [
				{
					"internalType": "uint256",
					"name": "raffleId",
					"type": "uint256"
				}
			],
			"name": "getWinners",
			"outputs": [
				{
					"components": [
						{
							"internalType": "address",
							"name": "participant",
							"type": "address"
						},
						{
							"internalType": "bool",
							"name": "claimed",
							"type": "bool"
						},
						{
							"internalType": "uint8",
							"name": "prizeIndex",
							"type": "uint8"
						},
						{
							"internalType": "uint40",
							"name": "entryIndex",
							"type": "uint40"
						}
					],
					"internalType": "struct IRaffle.Winner[]",
					"name": "winners",
					"type": "tuple[]"
				}
			],
			"stateMutability": "view",
			"type": "function"
		},
		{
			"inputs": [],
			"name": "initiateOwnershipRenouncement",
			"outputs": [],
			"stateMutability": "nonpayable",
			"type": "function"
		},
		{
			"inputs": [
				{
					"internalType": "address",
					"name": "newPotentialOwner",
					"type": "address"
				}
			],
			"name": "initiateOwnershipTransfer",
			"outputs": [],
			"stateMutability": "nonpayable",
			"type": "function"
		},
		{
			"inputs": [
				{
					"internalType": "address",
					"name": "",
					"type": "address"
				}
			],
			"name": "isCurrencyAllowed",
			"outputs": [
				{
					"internalType": "bool",
					"name": "",
					"type": "bool"
				}
			],
			"stateMutability": "view",
			"type": "function"
		},
		{
			"inputs": [
				{
					"internalType": "address",
					"name": "",
					"type": "address"
				},
				{
					"internalType": "address",
					"name": "",
					"type": "address"
				},
				{
					"internalType": "uint256",
					"name": "",
					"type": "uint256"
				},
				{
					"internalType": "uint256",
					"name": "",
					"type": "uint256"
				},
				{
					"internalType": "bytes",
					"name": "",
					"type": "bytes"
				}
			],
			"name": "onERC1155Received",
			"outputs": [
				{
					"internalType": "bytes4",
					"name": "",
					"type": "bytes4"
				}
			],
			"stateMutability": "pure",
			"type": "function"
		},
		{
			"inputs": [],
			"name": "owner",
			"outputs": [
				{
					"internalType": "address",
					"name": "",
					"type": "address"
				}
			],
			"stateMutability": "view",
			"type": "function"
		},
		{
			"inputs": [],
			"name": "ownershipStatus",
			"outputs": [
				{
					"internalType": "enum IOwnableTwoSteps.Status",
					"name": "",
					"type": "uint8"
				}
			],
			"stateMutability": "view",
			"type": "function"
		},
		{
			"inputs": [],
			"name": "paused",
			"outputs": [
				{
					"internalType": "bool",
					"name": "",
					"type": "bool"
				}
			],
			"stateMutability": "view",
			"type": "function"
		},
		{
			"inputs": [],
			"name": "potentialOwner",
			"outputs": [
				{
					"internalType": "address",
					"name": "",
					"type": "address"
				}
			],
			"stateMutability": "view",
			"type": "function"
		},
		{
			"inputs": [],
			"name": "protocolFeeBp",
			"outputs": [
				{
					"internalType": "uint16",
					"name": "",
					"type": "uint16"
				}
			],
			"stateMutability": "view",
			"type": "function"
		},
		{
			"inputs": [],
			"name": "protocolFeeRecipient",
			"outputs": [
				{
					"internalType": "address",
					"name": "",
					"type": "address"
				}
			],
			"stateMutability": "view",
			"type": "function"
		},
		{
			"inputs": [
				{
					"internalType": "address",
					"name": "",
					"type": "address"
				}
			],
			"name": "protocolFeeRecipientClaimableFees",
			"outputs": [
				{
					"internalType": "uint256",
					"name": "",
					"type": "uint256"
				}
			],
			"stateMutability": "view",
			"type": "function"
		},
		{
			"inputs": [
				{
					"internalType": "uint256",
					"name": "",
					"type": "uint256"
				}
			],
			"name": "raffles",
			"outputs": [
				{
					"internalType": "address",
					"name": "owner",
					"type": "address"
				},
				{
					"internalType": "enum IRaffle.RaffleStatus",
					"name": "status",
					"type": "uint8"
				},
				{
					"internalType": "bool",
					"name": "isMinimumEntriesFixed",
					"type": "bool"
				},
				{
					"internalType": "uint40",
					"name": "cutoffTime",
					"type": "uint40"
				},
				{
					"internalType": "uint40",
					"name": "drawnAt",
					"type": "uint40"
				},
				{
					"internalType": "uint40",
					"name": "minimumEntries",
					"type": "uint40"
				},
				{
					"internalType": "uint40",
					"name": "maximumEntriesPerParticipant",
					"type": "uint40"
				},
				{
					"internalType": "address",
					"name": "feeTokenAddress",
					"type": "address"
				},
				{
					"internalType": "uint16",
					"name": "protocolFeeBp",
					"type": "uint16"
				},
				{
					"internalType": "uint208",
					"name": "claimableFees",
					"type": "uint208"
				}
			],
			"stateMutability": "view",
			"type": "function"
		},
		{
			"inputs": [],
			"name": "rafflesCount",
			"outputs": [
				{
					"internalType": "uint256",
					"name": "",
					"type": "uint256"
				}
			],
			"stateMutability": "view",
			"type": "function"
		},
		{
			"inputs": [
				{
					"internalType": "uint256",
					"name": "",
					"type": "uint256"
				},
				{
					"internalType": "address",
					"name": "",
					"type": "address"
				}
			],
			"name": "rafflesParticipantsStats",
			"outputs": [
				{
					"internalType": "uint208",
					"name": "amountPaid",
					"type": "uint208"
				},
				{
					"internalType": "uint40",
					"name": "entriesCount",
					"type": "uint40"
				},
				{
					"internalType": "bool",
					"name": "refunded",
					"type": "bool"
				}
			],
			"stateMutability": "view",
			"type": "function"
		},
		{
			"inputs": [
				{
					"internalType": "uint256",
					"name": "",
					"type": "uint256"
				}
			],
			"name": "randomnessRequests",
			"outputs": [
				{
					"internalType": "bool",
					"name": "exists",
					"type": "bool"
				},
				{
					"internalType": "uint248",
					"name": "randomWord",
					"type": "uint248"
				},
				{
					"internalType": "uint256",
					"name": "raffleId",
					"type": "uint256"
				}
			],
			"stateMutability": "view",
			"type": "function"
		},
		{
			"inputs": [
				{
					"internalType": "uint256",
					"name": "requestId",
					"type": "uint256"
				},
				{
					"internalType": "uint256[]",
					"name": "randomWords",
					"type": "uint256[]"
				}
			],
			"name": "rawFulfillRandomWords",
			"outputs": [],
			"stateMutability": "nonpayable",
			"type": "function"
		},
		{
			"inputs": [
				{
					"internalType": "uint256",
					"name": "requestId",
					"type": "uint256"
				}
			],
			"name": "selectWinners",
			"outputs": [],
			"stateMutability": "nonpayable",
			"type": "function"
		},
		{
			"inputs": [
				{
					"internalType": "uint16",
					"name": "_protocolFeeBp",
					"type": "uint16"
				}
			],
			"name": "setProtocolFeeBp",
			"outputs": [],
			"stateMutability": "nonpayable",
			"type": "function"
		},
		{
			"inputs": [
				{
					"internalType": "address",
					"name": "_protocolFeeRecipient",
					"type": "address"
				}
			],
			"name": "setProtocolFeeRecipient",
			"outputs": [],
			"stateMutability": "nonpayable",
			"type": "function"
		},
		{
			"inputs": [],
			"name": "togglePaused",
			"outputs": [],
			"stateMutability": "nonpayable",
			"type": "function"
		},
		{
			"inputs": [
				{
					"internalType": "address[]",
					"name": "currencies",
					"type": "address[]"
				},
				{
					"internalType": "bool",
					"name": "isAllowed",
					"type": "bool"
				}
			],
			"name": "updateCurrenciesStatus",
			"outputs": [],
			"stateMutability": "nonpayable",
			"type": "function"
		},
		{
			"inputs": [
				{
					"internalType": "uint256",
					"name": "raffleId",
					"type": "uint256"
				}
			],
			"name": "withdrawPrizes",
			"outputs": [],
			"stateMutability": "nonpayable",
			"type": "function"
		}
	]
}